:020000040800F2
:1000000020D800202D040008437D0008FD79000859
:10001000417D0008D91F00084DB80008000000000D
:100020000000000000000000000000003F04000885
:10003000CD25000800000000430400084D92000890
:100040004704000847040008470400084704000864
:100050004704000847040008470400084704000854
:100060004704000847040008470400086D21000801
:100070004704000847040008470400084704000834
:100080004704000847040008470400084704000824
:100090004704000847040008470400084704000814
:1000A0004704000847040008470400084704000804
:1000B00047040008470400084704000847040008F4
:1000C00047040008470400084704000847040008E4
:1000D000E58D00084704000847040008DDA2000879
:1000E0004704000847040008000000004704000817
:1000F00047040008470400084704000847040008B4
:1001000047040008470400084704000847040008A3
:100110004704000847040008470400084704000893
:1001200047040008C12100084704000847040008EC
:100130004704000847040008470400084704000873
:1001400000000000000000000000000000000000AF
:100150004704000847040008470400084704000853
:100160004704000847040008470400084704000843
:1001700047040008470400080121000800000000AF
:100180004704000847040008470400084704000823
:100190004704000847040008470400084704000813
:1001A0004704000847040008470400084704000803
:1001B00047040008470400084704000847040008F3
:1001C00047040008470400084704000847040008E3
:1001D00047040008E17E00084704000847040008BF
:1001E00047040008470400084704000847040008C3
:1001F00047040008470400084704000847040008B3
:1002000047040008470400084704000847040008A2
:100210004704000847040008470400084704000892
:1002200047040008470400084704000800000000D5
:1002300047040008470400080000000047040008C5
:100240004704000847040008470400084704000862
:100250004704000847040008470400084704000852
:100260004704000847040008470400084704000842
:100270004704000847040008470400080000000085
:100280004704000847040008470400080000000075
:10029000000000004704000800F002F800F0B6F883
:1002A0000AA090E8000C82448344AAF10107DA45D1
:1002B00001D100F0ABF8AFF2090EBAE80F0013F06D
:1002C000010F18BFFB1A43F001031847E075010046
:1002D000107601000A444FF0000C10F8013B13F0B7
:1002E000070408BF10F8014B1D1108BF10F8015B8F
:1002F000641E05D010F8016B641E01F8016BF9D182
:1003000013F0080F1EBF10F8014BAD1C0C1B09D1D8
:100310006D1E58BF01F801CBFAD505E014F8016B4A
:1003200001F8016B6D1EF9D59142D6D370470000DC
:100330000023002400250026103A28BF78C1FBD8EE
:10034000520728BF30C148BF0B6070476E2900F0CC
:100350002C85702900F08D86662913F0AE81652901
:1003600013F0AB81672913F0A881612913F0A781ED
:1003700003681B0A28BF41F08001692900F0AC81A5
:10038000642900F0A981752900F0A6816F2900F089
:100390001B86782900F05986E92900F0B585E42903
:1003A00000F0B285F52900F0AF85EF2900F018863E
:1003B000F82900F058860368DB0928BF41F0800166
:1003C000632900F03685732900F03B85E32901F0AD
:1003D0005982F32901F05E82002070471FB513F0A7
:1003E0005FF99DE8030000F00DFC00F051FE0400F1
:1003F0000020002113F028F9401C6060002000213B
:1004000013F038F9E0601FBD10B510BD01F072FAAD
:100410001146FFF7E3FF10F01BF901F043FB03B4B3
:10042000FFF7F2FF03BC01F073FB000009488047AF
:1004300009480047FEE7FEE7FEE7FEE7FEE7FEE7C6
:10044000FEE7FEE7FEE7FEE704480549054A064BDE
:10045000704700006D9300089902000820A8002052
:1004600020D8002020C8002020C8002070B50646F3
:1004700000F0A8FB056806F10B0020F00704B44269
:100480009CBF002070BD2B466A68BAB11068A042BC
:1004900010D304F1080188423CBF5068586007D36C
:1004A0005168101941601168091B0160586014609F
:1004B000101D70BD13465268002AE7D12146284618
:1004C00000F08CFB0028DED170BD70B50446051F1E
:1004D00000F078FB0068002C14BF446870BD002C4D
:1004E00018BFAC423CBF20466468F8D301680A18C4
:1004F000AA4218BF456003D12A680546114401602D
:1005000028684119A1421CBF6C6070BD61686960B8
:1005100021680844286070BD53EA020C00F069802D
:100520002DE9F04B4FF00006002B1FBFB3FA83F507
:1005300003FA05F424FA05F65E4012BF1643B2FA38
:1005400082F502FA05F4C5F120051EBF22FA05FC6A
:1005500044EA0C04203556EA044C4FEA144418BF10
:10056000641C4FF000084FF00009904271EB030C3F
:1005700039D3002919BFB1FA81F701FA07F6B0FAA9
:1005800080F700FA07F6C7F120071EBF20FA07FC24
:1005900046EA0C062037B6FBF4FCA7EB0507103F34
:1005A00007F01F0BCBF120062CFA06F60CFA0BFB1A
:1005B00044BFB3460026202FA4BF5E464FF0000B79
:1005C0005BEA060C08BF4FF0010B19EB0B0948EB77
:1005D0000608ABFB027C06FB02CC0BFB03CCC01B6A
:1005E00071EB0C01C1E70B46024641464846BDE8A7
:1005F000F08B13B54FF000004FF00001AFF3008017
:10060000BDE81C40704710B5044600F0D3FA0068FE
:10061000005D000704D5DF2C02D0A4F1200010BD3E
:10062000204610BD7CB51D4616460C00009001D03A
:100630002044401E074B7B442A46694601903046C1
:1006400000F0CDFB05461CB10020694600F0DAFB46
:1006500028467CBDD50700000FB41CB5084B06AA80
:100660007B4469460090059800F0B9FB04460020E1
:10067000694600F0C7FB20461CBC5DF814FB000077
:10068000A107000070B50C460546012A05D0287860
:10069000800600D5EA69002302E0012305E05B1C27
:1006A000934202D2E05C0028F9D1A869E618C01A8A
:1006B000A861286A18442862284600F0E4FA04E099
:1006C000D5E9012114F8010B9047B442F8D328462C
:1006D00000F0EFFA70BD00002DE9F041064600245D
:1006E00010687529314616A510D000F0F3FA0028DD
:1006F00002DA404213A507E031688A0701D512A546
:1007000002E0490704D511A5012401E000F0EBFA4D
:1007100000210A2206F1240709E0B0FBF2FCB0FB3D
:10072000F2F302FB1C00303078541846491C0028B4
:10073000F3D123462A463046BDE8F04100F0DCBA4A
:10074000000000002D0000002B0000002000000031
:100750002DE9F05F894604464FF0000ADFF874B1D6
:10076000FB44C0F820A02046E1688847002874D0E8
:10077000252806D0D4E901219047206A401C206238
:10078000F1E700265F462046E168884720280546B5
:1007900007DB312D05D2781910F8200C08B106437B
:1007A000F1E7B00701D526F00406C4F81CA0002725
:1007B000C4F818A02A2D09D0284612F03DFF38B3FE
:1007C00004EB8708303DC8F8185019E059F8041BAD
:1007D000204604EB87029161E1688847012F0546B6
:1007E00018D1E069002820DA26F020061DE0D8F8AC
:1007F000180000EB800005EB40003038C8F8180006
:100800002046E1688847054612F016FF0028EED121
:10081000012F0AD02E2D08D12046E16888477F1C81
:100820000546022F46F02006C4DBA069002803DA43
:10083000404246F00106A061F00701D026F0100604
:100840006C2D0BD0682D09D04C2D39D06A2D35D0A8
:10085000742D35D07A2D33D016E038E0E1682F467C
:1008600020468847B842054609D16C2F26D04FF460
:100870008060E168064320468847054604E06C2F07
:100880001AD04FF4807006430DB3A5F1410019282A
:1008900002D8203546F400664A462946204626609E
:1008A0004E46FFF753FD80B101280BD0F61D26F010
:1008B000070000F1080956E74020E4E78020D8E768
:1008C0000020D6E706F104094DE7284652E7206AE2
:1008D000BDE8F09F5E2F010010B5431C02E010F848
:1008E000011B71B18107FAD14FF0013202C88C1A95
:1008F0008C4314EAC211F9D0C01A0A0603D0C01EF4
:1009000010BDC01A10BD0A0401D0801E10BD09021E
:10091000FCD0401E10BD40EA010370B59B072ED1EC
:100920004FF00136042A2AD308C810C99D1B9D43E5
:10093000121F15EAC61517D0D8B2E1B2401A50EA14
:10094000056110D198B2A1B2401A50EA05410AD10E
:1009500023F07F4024F07F41401A50EA052102D164
:10096000180EA0EB146070BDA342DBD018BA21BAF8
:10097000884201D9012070BD4FF0FF3070BD0AB927
:10098000002070BD10F8013B11F8014B63B1A34288
:100990000AD1521E08D010F8013B11F8014B1BB1CF
:1009A000A34201D1521EEDD1181B70BD032A40F2A3
:1009B000308010F0030C00F0158011F8013BBCF101
:1009C000020F624498BF11F801CB00F8013B38BF19
:1009D00011F8013BA2F1040298BF00F801CB38BF27
:1009E00000F8013B11F0030300F02580083AC0F045
:1009F000088051F8043B083A51F804CBA0E80810ED
:100A0000F5E7121D5CBF51F8043B40F8043BAFF31F
:100A10000080D20724BF11F8013B11F801CB48BF79
:100A200011F8012B24BF00F8013B00F801CB48BFAF
:100A300000F8012B704710B5203AC0F00B80B1E8E8
:100A40001850A0E81850B1E81850A0E81850203A03
:100A5000BFF4F5AF5FEA027C24BFB1E81850A0E80C
:100A6000185044BF18C918C0BDE810405FEA827C26
:100A700024BF51F8043B40F8043B08BF7047D2073D
:100A800028BF31F8023B48BF11F8012B28BF20F8DE
:100A9000023B48BF00F8012B70474FF000020429C9
:100AA000C0F0128010F0030C00F01B80CCF1040C9D
:100AB000BCF1020F18BF00F8012BA8BF20F8022BD1
:100AC000A1EB0C0100F00DB85FEAC17C24BF00F877
:100AD000012B00F8012B48BF00F8012B70474FF0A5
:100AE000000200B5134694469646203922BFA0E87E
:100AF0000C50A0E80C50B1F12001BFF4F7AF09078A
:100B000028BFA0E80C5048BF0CC05DF804EB89007A
:100B100028BF40F8042B08BF704748BF20F8022BBD
:100B200011F0804F18BF00F8012B70470000000043
:100B300030B44FF0013C50F8042BCCFA52F451F889
:100B4000043BD51A20D1FCB950F8042BCCFA52F44E
:100B500051F8043BD51A17D1B4B950F8042BCCFA8C
:100B600052F451F8043BD51A0ED16CB950F8042B4D
:100B7000CCFA52F451F8043BD51A05D1002CDAD046
:100B800030BC4FF00000704729BAB1FA81F111F082
:100B90001801D1F120008440F2D1CA40CB4012F0BC
:100BA000FF0213F0FF0330BCD01A70477047704744
:100BB0007047000010B500F06BFA001D10BD00BFBB
:100BC000892A010000487047C80200200048704789
:100BD000C0020020704770477047704738B5044620
:100BE0000A4600206946AFF30080002808BF38BDE0
:100BF00002460099204600F04FFA012038BD01203E
:100C000000F070BEF8B5AFF30080054600200C463A
:100C1000102000BF0646A819A0420DD932466946E9
:100C20000020AFF30080070008BF00F05BFE0098D3
:100C3000A04218BF0546C419FFF7C4FF0560074668
:100C4000F01D20F007004619284600F00AF8B442CB
:100C500008BFF8BDA21B31463868BDE8F84000F077
:100C60001BBA00210160C0E90110704710207047D5
:100C700010B5FFF7ABFF006810BD10B50446FFF7D5
:100C8000A5FF046010BD70B5044685690068C10603
:100C900001D5302600E02026C00707D070BDD4E97A
:100CA000012130469047206A401C20626D1EF6D517
:100CB00070BD70B5044685690078C00707D170BD66
:100CC000D4E9012120209047206A401C20626D1E3B
:100CD000F6D570BD09684A0501D540B27047C9050F
:100CE000FCD500B2704709684A0501D5C0B270470B
:100CF000C905FCD580B270472DE9F0470D469946ED
:100D00009246044600F124080168880604D5E0698B
:100D100021F01001216000E00120A84201DD471B05
:100D200000E00027A1697A1902EB0900081AA06106
:100D30002078C00602D42046FFF7A5FF002608E071
:100D4000D4E901211AF806009047206A401C761C5D
:100D500020624E45F4DB2078C0060AD52046FFF716
:100D600092FF06E0D4E9012130209047206A401C20
:100D70002062381EA7F10107F4DC07E0D4E9012165
:100D800018F805009047206A401C2062281EA5F133
:100D90000105F3DC2046FFF78CFF2078000602D522
:100DA0000220BDE8F0870120FBE711680268006AB5
:100DB000530501D508700AE0D30501D5088006E087
:100DC000130603D5C217C1E9000200E00860012044
:100DD0007047000001694A1C02610878704700B53D
:100DE0008FB0CDE901310021059105497944CDE964
:100DF000031011466846FFF7ABFC0FB000BD0000C2
:100E0000E5FFFFFF0A6802F8010B0A607047D1E9AD
:100E100000239A4202D2531C0B601070704710B529
:100E2000436913B1AFF3008001E0FFF72BFC012011
:100E300010BD127800F124010A7000224A700122CC
:100E4000EDE711684FF0FF32E9E700002DE9FF5FA1
:100E500015468A460446DFF8AC80F8440027D8E9F6
:100E600000103E46CDE9001010E03AF816106A4630
:100E700002A800F013FD411C07D02178890603D594
:100E8000E269391891420DD80744761C2078800613
:100E900002D5E069B84205DDAE42E6DB3AF816005D
:100EA0000028E2D1A069C01BA0612046FFF7EBFE3D
:100EB000D8E90010CDE90010002017E03AF818102A
:100EC0006A4602A800F0EAFCB0F1FF3F81460BD071
:100ED00000250DF1080B05E0D4E901211BF8050000
:100EE00090476D1C4D45F7D308F10100B042804694
:100EF000E4DB206A384420622046FFF7DAFEBDE8D2
:100F0000FF9F0000762801002DE9F0418046D21DA8
:100F100022F007020025D2E90002F52915A614D017
:100F2000011E72F1000106DA0023D0EB030063EB2F
:100F3000020211A608E0D8F800108B0701D50FA611
:100F400002E0490701D50EA601251146002408F14B
:100F5000240704E000F0BAF830323A55641C50EA35
:100F60000102F7D12B46324621464046BDE8F0410A
:100F7000FFF7C2BE000000002D0000002B000000A3
:100F80002000000030B4002100F1240408E002F049
:100F90000705D208303542EA4372DB086554491C24
:100FA00052EA0305F3D10468002310A2250708D5EF
:100FB00004F020040C4304D0C46901230CA2641E75
:100FC000C46130BCFFF798BE10B5044621461068D6
:100FD000FFF789FE02462046BDE810400023D1E716
:100FE000D21D22F00701D1E90023CBE70000000069
:100FF00030000000F0B40D460188090502D5214CEF
:101000007C4402E01F4C7C440E34002100F1240695
:1010100008E002F00F071209E75D42EA03721B09BC
:101020007754491C52EA0307F3D1027800231207D0
:1010300004D5702D06D009B1022311342246F0BC2C
:10104000FFF75ABE01231034F8E770B504460D4689
:1010500021461068FFF747FE024629462046BDE8B4
:1010600070400023C6E7D21D22F00703D3E9002316
:10107000C0E70368126843F0200303600823C361DC
:101080000023B7E7D826010000487047C0020020BF
:1010900000487047E0020020034640688C46002864
:1010A00018BF88423CBF03464068F8D3186818440C
:1010B000884207D00CF1030020F00700001D411A00
:1010C000521A0146081D0A60FFF7FFB930B5B0F1AA
:1010D0000A0271F100034FEA900E4EEA817EB0EBF6
:1010E0000E0061EB91014FEA101E4EEA017E10EBFB
:1010F0000E0041EB11114FEA102E4EEA016E10EB7B
:101100000E0041EB11214FEA104E4EEA014E10EB5A
:101110000E0041EB1141401841F100014FEAD000AF
:1011200040EA41704FEAD1014FEA810444EA9074E9
:1011300010EB800544EB01046D1944EB0404521BD1
:10114000A3414FF0000348BF0A3200D530BD401C18
:1011500041F1000130BD2DE9FF4F0C461E464FF016
:10116000FF378BB0D2E90001DDF860800A908A4633
:10117000C1F30A5505B93D46002108464FF000006D
:10118000BAF1000F00F4400005DA00EB80004FF4E4
:10119000400101EA50004FEA9059B9F1010F00DD1A
:1011A000B9460A9850EA4A000ED044F61050A5F20B
:1011B000FF3545432F14B8F1000F1ED07542291E8C
:1011C0001EDDC9F100021CE0B8F1010F4FF0000074
:1011D00001D0302103E0F24305E02154401CB0422D
:1011E000FBDB30460022002121540B99C1F8088016
:1011F000C1E900200FB0BDE8F08FBD1B6D1CDEE71C
:101200004A4600DA694206A800F0DAFB06AB93E82A
:10121000070003AB83E8070050460A9911F0EAFB88
:101220008DE80700A0F500501F3800900398002DAE
:101230000ADD42F21F014A460844002303A9039035
:10124000684611F053FE09E0A0F500504A461F38E9
:10125000002303A90390684611F05DFE8DE80700A6
:101260000004000C03D04FF0FF30410800E01046AE
:10127000B8F1000F03D00022009215461EE0751E43
:1012800005D4FFF723FF303262556D1EF9D5B34602
:101290000122084302D000227F1C04E0207830287D
:1012A00001D100227F1E002A099784D01DE0112D54
:1012B00007DAFFF70BFF303262556D1C50EA01026E
:1012C000F5D1084302D00098C8B10EE00021681E95
:1012D00005E0235C625C63542254401E491C814239
:1012E000F7DBAB46A81B401E0990002004F80B005A
:1012F0000B98099AC0F80880C0E9002B7AE71126FC
:101300004FF0000857E72DE9F04F88460446D21DFC
:1013100022F0070191B0D1E90001CDE90A0111F0F5
:1013200031FF02460B98C00F01D02D2007E0206846
:10133000810701D52B2002E0202101EAC000032A09
:10134000099001D0072A05DB03464146204600F0FC
:10135000F7FA0BE12078800601D5E06900E006206D
:10136000B8F1650F814606D0B8F1660F18D0B8F114
:10137000670F70D131E00020B9F1110F009001DB4F
:10138000112301E009F101030AAA01A90CA8FFF742
:10139000E2FEDDE90C70002609F10105834647E015
:1013A00001204B4600904FF000470AAA01A90CA863
:1013B000FFF7D1FEDDE90DB00C995D46002610B9AE
:1013C00009F101000D18B9EB050003D4C0F1FF3697
:1013D00009F10105A5EB09002BE0B9F1010F01DAD4
:1013E0004FF001090020B9F1110F0090484601DDCE
:1013F000112300E003460AAA01A90CA8FFF7ABFEDF
:10140000DDE90C704D4600268346207800070AD49B
:10141000AB4500DA5D4601A8012D04DD411911F844
:10142000011C302907D04F4502DA17F1040F04DA06
:10143000012082460FE06D1EEEE7002F02DCED1B5F
:101440003E4403E0781CA84200DD7D1CB81B00F17F
:10145000010A4FF000472078000703D4AA4501DBBA
:101460004FF0FF3A0021B7F1004F0DF143088DF81E
:10147000431024D002202B23002F01DA7F422D239A
:101480000A21021EA0F1010000DC5FB197FBF1FC14
:1014900097FBF1F201FB1C7C17460CF1300C08F8AD
:1014A00001CDEEE7A8F1010003702188090501D5FF
:1014B000452100E06521A0F1010800F8011C099810
:1014C0000FA9A1EB0807FF1D00B10120411901EB95
:1014D000EA70A1693844081A401EA0612078C0064D
:1014E00002D42046FFF7CFFB099828B1D4E90121A7
:1014F0009047206A401C20622078C00622D52046F2
:10150000FFF7C1FB1EE0002E04DBB34502DD01A89E
:10151000805D00E03020D4E901219047206A401C22
:101520002062761CAAF101005FEA000A0AD1FFF7E7
:10153000AFFDC0680168405CD4E901219047206A92
:10154000401C2062281EA5F10105DCDC07E0D4E97F
:10155000012118F8010B9047206A401C2062381EB8
:10156000A7F10107F3DC2046FFF7A3FB032011B02E
:1015700041E600002DE9F04F04460D46D21D22F051
:10158000070089B0D0E900974846394611F0FAFDC6
:101590000246F80F01D02D2307E02068810701D50E
:1015A0002B2302E0202101EAC0038DF820300BB18B
:1015B000012000E00020032A824601D0072A04DB34
:1015C0002946204600F0BCF93FE12078800601D48E
:1015D0000D2500E0E569C7F30A560D2D49DA002113
:1015E0004FEA175B08464FF00000002F00F4400060
:1015F00007DA00EB80004FF4400100EBD07001EA05
:1016000060008115012901DD4FF0FF3100224FEA12
:10161000850CBCF1180F06D31346ACF118004FF03F
:101620008052C24003E04FF4801323FA0CF30CF114
:101630000C0CBCF1200F04D3ACF1200C09FA0CF017
:1016400001E007FA0CF000294FF0004801DD18B95D
:101650000FE00ED140450CD319EB02095F4121B9CF
:10166000404502D19F4329EA0209BBEB175F00D036
:10167000761C2088000502D57B48784402E07A4831
:101680007844193808AA302302F80A30037C0AF19A
:101690000101002E0AF1020A53546A4602DC4FF09F
:1016A000300101E04FF031014FF001088DF80010DA
:1016B00002D0A6F2FF3603E059EA470100D06B4E94
:1016C000002D02DC2178090704D54FF002082E21F5
:1016D0008DF80110C44600210BE0C7F303433F011E
:1016E000C35C491C6D1E02F80830052908F1010889
:1016F00001DA002DF1DC00210CE000EB1973491C2C
:101700001B786D1E082902F808304FEA091908F104
:10171000010801DA002DF0DC21688B0602D516E005
:10172000A8F10108E04505DD02EB080313F8013CD0
:10173000302BF5D0B8F1000F09DD02EB080313F8E8
:10174000013C2E2B03D1090701D4A8F10108002D7B
:1017500005DD3E2102F808106D1E08F10108407CED
:10176000002E02F8080008F1010804DA2D20764264
:1017700002F8080002E02B2002F808000A214FF4CA
:101780007A70864208F101080BDB96FBF0F33033E8
:1017900002F8083096FBF0F308F1010800FB13662D
:1017A00001E0642E0CDB642096FBF0F3303302F88A
:1017B000083096FBF0F308F1010800FB136601E026
:1017C0000A2E06DB96FBF1F0303002F8080008F133
:1017D000010896FBF1F001FB1060303002F80800C0
:1017E000A16908F1010808EB050202EB0A00081ADA
:1017F000A0612078C00602D42046FFF744FA216A8F
:1018000008AE01EB0A00206204E0D4E9012116F8D9
:10181000010B9047BAF1010AF7D22078C00602D531
:101820002046FFF730FA6E4609E016F8010B3E2815
:101830000FD0D4E901219047206A401C2062B8F102
:101840000108F2D22046FFF734FA09B00320BDE8C0
:10185000F08F206A2844206203E0D4E9012130207F
:1018600090476D1EEBD3F8E7B920010002FCFFFFA3
:1018700010B5436913B1AFF3008001E0FFF7E6FA5A
:10188000012010BD128800F1240182840022C2844C
:101890000122EDE711684FF0FF32E9E72DE9F04151
:1018A00016460C460546FFF785F9036893F80101D3
:1018B000012807D0FF2C12D8185D80B101202C70B0
:1018C000BDE8F081D3F807013246214603F2071341
:1018D000C7182846BC46BDE8F041002360474FF0DA
:1018E000FF30EDE710B500F0EBF8BDE8104000F078
:1018F000E2B870477546FFF7C7FBAE46050069467C
:10190000534620F00700854618B020B5FEF79CFD31
:10191000BDE820404FF000064FF000074FF00008F0
:101920004FF0000BAC46ACE8C009ACE8C009ACE82D
:10193000C009ACE8C00921F007018D4670470000DE
:101940002DE9F0411F46044603260168072A01F4E9
:10195000006004DB08B116A505E016A503E008B198
:1019600015A500E015A521F010002060A069C01E9B
:10197000A0610FB1401EA0612046FFF784F94FB16E
:10198000D4E9012138469047206A401C2062C01CDF
:10199000206206E0206AFAE7D4E9012115F8010B7C
:1019A0009047761EF8D22046FFF783F9BDE8F08114
:1019B0004E414E006E616E00494E4600696E6600F3
:1019C0002DE9F047814616468AB0354878440DC85F
:1019D0008DE80D0032487844801C03AC0DC884E8C3
:1019E0000D0041F69B300844372190FBF1F290FB4B
:1019F000F1F5A5F1800501FB12041B3C02D5644200
:101A0000012000E00020DFF898A080460027FA447B
:101A1000AAF1BE0A0EE0E0070AD03246684607EB9C
:101A2000470101230AEB810111F075FA8DE80700E7
:101A300064107F1C002CEED1194F7F44AE3F19E09B
:101A4000E80715D007EB04100DF1180A90E80E0016
:101A50008AE80E00C068F04201D198190890324619
:101A6000012306A903A811F056FA03AB83E8070087
:101A70006D10641C002DE3D14FF00103324669461E
:101A8000B8F1000F03A802D011F030FA01E011F014
:101A900042FAC9E90001C9F808200AB0BDE8F08798
:101AA000F81D010010B50446AFF300802046BDE8E4
:101AB0001040FEF7B4BC002801D000F029B87047F0
:101AC00010B5012805D0002103A000F027F801205F
:101AD00010BD09A1F8E7000053494752544D454D48
:101AE0003A204F7574206F662068656170206D65BF
:101AF0006D6F7279000000003A2048656170206DBA
:101B0000656D6F727920636F7272757074656400B1
:101B100001491820ABBEFEE72600020070B505465D
:101B20000C460A2000E06D1C00F011F835B1287851
:101B30000028F8D102E0641C00F009F814B1207804
:101B40000028F8D1BDE870400A20AFF3008008B546
:101B500069468DF800000320ABBE08BD2DE9FE4F9D
:101B6000012840F0A981DFF854638021DFF8500399
:101B7000DFF85023B0600EF07FFE0021DFF848A3AD
:101B80000FF2483780464FF0000B4FF00009002558
:101B9000B8F1000F00F082818021029550460BF1D0
:101BA0000304FEF79CFF58FA84F50521284607F048
:101BB0003FFB052228463946FEF7ADFE38B1062226
:101BC0002846C4A1FEF7A7FE58B1032516E0C54874
:101BD0000BF10804CAF80300C348CAF80000002546
:101BE00008E00BF10904DFF8E0A20125BB48BC497D
:101BF000CAE900105046FEF76FFEB08058FA84F034
:101C000010F045FC032D064604F1030B01D101251C
:101C10004EE00196F6B2632E12D0A848C08A8642E2
:101C20000ED00225A54EDFF8A0A280215046FEF777
:101C300056FF022D37D1B08A012834D1022546E063
:101C400058FA8BF010F023FC9C4F5FFA80F9B888AB
:101C5000A6A1FA8A4B46DFF870A204F1060B5044A5
:101C600010F09EFD5046FEF737FEB8800027A24BCD
:101C700000E00137072F18D813F837104945F8D17D
:101C800003EBC7014A68002A45D0052F4CD34B7897
:101C90009D4249D00525DFF830A28CA7802150460F
:101CA000FEF71DFF0BE0019E08E00425019E87A7BB
:101CB000DFF814A280215046FEF711FFF6B250461D
:101CC000009594A132464B4610F06AFD7B4E50467B
:101CD000FEF702FE0104B08006D082B2934842F2C1
:101CE0001073514605F025FE70780130C1B2707056
:101CF000182900F2DA805FFA8BF0B268C8F180012F
:101D0000081A10446F4A81B258FA8BF00EF0B4FDF5
:101D1000804601213CE7DFF8B0A17CA11AFA80F0EF
:101D200010F03EFD69A7B3E0012D13D0002D67A789
:101D300030D18978DFF890A10A29029D00F2A980AC
:101D4000DFE801F0062B33383DA7A7A72FA74400F3
:101D5000127823E05FFA8BF0DFF86CA104F1070B37
:101D600018F8000059A72C2843D18878092800F2D8
:101D70007580DFE800F005404C5867737373737625
:101D800058FA8BF05FFA8BF4154610F080FB287040
:101D9000C2B239E0DFF830A17AE012881AFA80F096
:101DA0000BE01AFA80F057A10DE0B2F900201AFA00
:101DB00080F007E01AFA80F01268514903E01AFA3D
:101DC00080F012684D4910F0EBFC62E05FFA8BF096
:101DD00004F1070B18F800002C280AD137495FFAE4
:101DE0008BF04988081A81B258FA8BF09047054663
:101DF0004FE0062552E758FA8BF05FFA8BF4154650
:101E000010F045FB288082B22C49898816E058FAE8
:101E10008BF05FFA8BF4154610F039FB288002B284
:101E2000264989882AE058FA8BF05FFA8BF4154628
:101E300010F02DFB21490246898828600AEB010039
:101E40002F491EE058FA8BF05FFA8BF4154610F01C
:101E50001EFB1A490246898828600FE05FFA8BF45E
:101E600011E0164D5FFA8BF46888001B81B258FAB6
:101E70008BF09047A9880246DFF84CA00AEB0100DE
:101E80001E4910F08DFC08EB0400FEF725FD83448D
:101E9000029D0DB1094EC8E6002517E770887F281E
:101EA00003D8012918BFBDE8FE8FB0688021FEF776
:101EB000F4FD002070803070BDE8FE8FA00300208C
:101EC000E0040020F0710108600400205245414404
:101ED0003D00000057524954453D000054453A002A
:101EE0002B57524941443A002B5245412530326428
:101EF0002C253033643D0000C4380108E671010828
:101F0000EB71010825730D0A000000004E554C4C82
:101F10000D0A00002B4552524F523A253032642CA4
:101F2000253033643D25640D0A000000A0A4002084
:101F3000284902460846114604F050BC80B52548A1
:101F400004F05DFC043818BF012080BD80B500F0AE
:101F500013F8012804D11F4804F020FD10B180BD02
:101F6000022080BD1B484FF4804104F0F1FA0028A4
:101F700018BF012080BD00BFE0B5012001218DF810
:101F80000700054802F032F810B100208DF8070074
:101F90009DF8070002B080BD000C0258E0B59446E1
:101FA00000930A4601460B48634604F065FE00288C
:101FB00018BF012002B080BDE0B5944600930A46E8
:101FC00001460448634604F025FF002818BF01209D
:101FD00002B080BD9CA30020FEE7002070470020D7
:101FE0007047000010B51D4C00220549204608F03E
:101FF0005EFA0449204608F054FA002010BD00BFE4
:10200000640F00206407002070B50546134E0C468F
:102010003046294608F045FA304608F025FA22886D
:10202000294602480FF004F8002070BDA8020020E5
:102030000A4AD2F81822D2F81422002A1CBF012022
:10204000704710B5054C0A460146204608F02FFAA5
:102050002046BDE8104008F06BBA00BFE49B0020AA
:10206000806B816C496D022906D0012180F8351002
:10207000C16C41F04001C16400F07EBC10B5846BBE
:10208000A26BA06C002A01680B6803F400220BD03D
:10209000002AA26B14D012F0010211D1C968E26BC0
:1020A00001EBC201002213E0C2B90868000317D493
:1020B000E06BD4E9103202EB80000861A3630FE00B
:1020C0000A6812030CD40969E26B01EBC201012218
:1020D00000F054FDA06B0138A06301E0606CC860A3
:1020E000A06B216C88420AD12068C16841F00101CF
:1020F000C1600068800744BF012084F8350010BD2E
:10210000184800F03BBC00BF70B5002B18BF01237E
:10211000002A18BF0122002918BF0121114C0025F7
:102120005B01114E26606560C901A36004F10C03D8
:10213000920126C3A561C4E908053848C4E90A55D7
:102140002563A0648463204600F00AFC204600F06A
:102150005FFC30B132484FF4F671BDE8704009F0D1
:1021600009BC70BD089E002000000248124801F022
:1021700047B800BF10B5104CBA4828212060402055
:1021800061600021A0604FF48060C4E903104FF447
:102190000030C4E90511E161C4E90801204601F0FD
:1021A000E7FA20B11E484FF4C47109F0E3FB03487D
:1021B0008467A06310BD00BF589E002018A40020B3
:1021C000164801F01DB800BF80B51448A6494B223F
:1021D00001600021C0E901214FF48062C1604FF429
:1021E000805302614FF48042C0E905324FF400325F
:1021F000C16104230262032243624FF40003C0E979
:102200000A23016301F0B4FA30B105484FF4E571D7
:10221000BDE8804009F0AEBB80BD00BFD09E00206D
:10222000397601080168D14A914223D0D04A9142BF
:102230001CBFD04A91421DD0CF4A91421CBFCF4A09
:10224000914217D0CE4A91421CBFCE4A914211D042
:10225000CD4A91421CBFCD4A91420BD0CC4A91420B
:102260001CBFCC4A914205D0CB4A91421CBFCB4AFD
:1022700091421AD180B56FF00F02DFF848C052FAD0
:1022800081F21823B2FBF3F340F2FF3E21EA0E0184
:102290005F2A03F007031CF80330C36588BF0431CD
:1022A000BDE88040816508467047BD4A9142E1D053
:1022B000C54A9142DED0BB4A9142DBD021F0FF01FA
:1022C000F0E700BF183F01080268B8498A421F4979
:1022D0001CBFB74B9A4205D0B64B9A421CBFB64BB7
:1022E0009A4213D1D3B2A3F108021423B2FBF3F341
:1022F00001F1800201EB830103F01F0301664FF03F
:10230000010C0CFA03F1C0E919217047AB4B9A425A
:10231000E8D0AC4B9A42E5D0A94B9A42E2D0A1F565
:102320005B7CD3B26245DED0A3F110011823B1FB70
:10233000F3F1084B03F1AA0C9A420B4688BF08330D
:10234000624528BF0B460249D2E700BF0058025839
:10235000000802400F04024001790139072988BFB3
:1023600070470268914B9A421CBF914B9A4205D02C
:10237000904B9A421CBF904B9A420BD18A000E4B55
:102380004FF0010C1A444033C2660CFA01F1C0E967
:102390001C317047894B9A42F0D08A4B9A42EDD05B
:1023A000874B9A42EAD0804B9A424FEA8102E6D0AC
:1023B000004BE5E7000902400059025810B5D0F87B
:1023C00000C06A4CA44564463BD0694CA4456446B1
:1023D00037D0684CA445644633D0674CA445644666
:1023E0002FD0664CA44564462BD0654CA44564466A
:1023F00027D0644CA445644623D0634CA44564466E
:102400001FD0624CA44564461BD0614CA445644671
:1024100017D0604CA445644613D05F4CA445644675
:102420000FD05E4CA44564460BD05D4CA445644679
:1024300007D05C4CA445644603D0634CA4450DD141
:10244000614C63608068402802D1CCF8082002E02B
:10245000CCF808101146CCF80C1010BDCCF80430A4
:10246000F0E700BF1000024028040240B0B5C46E7F
:10247000D0F858E0002CD0E919C5CCF8045002D0AF
:10248000D0E91C546C60D0F800C0384CA44529D069
:10249000374CA4451CBF374CA44523D0364CA4452B
:1024A0001CBF364CA4451DD0354CA4451CBF354C33
:1024B000A44517D0344CA4451CBF344CA44511D0BE
:1024C000334CA4451CBF334CA4450BD0324CA4451F
:1024D0001CBF324CA44505D0314CA4451CBF314C27
:1024E000A4451CD1C46D3F2504F01F04806805FA83
:1024F00004F4CEF80840DCF8005025F48025CCF830
:1025000000504028CCF8043004D1CCF80820CCF896
:102510000C10B0BDCCF80810CCF80C20B0BD224C8B
:10252000A4451CBF214CA4450BD0214CA4451CBF85
:10253000204CA44505D0204CA4451CBF1F4CA445ED
:1025400009D1C46D012504F01F04806805FA04F464
:10255000CEF80440D5E71A4CA445F2D0194CA44556
:10256000EFD0194CA445BDD0D8E700BF1000024001
:102570002800024040000240580002407000024023
:1025800088000240A0000240B8000240100402404F
:1025900028040240400402405804024070040240F3
:1025A00088040240A004024094540258085402587F
:1025B0001C5402583054025844540258585402587B
:1025C0006C54025880540258B804024070470022EC
:1025D000AFF3008080B5DFF848E09EF80930002BAB
:1025E00001D0012080BD9EF80930844600200EF8FD
:1025F00003009EF809300EEB8303C3F804C09EF875
:10260000093073441A729EF80920531C30328EF838
:1026100009300A7042F63A72A1F80120C87080BDF4
:102620006C97002010B5CB07364C10D0236823F4EC
:10263000E663236042EA0023D4F800C043EA0C03B7
:1026400043F004032360236843F080032360890779
:1026500014D5D4F8001142EA002021F4E661C4F850
:102660000011D4F80011084340F00400C4F8000140
:10267000D4F8000140F08000C4F8000110BD00BF94
:1026800001F00302032A1F4A16D1116821F030011C
:102690001160D2F8001121F03001C2F80011116868
:1026A00001431160D2F800110843C2F80001D0685C
:1026B00040F01000D0607047CB070CD0136823F0B7
:1026C000300313601368034343F008031360136877
:1026D00043F080031360890758BF7047D2F8001198
:1026E00021F03001C2F80011D2F80011084340F087
:1026F0000800C2F80001D2F8000140F08000C2F8E2
:10270000000170470C2000522DE9F8430C462F4E73
:10271000054601F083FC32462D4F80466E1C9146E3
:10272000012C08BF0427012C06D110683840C01BBB
:10273000B0FA80F0400903E0D2F80001C0F3800055
:1027400070B1002EEFD001F069FC002D01464FF072
:10275000030037D0A1EB0801A9424A46E3D931E092
:10276000012C03D110681B49084005E0D2F8000194
:102770001849084000F1004020F0004161B1164ABC
:10278000164C00EA04079369874243EA0003936109
:102790000BD1C9F804000AE0012C0AD11068C0036B
:1027A0000FD54FF4803050600BE0C9F804110120C0
:1027B00008E0D2F80001C00303D54FF48030C2F81E
:1027C0000401002001B0BDE8F08300BF10200052DA
:1027D000040000800000EE1770A600200F00EF1F1D
:1027E0002DE9F04F85B000265C4F072404960120A8
:1027F00000940190584800F500696D4682464846AD
:1028000029464FF00108CDE90266B84707210122A9
:10281000484601F0F7FB4FF4406000900220CDE9FC
:1028200001060320CDE903040AF580642046294609
:10283000B8474FF44050CDE900080AF540684046DB
:102840002946CDE90266B8474FF4805000902046F3
:102850002946B8474FF42040009002200190032001
:102860000296294603900520049020464FF0020B63
:10287000B8474FF4F850CDE9000B032002960390BF
:102880000C200490484629464FF0020BB84704201C
:10289000009040462946B8470120CDE90006404651
:1028A0002946B8477320CDE9000B0D20CDE902661B
:1028B00004900AF580502946B847502000905046B1
:1028C0002946B8474FF0C00B4846CDF800B029461E
:1028D000B8472046CDF800B02946B8474FF44070BD
:1028E0000090122001904FF001090320CDF80890CC
:1028F00003900420049020462946B8474FF4807086
:102900000090022450462946CDE90146CDE90366F0
:10291000B8474FF48060CDE9000950462946CDE91B
:102920000266B8478020009040462946B8474FF4D9
:102930000070CDE90006504602962946B8474FF48C
:10294000C0508DE851000A20039604905046294655
:10295000B84705B0BDE8F08F000002586D3E000892
:1029600010B5044600F09DF800210020E16484F8D1
:10297000351084F8341010BD70477047B0B5044668
:102980000068056969070CD504214161E06C40F0DD
:102990000200E06484F83510A06C7649016500F00F
:1029A0006BFBA8070ED521680222A06C4A61E16C7E
:1029B00041F00101E164042184F835106D4901659D
:1029C00000F05AFBE80605D5206810214161204639
:1029D00000F066F8280705D52068082141612046E7
:1029E00000F0CAF8E80700D1B0BD20680168890787
:1029F00003D5C16821F01E01C160C16821F0010149
:102A0000C160012141612046BDE8B040FFF7B5BF7C
:102A1000002840D0B0B5044690F8350010B92046E3
:102A200000F040F802201D4D84F8350094E80310B2
:102A3000E3681029026802EA05020260626942EA5C
:102A4000010242EA0302236942EA0302A36942EA5D
:102A50000C0242EA0302D4E9083542EA0302A36AFF
:102A600042EA0502E56A42EA0302236B42EA0502F2
:102A700042EA0302036842EA0302026001D1E1690B
:102A80008161C16841F01E01C16000200121E06444
:102A900084F83510B0BD0120704700BF07F0E0FF9B
:102AA00070477047704700007CB5044690F83400CA
:102AB00001284FF0020058D04FF0010E84F834E0A6
:102AC000002684F83500B6EB134FD4F800C0A06C94
:102AD000DCF8005045F48045CCF80050DCF800509C
:102AE00025F00205CCF80050DCF8005041EA050161
:102AF000204DCCF800101E49C163C0E91356A663EF
:102B0000266404D10CF1280100F092FF1DE041641D
:102B1000C4F838E0E363626405E0E16B4908E1630F
:102B2000A16B4900A163E16BB1F5803FF5D2A16BC8
:102B30000239A163A16B2164E16B02EB8103E66BB7
:102B40000CF12801009600F05BF828B14020E06409
:102B5000012084F8350005E02068016841F001019A
:102B600001600020002184F8341002B070BD00BF65
:102B70007D20000861200008704700000368B64807
:102B800083421CBFB54883421DD0B54883421CBF59
:102B9000B448834217D0B44883421CBFB348834231
:102BA00011D0B34883421CBFB24883420BD0B24815
:102BB00083421CBFB148834205D0B14883421CBF49
:102BC000B048834209D112B14FF0100C01E04FF030
:102BD0000C0C002043F80C107047AB488342F2D035
:102BE000AB488342EFD0A9488342ECD0A948834246
:102BF000E9D04FF0100C002A08BF4FF00C0CE8E7AA
:102C00002DE9F84304468068802802D14FF4807093
:102C1000EAE094F83400012801D10220E6E0012026
:102C200084F8340094F83500012840F0DB8002205D
:102C3000894FDDF820C084F83500002060654FF032
:102C40003F0E20684FF00808B8424FF4802924D086
:102C5000FA4DA8421CBFFA4DA8421ED0F94DA84219
:102C60001CBFF94DA84218D0F84DA8421CBFF84D22
:102C7000A84212D0F74DA8421CBFF74DA8420CD075
:102C8000F64DA8421CBFF64DA84206D0F54DA8420D
:102C90001CBFF54DA84240F0BA8005462E6846EAB2
:102CA00009062E600361E06D00F01F00A36D0EFAAF
:102CB00000F043F8080020466346FFF77FFBE16E13
:102CC000D4E919020029426002D0D4E91C02426012
:102CD0002068B84202463BD0D84A9042024637D0DC
:102CE000D74A9042024633D0D64A904202462FD06D
:102CF000D54A904202462BD0D44A9042024627D071
:102D0000D34A9042024623D0D24A904202461FD074
:102D1000D14A904202461BD0D04A9042024617D078
:102D2000CF4A9042024613D0CE4A904202460FD07C
:102D3000CD4A904202460BD0CC4A9042024607D080
:102D4000CB4A9042024603D0CA4A904251D1C94A66
:102D500012680B2363F344020260426942F080026E
:102D60004261226C0AB9A26C1AB1026842F00802F0
:102D70000260226E1368DB0303D5136843F480738B
:102D8000136019B10A6842F480720A60B84223D015
:102D9000AA4988421CBFAA4988421DD0A949884235
:102DA0001CBFA949884217D0A84988421CBFA8491E
:102DB000884211D0A74988421CBFA74988420BD03E
:102DC000A64988421CBFA649884205D0A549884229
:102DD0001CBFA54988422ED1016841F00101016064
:102DE000002003E04FF400606065012001B0BDE801
:102DF000F0830268052363F343020260226C12B978
:102E0000A26C002AB5D0026842F00402B0E7F84D87
:102E1000A8423FF442AFF84DA84205463FF43EAF0A
:102E2000F44DA84210D14FF03F0EF24D4FF008087C
:102E30004FF4802932E7EE498842CDD0ED498842EF
:102E4000CAD0ED498842C7E74FF0010E4FF00408A1
:102E500048F2200921E700BF10000240280002408C
:102E600040000240580002407000024088000240CA
:102E7000A0000240B80002401004024028040240B2
:102E8000400402405804024070040240880402409A
:102E9000A0040240B8040240F8B5044601F0BEF8B0
:102EA000002C6FD0054694F83500022865D12768BC
:102EB000C24EB74238463BD0C1488742384637D029
:102EC000C0488742384633D0BF48874238462FD063
:102ED000BE48874238462BD0BD488742384627D067
:102EE000BC488742384623D0BB48874238461FD06B
:102EF000BA48874238461BD0B9488742384617D06F
:102F0000B8488742384613D0B748874238460FD072
:102F1000B648874238460BD0B5488742384607D076
:102F2000B5488742384603D0B24887426DD1B14890
:102F3000016821F01E0207F1140102606FF08000A9
:102F40000A6810400860206E016821F480710160F9
:102F5000386820F0010038603868C00715D001F0EB
:102F60005DF8401B0628F7D320206065002084F818
:102F70003400032084F8350004E0802060650020E0
:102F800084F83400012001B0F0BD2068B0421CBFBD
:102F90008B4988421DD08B4988421CBF8A49884290
:102FA00017D08A4988421CBF8949884211D0894973
:102FB00088421CBF884988420BD0884988421CBF80
:102FC0008749884205D0874988421CBF8649884284
:102FD0001FD1A06DE16D3F2201F01F0102FA01F146
:102FE0008160E06ED4E9191200284A6006D00168B9
:102FF00021F480710160D4E91C01416000200121AD
:1030000084F8340084F83510BDE76FF00E003946BF
:1030100096E776498842DCD077498842D9D074490E
:103020008842D6D073498842A06DD3D0E16D012289
:1030300001F01F0102FA01F14160D2E728000240CD
:1030400040000240580002407000024088000240E8
:10305000A0000240B80002401004024028040240D0
:1030600040040240580402407004024088040240B8
:10307000A0040240B804024010B5002841D090F8E6
:10308000351002293BD101684C4A914223D04C4B68
:1030900099421CBF4B4B99421DD04B4B99421CBFD0
:1030A0004A4B994217D04A4B99421CBF494B99420F
:1030B00011D0494B99421CBF484B99420BD0484B09
:1030C00099421CBF474B994205D0474B99421CBFC0
:1030D000464B99423CD10423914280F835301CBFC5
:1030E0003748814205D0374881421CBF364881426B
:1030F0000AD1086820F001000860002102E0802168
:1031000041650121084610BD30488142F1D0304868
:103110008142EED02F488142EBD02F4881421CBF24
:103120002E488142E5D02E4881421CBF2D48814265
:10313000DFD02D4881421CBF2C488142D9D02C4879
:103140008142D6D02B488142D3D02B488142D0E750
:10315000274B9942BFD0274B9942BCD0264B99426E
:10316000B9D00A6822F00E020A600A6822F0010251
:103170000A60D0E916C2D0E9183E196802F01F04AF
:1031800021F480710122196002FA04F1CCF80410D4
:10319000816ECEF80410C16E31B10B6823F48073D8
:1031A0000B60D0E91C134B60002180F8341080F8CC
:1031B0003520026D002AA5D090479EE710000240FE
:1031C00028000240400002405800024070000240C7
:1031D00088000240A0000240B800024010040240F3
:1031E0002804024040040240580402407004024097
:1031F00088040240B8040240A0040240406D7047B9
:103200002DE9FC410021C54F01910446DFF8081566
:103210000068A56DB842D1F800802E6829682AD0D0
:10322000BF4A90421CBFBF4A904224D0BE4A90423F
:103230001CBFBE4A90421ED0BD4A90421CBFBD4A30
:10324000904218D0BC4A90421CBFBC4A904212D057
:10325000BB4A90421CBFBB4A90420CD0BA4A904233
:103260001CBFBA4A904206D0B94A90421CBFB94A24
:10327000904240F09F81E16D082201F01F018A40D9
:10328000324236D0BC46B8424FF0040324D0A44F9B
:10329000B8421CBFA34FB8421ED0A34FB8421CBFB8
:1032A000A24FB84218D0A24FB8421CBFA14FB8429B
:1032B00012D0A14FB8421CBFA04FB8420CD0A04FB3
:1032C000B8421CBF9F4FB84206D09F4FB8421CBFA8
:1032D0009E4FB84240F0968107681F42674608D06B
:1032E000036823F004030360AA60626D42F00102E8
:1032F000626501228A4032422ED0B84224D0884BE7
:1033000098421CBF874B98421ED0874B98421CBFE7
:10331000864B984218D0864B98421CBF854B9842EA
:1033200012D0854B98421CBF844B98420CD0844BE2
:1033300098421CBF834B984206D0834B98421CBFD7
:10334000824B984240F06B8143691B0604D5AA600A
:10335000626D42F00202626504228A4032422ED03F
:10336000B84224D06E4B98421CBF6E4B98421ED080
:103370006D4B98421CBF6D4B984218D06C4B9842D5
:103380001CBF6C4B984212D06B4B98421CBF6B4BCE
:1033900098420CD06A4B98421CBF6A4B984206D0A8
:1033A000694B98421CBF694B984240F046810368C4
:1033B0009B0704D5AA60626D42F004026265102288
:1033C00002FA01F131423FD0B8424FF0080224D056
:1033D000D24B98421CBFD24B98421ED0D14B984240
:1033E0001CBFD14B984218D0D04B98421CBFD04B39
:1033F000984212D0CF4B98421CBFCF4B98420CD072
:10340000CE4B98421CBFCE4B984206D0CD4B984233
:103410001CBFCD4B984240F01E810368134213D06D
:10342000A96001684903016806D4C90506D401688A
:1034300021F00801016001E0080301D4216C00E0E3
:10344000A16C09B120468847E06D00F01F012020E3
:1034500000FA01F2324200F0838020681023B84263
:1034600024D0AE4EB0421CBFAD4EB0421ED0AD4EC9
:10347000B0421CBFAC4EB04218D0AC4EB0421CBFE4
:10348000AB4EB04212D0AB4EB0421CBFAA4EB042BF
:103490000CD0AA4EB0421CBFA94EB04206D0A94ED5
:1034A000B0421CBFA84EB04240F0E28007681F4205
:1034B00056D0AA6094F83520042A026819D122F067
:1034C00016020260426922F080024261226C0AB94F
:1034D000A26C1AB1026822F0080202603F20884004
:1034E000A860002084F83400012084F83500216DA4
:1034F0005BE0510301680CD4C9052DD4016821F0AB
:1035000010010160002084F83400012084F83500A7
:1035100022E0080320D4616C1FE000BF10000240CD
:103520002800024040000240580002407000024063
:1035300088000240A0000240B8000240100402408F
:103540002804024040040240580402407004024033
:1035500088040240A0040240E16B09B1204688477C
:10356000606D28B3606DC0071ED04FF41650B8FBD5
:10357000F0F1042084F835002068026822F001028E
:103580000260019A01328A42019202D80268D2078F
:10359000F7D1002184F834100068C0074FF0030011
:1035A00008BF012084F83500E16C09B12046884746
:1035B000BDE8FC81674A90421CBF674A90420CD02C
:1035C000664A90421CBF664A904206D0654A9042C5
:1035D0001CBF654A904240F092800268E36D570735
:1035E00003F01F0351D504279F4017EA01064CD072
:1035F00011046F6060D4910662D4016821F0040167
:1036000001605DE0514FB8423FF466AE504FB842A2
:103610003FF462AE554FB84218BF08235CE6F84B42
:1036200098423FF491AEF74B98423FF48DAE4F4B2A
:1036300098423FF489AE02688EE6F14B98423FF41F
:10364000B6AEF04B98423FF4B2AEF74B98423FF41F
:10365000AEAE0268B3E6EA4B98423FF4DEAEE94B09
:1036600098423FF4DAAEF04B984218BF0422D4E6F9
:10367000E34EB0423FF41AAFE24EB0423FF416AF11
:10368000E94EB04218BF022310E797071AD5022768
:103690009F4017EA010615D011046F6029D49106E6
:1036A0002BD4016821F00A010160002084F8340065
:1036B000012084F8350020E0D00301D4A16C74E728
:1036C000216C72E712077FF573AF08229A40114010
:1036D0003FF46EAF0168012221F00E01016002FA91
:1036E00003F068600020626584F8340084F83520B7
:1036F0005AE7D00301D4616C57E7E16B55E7C84A3C
:1037000090423FF46AAFC74A90423FF466AFC64961
:1037100088423FF4B0AD4BE7100000202800024083
:103720004000024058000240700002408800024001
:10373000A0000240B80002401004024028040240E9
:1037400040040240580402407004024088040240D1
:10375000A004024094540258085402581C540258C1
:10376000305402584454025858540258B804024085
:10377000B0B5044600F052FC002C7CD00546206811
:10378000924988422AD0924988421CBF9149884276
:1037900024D0914988421CBF904988421ED090494C
:1037A00088421CBF8F49884218D08F4988421CBF6D
:1037B0008E49884212D08E4988421CBF8D4988426A
:1037C0000CD08D4988421CBF8C49884206D08C4958
:1037D00088421CBF8B49884240F0A080002184F8B9
:1037E0003410022184F83510016821F001010160D4
:1037F00005E000F013FC401B052837D8206801685D
:10380000C907F6D10168894A1140D4E9022311435E
:103810002269194363691143A5691943E26941EAC1
:103820000503616A1A43236A042943EA020324D187
:10383000D4E90BC14CEA0302A36A11430160BCF155
:10384000000F50F8141F21F0030141EA030141F079
:10385000040118D0B5F5005F47D0002D51D1022BDF
:1038600052D0012B47D0002B4ED00CE020206065B9
:10387000032084F835000120B0BD036050F8142FF8
:1038800022F00702114301602046FEF7CBFCE16DF8
:103890003F2201F01F0102FA01F181602046FEF78C
:1038A00013FDA068802802D10020606000E06068FD
:1038B000C2B2216E0138D4E9193507280A605D606B
:1038C00009D82046FEF748FD04F16C0207CA002320
:1038D00003604A6003E00020C4E91B006067002029
:1038E0000121606584F83510B0BD032BCBD8DFE82B
:1038F00003F00F0B0F02ACF1C072B2FA82F2520960
:1039000004E0032B04D3BED1CCF30062002ABAD06A
:1039100040206065012084F83500B0BD3A498842F6
:103920001CBF3A4988420BD0394988421CBF3949EB
:10393000884205D0384988421CBF3849884239D16D
:10394000002184F83410022184F835100168A2683F
:103950006FF31011A2F18003B3FA83F35B09402ADD
:10396000E2684FEA833341EAD20108BF102322699B
:103970001943636941EAD201A26941EAD301E369CB
:1039800041EAD201226A41EAD30141EA121140F828
:1039900008191421C0B2B0FBF1F08000E0652046A8
:1039A000FEF740FCE16D012201F01F0102FA01F176
:1039B000416073E71A498842C2D01A498842BFD091
:1039C0008D4988423FF40AAF402050E71000024082
:1039D00028000240400002405800024070000240AF
:1039E00088000240A0000240B800024010040240DB
:1039F000280402404004024058040240700402407F
:103A000088040240A004024094540258085402580A
:103A10001C54025830540258445402585854025806
:103A20006C54025880540258B80402403F8010FE83
:103A300010B5002800F0AB80044690F8340001284F
:103A400001D1022010BD012084F8340094F8350023
:103A5000012840F09680022084F83500002060653F
:103A6000D4F800C0DCF8000020F00100CCF8000021
:103A70002046FEF7FBFC20685049884202463BD0B6
:103A80004F4A9042024637D04E4A9042024633D0C7
:103A90004D4A904202462FD04C4A904202462BD0CB
:103AA0004B4A9042024627D04A4A9042024623D0CF
:103AB000494A904202461FD0484A904202461BD0D3
:103AC000474A9042024617D0464A9042024613D0D7
:103AD000454A904202460FD0444A904202460BD0DB
:103AE000434A9042024607D0424A9042024603D0DF
:103AF000414A90424DD1404A12680B2363F344027D
:103B00000260226C1AB1026842F008020260226E62
:103B10001368DB0303D5136843F480731360E26E0C
:103B20001AB1136843F480731360884223D0244988
:103B300088421CBF234988421DD0234988421CBFAC
:103B40002249884217D0224988421CBF2149884215
:103B500011D0214988421CBF204988420BD02049FE
:103B600088421CBF1F49884205D01F4988421CBF9C
:103B70001E49884219D1016841F00101016000200D
:103B800010BD002084F834004FF40060606501200F
:103B900010BD0268052363F343020260226C002A11
:103BA000B5D0026842F00402B0E711498842E2D081
:103BB00011498842DFD00F498842DCE710000240FB
:103BC00028000240400002405800024070000240BD
:103BD00088000240A0000240B800024010040240E9
:103BE000280402404004024058040240700402408D
:103BF00088040240A0040240B8040240B0B5044664
:103C000000F00CFA054905460978621C18BF0C44FF
:103C100000F004FA401BA042FAD3B0BD0800002017
:103C20002DE9F047DFF8F49199F81420012A01D129
:103C300002251BE004460120002589F81400C9F87C
:103C4000185088466068C10709D04CF250300121F5
:103C5000FEF75AFD0546002818BF01256068800759
:103C600007D46DB10125002089F814002846BDE86D
:103C7000F0874CF250300221FEF746FD2843F1D187
:103C80002068674E012808D161682069FEF7F8FCBA
:103C90006068C10736D1002542E04FF0FF30C8F818
:103CA000000040F2047AA068074625E061683846C3
:103CB0002269FEF7B7FC6068C10701D100250AE060
:103CC0004CF250300121FEF71FFD3168054621EA14
:103CD0000A013160606880070BD54CF25030022138
:103CE000FEF712FDD6F80011054621EA0A01C6F8D2
:103CF000001135BB0137A068E16808448742D5D37D
:103D00000025B0E74CF2503001210127FEF7FCFC02
:103D10003168002821F00801316018BF3D46606815
:103D20008007A0D54CF250300221FEF7EDFC0028B0
:103D300018BF0125D6F8000120F00800C6F80001E0
:103D400091E7C8F800708EE73548016841F001013D
:103D500001600168C90701D101207047D0F8001146
:103D600041F00101C0F800110121D0F8000121EA61
:103D7000000070472DE9F84FDFF8A090022499F871
:103D8000140001284FF0020044D00F466FF31307D0
:103D900001200E46B7F1006F08BF012489F8140016
:103DA0004FF000084CF25030C9F8188021461546F3
:103DB000FEF7AAFC60BB1A4800F5807A834650469D
:103DC000B7F1006F04BF42F20C00C5F20020016899
:103DD00041F0020101600820BFF36F8FBFF34F8FE6
:103DE00002CD013802C60106FAD1BFF36F8FBFF3CF
:103DF0004F8F4CF250302146FEF786FCB7F1006F32
:103E000008BFDA46DAF8001021F00201CAF8001003
:103E100089F8148001B0BDE8F08F00BF70A60020C3
:103E20000C2000520E488168C90706D00D49016078
:103E30000D4901608168C9070FD1D0F80811C90781
:103E400009D00849C0F800110749C0F80011D0F89E
:103E50000801C00701D1002070470120704700BF52
:103E60000420005223016745AB89EFCD2DE9FC4FBB
:103E70005B4A0A275B4C02444FEAB223A04208BFC8
:103E800009274FF0000A4FF0010B4FF00009002402
:103E9000092B38BF4FEAB227009795E00BFA04F2DE
:103EA00015EA020C00F08B80D1F804E04EF0100609
:103EB000122E11D16FF0030303EA5406064409F0F1
:103EC0001C07336A0F25BD40AB430D6905FA07F7A0
:103ED0003B433362D1F804E00325036805FA0AF591
:103EE0000EF00306AB4306FA0AF63343BEF1120F97
:103EF00003606FEA050815D80BFA0EF313F0061FDE
:103F000010D08368CD6803EA080305FA0AF52B434D
:103F100083604368CEF3001523EA020205FA04F336
:103F20001A434260C2688B6802EA080203FA0AF385
:103F30001A435FEACE03C26041D5274A13462A4D91
:103F400012680F2642F002021A604FF0B04E1A6853
:103F500002F00202019224F00302019B09F00C031B
:103F600057599E40B743009E06FA03F33B43535113
:103F70001A4A1546D26F4B6842EA0C07DE0358BF57
:103F800022EA0C07EF679E03D5F8802042EA0C076F
:103F900058BF22EA0C07C5F88070DEF80020DE0268
:103FA00042EA0C0758BF22EA0C07CEF800702A68D4
:103FB0009B0242EA0C0758BF22EA0C072F6001342B
:103FC00009F104090AF1020A0D6835FA04F27FF4D6
:103FD00065AFBDE8FC8F00BFF444025804000058F0
:103FE0000000FEA700240258080400580069084099
:103FF00018BF0120704742690A408A4208BF09047D
:1040000081617047002A08BF090481617047000080
:1040100001480068000C70470010005C014800680F
:10402000704700BF1CA8002090F84120202A03D12F
:1040300090F84020012A01D1022118E0242280F8C2
:1040400041200268136823F001031360136823F40E
:1040500080531360136819431160116841F0010126
:104060001160202180F84110002180F8401008469E
:10407000704790F84120202A03D190F84020012A6F
:1040800001D1022117E0242280F841200268136840
:1040900023F001031360136823F4706343EA0121E2
:1040A0001160116841F001011160202180F8411078
:1040B000002180F8401008467047000008B310B592
:1040C000044690F8410028B9002084F840002046BA
:1040D00000F0FAF9242084F8410094E80910E2681D
:1040E000012A016821F00101016023F07061016182
:1040F000816821F40041816005D14CF40041816068
:1041000009E0012070474CF40441022A816002D189
:104110004FF40061416041680F4A04F110031143FC
:104120004160C16821F40041C1600ECB1143E269D6
:1041300041EA0321C160216A11430160016841F035
:104140000101016000202021606484F84110206397
:1041500084F8420010BD00BF008000022DE9FE4F30
:1041600000270297044690F84100202808D12068D3
:1041700089468169090403D494F84010012903D1C8
:10418000022003B0BDE8F08F1D466FF39F299046D3
:104190000121242284F84010002384F841206F1C60
:1041A00063644FF0200AE16801294FF4205104BFF5
:1041B00042F20001C0F2002149444160FFF72EFFA6
:1041C0000646206881698269120942EA5111C907CD
:1041D00008D1002FF5D0FFF721FF6DB3801BA84257
:1041E000EFD929E0D0F818B020210022009620460F
:1041F0002B4603F0C1FC5FEACB6129D530BB2068B8
:104200001021C161C0F81CA0029941450ED141683E
:10421000002241F4804141602021204600962B4637
:1042200003F0AAFC90B92068C0F81CA002990131E3
:10423000029102994145B6D3202084F84100606C78
:1042400040F020006064002084F84000012098E7DE
:104250000028FBD120682021C161002084F8411092
:1042600084F840008DE700002DE9F843044690F8FB
:104270004100202803D194F84000012804D10227EE
:10428000384601B0BDE8F08301271D4684F8407030
:1042900016468846FFF7C2FE814600904FF4004163
:1042A00001221923204603F067FC0028E8D12220D0
:1042B00084F84100102084F84200002060646662A7
:1042C00065856063608DB0F5807F324805D3FF213E
:1042D0002185FF224FF0807304E0618D4FF0007361
:1042E000CAB2218500902046414603F02DFC0025EE
:1042F000089FFF2633E0204639464A4603F06CFC0F
:10430000B0BB2068616A406A0870218D606A013024
:104310000139606221850904608DA0F1010060858A
:10432000608D1CD1D8B18021CDF8009000222046AC
:104330003B4603F021FCD8B9608DB0F5807F04D3F3
:10434000FF2226854FF0807304E0608D4FF00073EC
:104350002085C2B220460095414603F0F5FB608DF2
:104360000028C8D1204639464A4603F06FFC08B100
:10437000012785E720682021C161524B0027426850
:104380001A40426084F8411084F8427084F840700A
:1043900076E700BF002400802DE9F843044690F83A
:1043A0004100202803D194F84000012804D10227BD
:1043B000384601B0BDE8F08301271D4684F84070FF
:1043C00016468846FFF72AFE814600904FF40041CA
:1043D00001221923204603F0CFFB0028E8D1212039
:1043E00084F84100102084F8420000206064666276
:1043F00065856063608DB0F5807F314805D3FF210E
:104400002185FF224FF0807304E0618D4FF000732F
:10441000CAB2218500902046414603F095FB002555
:10442000089FFF2631E0204639464A4603F032FC19
:10443000A0BB606A10F8011B226891626062608D07
:1044400001386085208D411E21850904608D1CD1B5
:10445000D8B18021CDF80090002220463B4603F0E1
:104460008BFBD8B9608DB0F5807F04D3FF22268501
:104470004FF0807304E0608D4FF000732085C2B26E
:1044800020460095414603F05FFB608D0028CAD1AD
:10449000204639464A4603F0D9FB08B1012787E791
:1044A00020682021C161074B002742681A40426002
:1044B00084F8411084F8427084F8407078E700BFB7
:1044C0000020008000E800FE7047000029480078C6
:1044D00002490A6810440860704700BF1CA8002009
:1044E00080B5032000F08CF801F02CFD0E490A681D
:1044F000C2F303220D4B9A5C02F01F02D0401E4A09
:104500001060096801F00F01595C01F01F01C840FB
:1045100007490860002000F00DF808B1012080BDB7
:1045200000F02CF8002080BD184402580C38010817
:104530001400002070B50F4E3178C1B104464FF41D
:104540007A70B0FBF1F00C490968B1FBF0F003F0B0
:10455000CDF80F2C4FF001050AD848B94FF0FF30C5
:1045600000222146002500F02BF8746000E00125B0
:10457000284670BD08000020100000207047000091
:1045800000280CDB00F01F01012202FA01F1044AAD
:10459000400942F82010BFF34F8FBFF36F8F704771
:1045A00080E100E0002808DB00F01F01012202FA90
:1045B00001F1024A400942F82010704700E100E092
:1045C00080B5154B1B68C3F3022C8CF0070EBEF1AF
:1045D000040F28BF4FF0040EBCF103034FF0FF3C63
:1045E00038BF00230CFA0EFE21EA0E0199400CFAA6
:1045F00003F39A431143BDE8804007F079BF00BF41
:1046000005490A684FF6FF031A4060F30A2203487F
:1046100010430860704700BF0CED00E00000FA0591
:1046200001220168C0F8FC23002280F8F423054A27
:10463000886940F000608861486D024300204A6547
:10464000704700BF030000107047026800205162ED
:104650007047D0F800C00029DCF824001BD080B5DA
:10466000DCF82830A1F1010E00EB1343002006E036
:104670000CEB8101D1F80411013003EB1143C1B2FD
:104680008E45F5D843EA02400CEB8E01C1F80401D7
:10469000BDE8804003E040EA0240CCF8280000205A
:1046A0007047D0F8040406F00CB9C1EBC102D0F891
:1046B000043400EB8200826C184606F07DB8C1EB32
:1046C000C102D0F8043400EB8200D0F8082218466A
:1046D00006F0C4B8D0F8040406F0F5B810B50446E6
:1046E00001F00F000A06C0EBC00104EB810205D403
:1046F000002302F5FE7182F8FD3104E0012302F18E
:104700003C0182F83D3094F8BC230870012A01D1A5
:10471000022010BD012084F8BC03206806F088FC4C
:10472000002084F8BC0310BDB0B5044601F00F00B2
:104730006268904201D9012525E0090609D4C0EB41
:10474000C00104EB8102002302F5FE7182F8FD3105
:1047500008E0C0EBC00104EB8102012302F13C013F
:1047600082F83D3094F8BC2300258D70012A087032
:1047700001D1022507E0012084F8BC03206806F07F
:104780002BFE84F8BC532846B0BD01F00F01C1EBED
:10479000C10100EB8100D0F814027047B0B50546A6
:1047A00001F00F000C06C0EBC00105EB810C06D434
:1047B0004FF0000E0CF5FE718CF8FDE105E04FF0B6
:1047C000010E0CF13C018CF83DE04C780870002C97
:1047D0008A60CB7018BFC880022B04BF002008710C
:1047E00095F8BC03012801D10220B0BD012085F855
:1047F000BC03286806F030FB002085F8BC03B0BD80
:1048000080B501F00F0CCCEBCC0100EB810E002148
:10481000CEF80822CEE9843103698EF8FD11012B10
:104820000EF5FE718EF8FCC101D1CEF80C22DAB281
:104830000068BCF1000F02D006F006FE01E006F0B1
:1048400025FD002080BDB0B50446406801F00F058D
:10485000854201D90120B0BD080609D4C1EBC100D1
:1048600004EB8000002200F5FE7180F8FD2108E0D5
:10487000C5EBC50004EB8000012200F13C0180F88B
:104880003D2094F8BC2301208870012A0D7001D1CD
:104890000220B0BD84F8BC03206806F0B6FD2DB937
:1048A000217C04F57172206806F06AFD002084F80E
:1048B000BC03B0BD10B501F00F0CCCEBCC0100EB8C
:1048C000810E714601F83CCF0024C1E9053403692B
:1048D0000124012BCA604C7001D1CEF84C20DAB211
:1048E0000068BCF1000F02D006F0AEFD01E006F05A
:1048F000CDFC002010BD00002DE9F04F87B0066808
:104900008246304606F092FE10B107B0BDE8F08F47
:10491000DAF8000006F0B6FE0028F6D0DAF800005B
:1049200006F0B0FE8007DAF8000003D5416901F017
:104930000201416106F0A6FE0003059602D44FF085
:10494000000BDCE0DAF8000006F07BFE0AF571717E
:104950000AF5057406914FF0000B4FF430680746D6
:10496000C9E0F80700F0C1805FFA8BF5DAF80000C3
:10497000294606F07FFE0646C00765D0059801214E
:1049800040448160DAF8000008EB0009016CD9F8B6
:104990000800DAF81020012A29D1020738D482064B
:1049A0004FD410F0280F4FD1DC4A0132914202D38C
:1049B00010F4004042D1D9F810006FF3DF4054E901
:1049C0000412081A2060501844F80C0C504629466E
:1049D000FFF775FEBBF1000F36D1DAF8100298BB75
:1049E000DAF800000121069A06F0CAFC2CE0CB4A56
:1049F00002F58072914206D101041FD4800602D5CF
:104A00002020C9F8080050462946FFF758FE1BE051
:104A1000C24A0132914206D310F400401CBF4FF449
:104A20000040C9F80800504600F078FBDAF80000B2
:104A30000121069A06F0A4FC082003E04FF4004090
:104A400000E02020C9F80800300731D5DAF800006E
:104A5000056C40448168DAF81020012A06D1AF4A7B
:104A6000954209D8504600F059FB1DE0AB4A9146EB
:104A700002F58072954208D1090402D54FF4004135
:104A80008160504600F04AFB04E0504600F046FBCF
:104A90004D4509D9DAF81000012805D1DAF80000EF
:104AA0000121069A06F06CFC0598082140448160BB
:104AB000F00603D50598102140448160B0060DD55D
:104AC000DAF81000012805D1DAF800000121069A71
:104AD00006F056FC0598202140448160B00404D5BE
:104AE00005984FF40051404481600BF1010B7F08A1
:104AF00008F120081C34002F7FF433AF059EDAF84C
:104B0000000006F0BFFD400340F1BF80DAF800006E
:104B100006F090FD06F510670AF5717102974FF0E7
:104B2000000B01910246ADE0D00700F0A8805FFACB
:104B30008BF1DAF800000492069106F089FD054633
:104B4000C0072DD00BF00F00D6F83418012202FA5E
:104B500000F021EA0000C6F8340807EB4B10826031
:104B6000DAF81000012807D1CBEBCB000AEB80006C
:104B7000D0E911121144816450460699FFF795FD62
:104B8000BBF1000F0CD1DAF81000012808D1DAF8D7
:104B9000500028B9DAF800000121019A06F0F0FB74
:104BA000280703D507EB4B1008218160E806049A1B
:104BB00003D507EB4B1010218160680603D507EB86
:104BC0004B1040218160A80703D507EB4B10022151
:104BD0008160280653D5CBEBCB000AEB8009C84691
:104BE00058F8501F444654F8040F814247D35B469F
:104BF00059F8442FA1EB000BDAF80050934588BF19
:104C0000934605EB43120393564602F5106A09F1E9
:104C1000040718E0A1EB000BD9F80000327C8345B3
:104C200088BF83461FFA8BF3396828460092069A9C
:104C300006F0DCFD386858442168386001EB0B0051
:104C40002060D8F80010DAF818200BF1030392B2B4
:104C5000B2EB930F28BF8142DCD88142B246DDE936
:104C6000027BDDE904260AD80BF00F00012101FACE
:104C700000F0D5F8341821EA0000C5F834080BF12B
:104C8000010B5208002A7FF44FAFDAF8000006F05B
:104C9000F9FC002802DBDAF800001AE0D6F8040874
:104CA00020F00100C6F804089AF8F403012807D19F
:104CB00000208AF8F40300215046FFF7C5FC02E00B
:104CC000504600F00FFADAF80000416901F00041A7
:104CD000416106F0D7FC000502D4DAF800000CE0D0
:104CE000D6F80808C00702D0504600F03DFADAF8BE
:104CF0000000416901F40061416106F0C3FC00015C
:104D00001AD5DAF80000416901F0006141619AF8B2
:104D1000F41329B1504600F027FA0DE00A30544F41
:104D200001218AF8F4130121406DC0F38300CAF811
:104D3000F8035046FFF788FCDAF8000006F0A2FC02
:104D4000C00402D4DAF8000051E0D6F804081021BB
:104D500020F00100C6F8040806F50064DAF8000047
:104D600006F044FC06F51060DAF804104FF67F32C6
:104D70000EE082600139036823F400130360C0F879
:104D80000822D0F8003223F40013C0F8003220309B
:104D90000029EED1E06940F00110E061DAF830005E
:104DA00040B1D4F8840040F00B00C4F8840004F152
:104DB000440006E0606942F22B010843606104F19F
:104DC000100001680AF5717241F00B010160206862
:104DD00020F4FE6020609AF81010DAF8000006F067
:104DE000CFFADAF80000416901F48051416106F020
:104DF00049FC8004DAF800001AD506F06FF8DAF8FA
:104E0000000006F005FCCAF80C00DAF8005001F0CA
:104E100065F89AF80C200146284606F06DFC5046CD
:104E200000F046F9DAF80000416901F400514161EF
:104E300006F028FCC006DAF800003ED5816921F0B2
:104E400010018161356AC5F3434005F00F0406285F
:104E50001CD002282BD147F6F070054027D0C4EBB8
:104E6000C4000AEB8004D4F808122A09304606F080
:104E70000DFCD4F80802D4F8141200EB1510C4F895
:104E8000080201EB1510C4F8140210E00AF5717164
:104E90000822304606F0FAFBC4EBC401C5F30A1041
:104EA0000AEB8101D1F814221044C1F81402DAF897
:104EB0000000816941F01001816106F0E3FB000709
:104EC00002D4DAF8000008E0504600F00FF9DAF8F2
:104ED0000000416901F00801416106F0D3FBC00206
:104EE00002D4DAF800000AE05FFA8BF1504600F0D5
:104EF0003BF8DAF80000416901F48011416106F0E5
:104F0000C1FB800202D4DAF800000AE05FFA8BF1FC
:104F1000504600F02DF8DAF80000416901F4001164
:104F2000416106F0AFFB400002D4DAF8000008E06F
:104F30005046FFF7B6FBDAF80000416901F0804106
:104F4000416106F09FFB40077FF5DFACDAF8000017
:104F50004468610704D55046FFF7BCFBDAF800004F
:104F6000416821434160D0E4D0F8040405F004BD59
:104F7000D0F8040405F002BD2DE9F04F8BB00028F5
:104F800000F080800446056890F8BD0328B9002031
:104F900084F8BC03204600F08AF8032084F8BD039F
:104FA000E86BC00501D400202061206806F066F996
:104FB000206804F1040E0A9004F11C0A9EE80E58C1
:104FC0009AE8C007D4E90C50CDE9085003A88DE851
:104FD000005880E8C0070A9805F09CFF00284ED1D1
:104FE00020680021002506F05FFB01206168002297
:104FF0000FE0C3EBC30704EB870787F83D0087F892
:105000003C200132A7F8423087F83F50C7E91155DC
:105010003D65D3B29942ECD8002000220EE0C3EBEC
:10502000C30304EB830383F8FD0183F8FC21013201
:1050300083F8FF01C3E98100C3F81002D3B299429B
:10504000EDD8A06804F1140E0A9004F1240A226835
:10505000D4E903379EE840589AE80007D4E90C5099
:10506000CDE9085002A8CDE9007680E8005805A8EF
:1050700080E8000710460A9A06F030F830B10220A6
:1050800084F8BD0301200BB0BDE8F08F002084F848
:105090003800012084F8BD03606A012802D120464F
:1050A000FFF7BEFA206806F00DF80020EBE7704726
:1050B00010B50446C06838B1022803D00848D3218F
:1050C00006F058FC012100E00021D4F8040405F0AA
:1050D000A1FCD4F80404BDE8104005F066BC00BF94
:1050E00059760108D0F8040405F07FBCD0F8040418
:1050F00005F082BC10B5044690F8BC03012801D12C
:10510000022010BD012084F8BC0384F83810206808
:1051100006F0E1FA002084F8BC0310BDD0F80424A6
:1051200000F57171104605F082BC10B5044690F888
:10513000BC03012801D1022010BDA26A0121206810
:10514000012A84F8BC1306D1A169012903D0816B1F
:1051500041F48031816305F0A9FF206806F02EFA42
:10516000002084F8BC0310BD10B50446D0F8040438
:1051700005F09CFC2068D0F8001E41F00101C0F849
:10518000001E206A20B10348016841F00601016059
:1051900010BD00BF10ED00E00248016841F08071D1
:1051A000016070470C48025880B500F0CBFE0649FC
:1051B0000F4A0968C1F30321515C01F01F01C84087
:1051C0000249086080BD00BF18440258100000204A
:1051D00080B500F083FE0549054A0968C1F3021154
:1051E000515C01F01F01C84080BD00BF204402583F
:1051F0000C38010810B53C4CA36AA26AC2F3053C06
:10520000E26AE16B02F01002C1F3CC01BCF1000FC5
:1052100002FB01F100EE101AB8EE400A0AD003F0CA
:105220000303022B0AD063B9216889060CD49FEDD1
:10523000311A13E00021C0E9001153E09FED2C1A50
:105240000CE09FED2A1A09E021682B4AC1F3C10145
:1052500022FA01F101EE101AB8EE411A02EE10CA5C
:105260009FED263AB8EE422AA16B6FF35F2181EEE3
:10527000021A02EE101AB8EE422AA16BC1F34621BF
:1052800000EE032AB7EE000A03EE101A32EE002AEF
:10529000B8EE433A21EE021A33EE002A81EE022ADA
:1052A000BCEEC22A80ED002AA16BC1F3064102EEDA
:1052B000101AB8EE422A32EE002A81EE022ABCEE23
:1052C000C22A80ED012AA16BC1F3066102EE101A19
:1052D000B8EE422A32EE000A81EE000ABCEEC00AA5
:1052E00010EE101A816010BD004402580024744A68
:1052F000001B374B0024744C0090D0030000003991
:1053000010B53C4CA36AA26AC2F3055CE26A616C08
:1053100002F48072C1F3CC01BCF1000F02FB01F179
:1053200000EE101AB8EE400A0AD003F00303022B75
:105330000AD063B9216889060CD49FED311A13E0B5
:105340000021C0E9001153E09FED2C1A0CE09FED05
:105350002A1A09E021682B4AC1F3C10122FA01F19E
:1053600001EE101AB8EE411A02EE10CA9FED263A6D
:10537000B8EE422A216C6FF35F2181EE021A02EE31
:10538000101AB8EE422A216CC1F3462100EE032A1E
:10539000B7EE000A03EE101A32EE002AB8EE433AD6
:1053A00021EE021A33EE002A81EE022ABCEEC22A56
:1053B00080ED002A216CC1F3064102EE101AB8EE0E
:1053C000422A32EE002A81EE022ABCEEC22A80ED89
:1053D000012A216CC1F3066102EE101AB8EE422ACE
:1053E00032EE000A81EE000ABCEEC00A10EE101A7E
:1053F000816010BD004402580024744A001B374BE2
:105400000024744C0090D003000000392DE9F047CF
:105410000446C078AC4F000721D5606E4FEA30518A
:10542000032908D8DFE801F002090E16F96941F4F2
:105430000031F9610EE0012612E0201D022102F088
:1054400055FD04E004F12400022102F0CFFD0646E0
:1054500030B9606E396C21F440110843386400267D
:105460006078BA46C00701D1354629E0606D04284E
:105470000BD83546DFE800F0030C11171700F86968
:10548000354640F40030F8610DE00125012718E0B1
:10549000201D002102F02AFD04E004F12400002177
:1054A00002F0A4FD0546002D2F460AD1DAF840008F
:1054B000002520F00700616D08435246CAF84000FD
:1054C0003746607880072CD5A06D4FEAB0100428CD
:1054D0000CD8DFE800F0030E13191900DAF81C00ED
:1054E000514640F40030CAF81C000DE001250126A9
:1054F00018E0201D002102F0F9FC04E004F1240072
:10550000002102F073FD0546002D2E460AD1DAF87F
:105510004000002520F4E070A16D08435246CAF80F
:1055200040003E466078400702D4B04657462BE024
:10553000D4F8A40057464FEA7050042809D8DFE891
:1055400000F0030C11171700F86940F40030F861FF
:105550000EE001254FF0010816E0201D002102F0A9
:10556000C5FC04E004F12400002102F03FFD0546E3
:10557000002DA84608D1B86C002520F46000D4F8AE
:10558000A4100843B046B864607800072BD5D4F85F
:10559000A8004FEA3060042809D8DFE800F0030BC8
:1055A00010161600F86940F40030F8610DE001258E
:1055B000012719E0201D002102F098FC04E004F10D
:1055C0002400002102F012FD0546002D2F460BD1CC
:1055D000DAF84800002520F0E060D4F8A81008436D
:1055E0005246CAF848004746E078800725D5A06CA7
:1055F0004FEA301003280BD8DFE800F012020D123A
:10560000DAF81C00514640F40030CAF81C0007E0EC
:105610000125012612E0201D022102F067FC05464B
:10562000002D2E460AD1DAF83C00002520F030008B
:10563000A16C08435246CAF83C003E466078C0065A
:105640002CD5E06D4FEA303004280CD8DFE800F0AC
:10565000030E13191900DAF81C00514640F400300B
:10566000CAF81C000DE00125012718E0201D0021CB
:1056700002F03CFC04E004F12400002102F0B6FC3E
:105680000546002D2F460AD1DAF84000002520F407
:10569000E040E16D08435246CAF840003746607862
:1056A000800626D5206E4FEA3040052809D8DFE86D
:1056B00000F013030D131313201D012102F016FC3B
:1056C00009E00125012615E01044025804F12400E8
:1056D000012102F08BFC0546002D2E460AD1DAF896
:1056E0004000002520F4E020216E08435246CAF80D
:1056F00040003E466078400626D5D4F8AC004FEA1C
:105700003070052809D8DFE800F011030B111111E2
:10571000201D012102F0EAFB07E00125012714E02A
:1057200004F12400012102F061FC0546002D2F4602
:105730000BD1DAF84800002520F0E040D4F8AC1096
:1057400008435246CAF8480037466078000621D51B
:10575000E06E90B1B0F1005F0AD0B0F1805F2DD162
:10576000DAF81C00514640F40030CAF81C0004E08E
:10577000201D012102F0BAFB0546002D2E460AD15C
:10578000DAF84000002520F04050E16E0843524610
:10579000CAF840003E46E078C00702D1B0465746FE
:1057A00023E0606C574603280BD8DFE800F01302B3
:1057B0000E13F86940F40030F8610BE00125012672
:1057C000E9E701254FF001080FE0201D022102F05A
:1057D0008DFB0546002DA84607D1F86B002520F06B
:1057E0000300616C0843B046F863A078400601D41A
:1057F000474617E0D7F8F00340F48070C7F8F0038D
:10580000FEF70CFC0646D7F8F003C00507D4FEF7F8
:1058100005FC801B6428F6D90325032702E0002D30
:105820002F4611D02078C0074FD0A06F4FEAF0006C
:10583000052834D8DFE800F03C03363C3C3C201D12
:10584000012102F053FB32E0DAF860105346D4F83D
:10585000B000414011F4407F0BD0196E1A6E21F454
:10586000407142F480321A661A6E22F480321A664F
:105870001966B0F5807F40F01882FEF7CFFB064630
:1058800041F2883903250327DAF86000800700F128
:105890000982FEF7C3FB801B4845F5D9C2E7012505
:1058A000012613E004F12400012102F09FFB0546CC
:1058B000002D2E460AD1DAF84400002520F03800E9
:1058C000A16F08435246CAF844003E46207880073C
:1058D00022D5606F052809D8DFE800F011030B110D
:1058E0001111201D012102F001FB07E00125012714
:1058F00013E004F12400012102F078FB0546002D9D
:105900002F460AD1DAF84400002520F00700616F25
:1059100008435246CAF8440037462078400724D549
:10592000D4F89000052809D8DFE800F011030B1126
:105930001111201D012102F0D9FA07E001250126ED
:1059400014E004F12400012102F050FB0546002D73
:105950002E460BD1DAF84800002520F00700D4F8D5
:10596000901008435246CAF848003E462078800608
:1059700026D5D4F88C004FEA3070052809D8DFE826
:1059800000F011030B111111201D002102F0AEFADD
:1059900007E00125012714E004F12400022102F0B0
:1059A00025FB0546002D2F460BD1DAF844000025D3
:1059B00020F0E040D4F88C1008435246CAF8440066
:1059C00037462078400626D5D4F898004FEAB02014
:1059D000052809D8DFE800F011030B111111201D73
:1059E000002102F083FA07E00125012614E004F10A
:1059F0002400022102F0FAFA0546002D2E460BD1B2
:105A0000DAF84800002520F4E050D4F89810084354
:105A10005246CAF848003E462078000626D5D4F8FB
:105A20009C004FEA7030052809D8DFE800F0110328
:105A30000B111111201D002102F058FA07E0012579
:105A4000012714E004F12400022102F0CFFA0546F8
:105A5000002D2F460BD1DAF84800002520F46040D5
:105A6000D4F89C1008435246CAF8480037462068CC
:105A7000010716D5D4F88010B1F5805F09D104F183
:105A80002400022102F0B2FA002818BF0127206882
:105A900007E0DAF84420534622F440521143CAF892
:105AA0004410C10616D5D4F89410B1F5807F09D101
:105AB00004F12400022102F099FA002818BF0127FE
:105AC000206807E0DAF84820534622F44072114378
:105AD000CAF84810000321D5D4F8A000B0F5003F63
:105AE0000ED0B0F5803F05D080BB201D002102F014
:105AF000FDF904E004F12400022102F077FA0546E2
:105B0000002D2E460BD1DAF84800002520F4403055
:105B1000D4F8A01008435246CAF848003E46A07880
:105B200040072AD5D4F88400B0F5401F17D0B0F54F
:105B3000001F0ED0B0F5801F40F0AF80DAF81C00D7
:105B4000514640F40030CAF81C0008E00125012647
:105B5000E5E704F12400012102F048FA0546002D92
:105B60002F460BD1DAF84400002520F44010D4F879
:105B7000841008435246CAF844003746A078C0074C
:105B800001D13E4621E0E06CB0F5803F08D0D0B9AD
:105B9000DAF81C00514640F40030CAF81C0004E05A
:105BA000201D022102F0A2F90546002D2E460CD13F
:105BB000DAF83C00002520F48030E16C08435246BE
:105BC000CAF83C00DDE7012501262068810008D5E0
:105BD00004F12400022102F009FA002818BF01266E
:105BE0002068810319D5E16F6FF0010202EB3122C9
:105BF000022A0AD34FEA31223AB1012A50D1DAF807
:105C00001C2042F40032CAF81C203DB9DAF84420C6
:105C100022F440721143CAF844103546C10207D538
:105C2000DAF8401021F00041226F1143CAF8401009
:105C3000C10008D5DAF8001021F48041D4F8B4206E
:105C40001143CAF80010810207D5DAF8401021F09C
:105C50008071A26E1143CAF8401041000CD5DAF8E9
:105C6000001021F40041CAF80010D4F8B810DAF896
:105C700000201143CAF80010B0F1FF3F07DCDAF84A
:105C80003C0020F04050216D0843CAF83C00002D34
:105C900018BF01252846BDE8F087012501276DE7DB
:105CA0000125BBE75346D4F8B00000F440711A68F0
:105CB000B1F5407F22F47C5103D1064A02EA10126A
:105CC000114319606FF31F30196E002508431866E1
:105CD0008EE500BFCFFFFF002DE9F843002800F05C
:105CE000F48004467B4D286800F00F008846884207
:105CF0000BD2286820F00F0040EA080028602868CE
:105D000000F00F00404540F0E0802068C44F41079C
:105D10000AD52169BA6902F07002914204D9BA69C0
:105D200022F070021143B96101070AD56169FA696D
:105D300002F07002914204D9FA6922F07002114314
:105D4000F961C1060AD5A169FA6902F4E0629142DB
:105D500004D9FA6922F4E0621143F96181060AD597
:105D6000E1693A6A02F07002914204D93A6A22F07B
:105D700070021143396210F002010AD0E268BB6977
:105D800003F00F039A4204D9BB6923F00F031A43AF
:105D9000BA61C20737D0B86920F47061D4E9010252
:105DA00011430328B96105D0022807D13968890356
:105DB0000CD48AE03968890108D486E00128396862
:105DC00002D1C90502D480E049077ED53969A946C8
:105DD00021F0070108433861FEF720F9064641F239
:105DE0008835386900F038006168B0EBC10F06D023
:105DF000FEF714F9801BA842F3D9032066E020685F
:105E00004D4600F0020151B1E168BA6902F00F029B
:105E1000914204D2BA6922F00F021143B961296894
:105E200001F00F0141450AD9296821F00F0141EA2B
:105E300008012960296801F00F01414545D141075A
:105E40000AD52169BA6902F07002914204D2BA6996
:105E500022F070021143B96101070AD56169FA693C
:105E600002F07002914204D2FA6922F070021143EA
:105E7000F961C1060AD5A169FA6902F4E0629142AA
:105E800004D2FA6922F4E0621143F96180060AD56E
:105E9000E069396A01F07001884204D2396A21F060
:105EA00070010843386200F04DF8B969C1F303216D
:105EB000234A515C084A01F01F0120FA01F1002039
:105EC0001160BDE8F843FEF735BB012001B0BDE825
:105ED000F08300BF002000521000002080B5FFF7C3
:105EE00063F90649164A096801F00F01515C01F097
:105EF0001F01C8400249086080BD00BF1844025815
:105F00001400002080B5FFF7E9FF0C490C4A09682E
:105F1000C1F30211515C01F01F01C84080BD00BFF8
:105F200080B5FFF7DBFF0549054A0968C1F3022187
:105F3000515C01F01F01C84080BD00BF1C440258E5
:105F40000C38010836490869C0F3C20003280CD098
:105F5000022828D048BB08688006374858BF7047D9
:105F60000968C1F3C101C84070478A6A886AC0F3F2
:105F7000051CCB6A486B03F00103C0F3CC00BCF1F5
:105F8000000F03FB00F000EE100AB8EE400A0ED03E
:105F900002F00302022A0CD072B9086880060ED4FF
:105FA0009FED241A15E0204870471E4870470020D6
:105FB00070479FED1F1A0CE09FED1C1A09E008685E
:105FC0001D4AC0F3C10022FA00F001EE100AB8EE3B
:105FD000411A02EE10CA9FED193AB8EE422A086B38
:105FE0006FF35F2081EE021A02EE100AB8EE422A29
:105FF000086BC0F3462000EE032AB7EE000A01301A
:1060000032EE000A21EE000A01EE100AB8EE411A43
:1060100080EE010ABCEEC00A10EE100A704700BF05
:106020000044025800093D00001BB7000024744AD8
:10603000001B374B0024744C0090D0030000003943
:1060400070B586B00028234E234814460D461FD055
:10605000D6F8D01000F5006041F00401C6F8D01069
:10606000D6F8D01001F00401019101994FF40071AC
:1060700001910221029103210491002103910591D4
:1060800001A9FDF7F3FE3068E40120F07E401BE03B
:10609000D6F8D01041F00101C6F8D010D6F8D010D3
:1060A00001F00101019101994FF4807101910221E8
:1060B00002910321049100210391059101A9FDF7AB
:1060C000D5FE306820F0FE7044EA050108433060D8
:1060D00006B070BD1044025800000258F8B5002800
:1060E00000F05B8104460078CF4EC0074AD030698B
:1060F00000F03801B06A102905D0182909D100F044
:106100000300022805D1306880033BD56068C8BB16
:1061100043E1606868B1B0F5803F06D0B0F5A02FCC
:1061200030681CD140F480203060306840F480300A
:106130001BE0306820F480303060306820F480202C
:106140003060FDF76BFF0546306880031AD5FDF718
:1061500065FF401B64284FF00300F5D932E120F4BD
:1061600080303060306820F480203060FDF756FFCA
:1061700005463068800305D4FDF750FF401B6428B6
:10618000F7D91EE1207880075BD5306910F038011F
:10619000B06A18D0182908BF5FEA807013D0E06891
:1061A0000028316836D021F0190108433060FDF72E
:1061B00035FF0546306840071FD4FDF72FFF401B11
:1061C0000228F7D9FDE030684007E06802D50028D2
:1061D00000F0E380316821F0190108433060FDF7D9
:1061E0001DFF05463068400707D4FDF717FF401B29
:1061F00002284FF00300F5D9E4E0FDF709FF41F272
:1062000003018842706816D820F47C30216940EA86
:10621000013015E021F001003060FDF7FFFE05467A
:10622000306840070DD5FDF7F9FE401B02284FF0FE
:106230000300F5D9C6E020F0FE40216940EA016084
:1062400070602078C0064ED5306900F03801B06A21
:10625000082905D018290AD100F00300012806D129
:106260003068C00518D5E069802815D095E0E06950
:106270000028306826D040F080003060FDF7CEFE68
:1062800005463068C00507D4FDF7C8FE401B02284C
:106290004FF00300F5D995E0FDF7BAFE41F2030196
:1062A000884207D8706820F0F840216A40EA81608F
:1062B000706018E0F06820F07C50216A40EA0160CC
:1062C000F06010E020F080003060FDF7A7FE05468A
:1062D0003068C00507D5FDF7A1FE401B02284FF02E
:1062E0000300F5D96EE02078000723D56069002807
:1062F000706F0ED040F001007067FDF78FFE05460D
:10630000706F800716D4FDF789FE401B0228F7D96D
:1063100057E020F001007067FDF780FE0546706FC2
:10632000800707D5FDF77AFE401B02284FF00300D7
:10633000F5D947E02078800623D5A0690028306889
:106340000ED040F480503060FDF768FE054630689E
:10635000800416D4FDF762FE401B0228F7D930E016
:1063600020F480503060FDF759FE05463068800407
:1063700007D5FDF753FE401B02284FF00300F5D967
:1063800020E0207840070AD4656A002D00F0C6801E
:10639000306900F03800182825D1012012E0D6F825
:1063A000000440F48070C6F80004FDF737FE05468F
:1063B000D6F80004C00507D4FDF730FE401B642862
:1063C000F6D9032001B0F0BDA06878B3012806D04B
:1063D0000528306F40F0A48040F004003067306F33
:1063E00040F00100A2E0306820F080703060FDF7DE
:1063F00015FE022D05460AD1306880012ED5FDF725
:106400000DFE401B02284FF00300F5D9DAE7306893
:10641000800140F18380FDF701FE401B03284FF00F
:106420000300F4D3CEE700BF00440258306F20F0E1
:1064300001003067306F20F004003067FDF7EEFD9B
:10644000054641F28837306F80079DD5FDF7E6FDA0
:10645000401BB8424FF00300F5D9B3E7B06A40F2F1
:10646000F3318843A16A226B0843511E626B4FF4DB
:106470007E4303EB4222E36A6FF35F2192B240EA6C
:106480000310B0625018A16B4FF4FE0202EB014101
:1064900001F4FE010844E16B4FF0FE4202EB0161A2
:1064A00001F0FE41084430634FF6F871F06A20F0C5
:1064B0000100F062706B8843A16C40EAC100706318
:1064C000F06A20F00C00216C0843F062F06A20F0C2
:1064D0000200616C0843F062F06A40F48030F062C0
:1064E000F06A40F40030F062F06A40F48020F0621C
:1064F000F06A40F00100F062306840F08070306077
:10650000FDF78CFD04463068800107D4FDF786FD59
:10651000001B02284FF00300F5D953E7002051E794
:1065200020F001003067306F20F004003067FDF785
:1065300075FD054641F28837306F80073FF524AF7F
:10654000FDF76CFD401BB8424FF00300F4D939E76A
:106550007FB5032280F830200446806B0E46032866
:106560000BD14FF08050616B08436063606B40B3A8
:10657000206899498163012056E08EB3B6F5004F3B
:10658000EFD0B6F5804F41D10020CDE90200206860
:10659000002102F0E1FA80013BD402A9204602F07A
:1065A0002BFB0028DFD19DF80E0040072BD5616C36
:1065B0002068090401F07EFF0028D4D12068022160
:1065C00041E06369D4E90112032B256925D8A06D48
:1065D000B0F5807F20D0B0F5007F1ED004231CE0F2
:1065E0000020CDE902002068002102F0B5FA800108
:1065F0000FD402A9204602F0FFFA0028B3D19DF87B
:106600000E00C00715D14FF08060ACE74FF000607E
:10661000A9E74FF40060A6E702232068CDE9005304
:10662000334602F09DFA0020012184F8301004B0B6
:1066300070BD616C2068090401F03CFF00287FF404
:1066400092AF2068002101F080FF8CE770470000C6
:1066500080B5D0F838C0D0E9173E9A0F0A70C3F35E
:106660008362BCF1010F4A70C3F301628A704FEA82
:106670001342CA704FEA13220A714FEA1E524B713D
:106680004FF00003CA80CEF303420A72CEF3C03249
:106690004A72CEF380328A72CEF34032CA72CEF39F
:1066A00000320A734B7337D0BCF1000F40F0878083
:1066B00040F6FC72436E02EA8E0242EA93720A616D
:1066C000426EC2F3C2630B75C2F302634B75C2F331
:1066D00042538B75C2F38243CB75C2F3C2330B7640
:1066E000D1F810C00B7E0CF1010C03F0070302334C
:1066F0000CFA03FCC0F848C00B7A03F00F0E01231C
:1067000003FA0EFE4FEA5E2303FB0CF3C0E913E32A
:106710004FF40073436512E0B0F866200EF03F03BB
:1067200042EA03420A614FF480630A6903EB822262
:106730004FF40073C0E91223C0E91423426EC2F380
:1067400080334B76C2F3C61302F07F028B76CA7693
:10675000806EC20F0A77C0F341724A77C0F382623B
:106760008A77C0F38352CA77C0F3405281F8202061
:10677000002281F82120C0F3004381F82230C0F3C9
:10678000C03381F82330C0F3803381F82430C0F364
:10679000403381F82530C0F3003381F82630C0F350
:1067A000812381F82730C0F30123C0B281F828305B
:1067B000400881F82900012081F82A0009E00168D9
:1067C000754A8A630122416B41F08051416380F830
:1067D0003020104680BD00BFFF0FE01F80B500F1E4
:1067E000380E9EE80C5081E80C50826C0A61C26C35
:1067F0004A61026D8A61426D0020CA6180BD10B598
:10680000416C04460068090401F0B2FF20B1616BDD
:1068100008436063002010BD2068002102F09CF94D
:10682000C0F3432010BD00002DE9F04196B088462A
:106830000446FDF7F3FB06462068002102F08CF9C0
:10684000800122D42068402101F065FED0B9616C3E
:106850002068090401F02EFEA0B94FF0FF3010901F
:10686000402011906020129002201390002014907C
:106870000120159010A9206802F078F8206801F036
:10688000E5FF80B1616B616301E04FF40060216856
:10689000414A8A63616B08436063012084F83000D9
:1068A00016B0BDE8F0816F462068416B11F4957F0A
:1068B000416B13D1080409D5002504E0206802F0DB
:1068C0006DF978510435202DF8D12F44FDF7A6FB42
:1068D000801B01304FF00040E6D1D8E7090751D4C2
:1068E000416B890750D4416B89060BD52020CEE738
:1068F00002F054F93860FDF791FB801B013045D060
:1069000004372068416BC904F2D422498163DDE970
:106910000001C2B2DDE90237960988F800606FF025
:10692000FF06C2F3401206EA102545EA106088F817
:106930000120A8F8020008BAC8F80400180A88F86C
:106940000830F9B288F80900C3F3035006EA13428D
:1069500088F80A008818A8F80C00C7F3852088F882
:106960000E00C7F3012088F80F00080988F810000E
:1069700007F00F0088F811009DF8130088F8120046
:1069800000208DE7082082E7022080E74FF00040DA
:106990007DE700BF3A0F0018FF0FE01FB0B586B0CB
:1069A00050B3044690F8300020B9002020762046ED
:1069B00000F060F9032084F83000204600F03CF835
:1069C000D0B901A92046FFF72FFFA8B99DF8140000
:1069D0009DF81510A26B012A04D1084304D04FF48E
:1069E000007003E0002001E04FF48070A0652046B5
:1069F000E168FFF7ADFD10B1012006B0B0BDFDF7B5
:106A00000DFB05462046FFF7FAFE04280CD0FDF7E3
:106A100005FB401B0130F5D14FF0004060630120C1
:106A200084F830000320E8E7002001216063E06281
:106A300084F83010E1E70000F0B58FB0044600683C
:106A40000168002341F010010160FA270021009342
:106A500000220197002302F083F818B9206802F0A1
:106A600093F818B1012528460FB0F0BD002004901E
:106A7000FDF7D4FA0546206801F082FD30B101250A
:106A800084F83050616B08436063ECE7206801F0E4
:106A90009DFD50B10020E063206801F071FD0028E9
:106AA000EDD1E06B012802D007E00120E06320680F
:106AB000002101F0FFFC002842D100206C4E4FF66F
:106AC000FE7700210CE02068314601F00DFDB8BBD7
:106AD0002068002102F040F804994A1CC10F04927A
:106AE0000029049908D1B94206D82068002101F094
:106AF000E1FC0028E7D0C2E704994FF6FE7291420C
:106B000002D94FF08070BAE7410003D50121C001DE
:106B1000A1631BD40120ADF80E00206802F018F824
:106B200088B1A06B03282AD12068042102F014F850
:106B3000000D206404A92046FFF78AFD00285ED0DE
:106B40004FF080509BE74FF0806098E74FF4007063
:106B5000A0652068016841F00801016001F0B8FEFD
:106B600000287FF48CAF2068416B490152D4FDF7B7
:106B700055FA401B01304FF00040F4D17FE7206808
:106B800001F0AEFD00287FF47AAF20680021374D78
:106B9000A847E06604212068A847206708212068EC
:106BA000A84760670C212068A847A16B0329A0674C
:106BB000BAD020680DF10E0101F0F4FD00287FF439
:106BC0005EAFA06B0328AFD0BDF80E10616409045E
:106BD000206801F09CFD00287FF451AF206800215F
:106BE000A847E06504212068A8472066082120689E
:106BF000A84760660C212068A847A06694E7616CEE
:106C0000002320680A04002501F050FD00287FF4CD
:106C100036AF28E74FF080618163406BC0028FD5AB
:106C20000120FFF713FD2068016841F004010160B5
:106C300005E0FDF7F3F9401B013013D02068416BEC
:106C40008901F6D54FF000718163416BC9023FF5B0
:106C500058AF132101604FF0FF3181634FF4007092
:106C6000A06557E74FF0004009E700BF598B0008C7
:106C7000000010C1704700002DE9F04786B098462B
:106C800015460F460446FDF7C9F97FB1824694F8D0
:106C9000300001280ED10021616308EB0500226D50
:106CA00090420FD9606B40F0007006E0606B40F0DE
:106CB000006002E0606B40F000506063012006B0AD
:106CC000BDE8F087032084F830002068A26BC16221
:106CD0004FF40071012A18BF6D0201F01CFC30BB9B
:106CE0004FF0FF3000904FEA482001909020029032
:106CF0004FF002090020CDF80C90CDE90400206887
:106D0000694601F033FE2068B8F1020FC16841F016
:106D10004001C16005D32946C4F82C9001F092FCD3
:106D200004E00121E162294601F0A6FC48B1216896
:106D3000A14A8A63616B08436063012084F83000D4
:106D4000BDE7DDF838902068416B11F4957F26D1BE
:106D5000406B000411D500250AE0206801F01EFFF9
:106D6000010A30707170010C000EB170F0700435C2
:106D7000202D07EB0506F0D13746FDF74FF9A0EBC4
:106D80000A004845DFD320688B498163606B40F07F
:106D900000406063012084F8300003208FE7C16861
:106DA000B8F1020F21F04001C160416B10D311F422
:106DB00080710DD0A16B03290AD001F061FD01465D
:106DC0000028206804D07C4A8263606B0843B3E7E4
:106DD000416B09070CD4416B89070FD4416B8906BD
:106DE00012D476498163012084F83000002066E7E0
:106DF00071498163606B40F008009DE76E498163D3
:106E0000606B40F0020097E76B498163606B40F074
:106E1000200091E72DE9F04788B0984615460E46C8
:106E20000446FDF7FBF87EB1824694F83000012855
:106E30000ED10021616308EB0500226D90420FD94D
:106E4000606B40F0007006E0606B40F0006002E0B4
:106E5000606B40F000506063012008B0BDE8F0872F
:106E6000032084F830002068A26BC1624FF40071E7
:106E7000012A18BF6D0201F04EFB18BB4FF0FF3026
:106E800002904FEA48200390902004900020CDE922
:106E90000500079002A9206801F068FD2068B8F19C
:106EA000020FC16841F04001C16005D32021E162B9
:106EB000294601F027FD04E01021E162294601F096
:106EC0003BFD48B121683C4A8A63616B08436063BB
:106ED000012084F83000C0E7DDF8409001AD206863
:106EE000416B11F48D7F2CD1406B400419D50027E4
:106EF00012E001780191427841EA02210191827801
:106F000041EA02410191C07841EA006001902946BE
:106F1000206801F05DFE0437202F06EB0700E8D162
:106F20000646FDF77BF8A0EB0A004845D7D320685A
:106F300021498163606B6063012084F83000032085
:106F40008BE7C168B8F1020F21F04001C160416BCD
:106F500010D311F480710DD0A16B03290AD001F078
:106F60008FFC01460028206804D0134A8263606BBE
:106F70000843ACE7416B09070CD4416B89070FD478
:106F8000416BC90612D40D498163012084F8300099
:106F9000002062E708498163606B40F0080096E7D3
:106FA00005498163606B40F0020090E7024981630C
:106FB000606B40F010008AE7FF0FE01F3A0F0018E7
:106FC000704790F8810070472DE9F047044600684B
:106FD0000569466906EA0507D0F8089094F88180AB
:106FE00017F0400A0BD107F02400042809D1616F83
:106FF00020468847216F20468847012002E0002074
:1070000008E0002007F00501012903D1216F204687
:107010008847012007F02601022904D1616F20462C
:10702000BDE8F047084708B1BDE8F08738070BD442
:10703000280761D516F400605ED02068816941F4AC
:1070400000618161BDE8F087206819F4404F8169D3
:1070500041F008018161816941F01001816181691C
:1070600041F400618161016921F0080101610ED0E4
:10707000B8F1040F06D0A16FC96941B1B8F1030F8F
:1070800000F0BA80E16FC969002940F0A6808068ED
:1070900010F4404F21D11CE0E068102804D3206890
:1070A000616E006B01C106E00828206805D3008EE0
:1070B000616E21F8020B616606E090F83000616EA7
:1070C0000870606E01306066B4F86A000138A4F898
:1070D0006A00B4F86A000028DED1204601F086FE7E
:1070E000012084F88100D4F88400002875D020465F
:1070F000BDE8F047FFF764BF17F4587F94D0BAF1AA
:10710000000F0AD02068D4F8841041F00401C4F8BC
:107110008410816941F040018161B8050AD5206879
:10712000D4F8841041F00101C4F88410816941F45D
:1071300000718161F80507F020000AD52168D4F8B4
:10714000842042F00802C4F884208A6942F48072E4
:107150008A6150B12068D4F8841041F08001C4F8ED
:107160008410816941F020018161D4F884000028F5
:107170003FF45AAF206840F26B32016821F0010100
:1071800001600169914309F440420161B2F5404F49
:107190003CD1816821F440418160E06F50B11D49CC
:1071A0000165FBF769FF28B1D4F8840040F0400086
:1071B000C4F88400A06F00283FF436AF154901657C
:1071C000FBF75AFF00283FF42FAFD4F8840040F0BB
:1071D0004000C4F88400BDE8F087B8F1030F0BD07D
:1071E000B8F1040F0DD0B8F1050F7FF41DAF2046A4
:1071F000BDE8F04700F066BA2046BDE8F04700F071
:107200005FBA2046BDE8F04700F0ADB8012084F831
:1072100081006CE7A38E0008F8B538B30446006817
:1072200000224D4DA842A26208D04C4A904205D09F
:107230004B4A904202D0E2680F2A17D8E168012336
:10724000E26B083103EB5212C9084A43A8420BD043
:107250004349884208D0414B984218BF082A05D8B4
:10726000884218BF984203D1102A01D9012071E049
:1072700094F8811031B9002084F88000204600F095
:1072800071F82068022184F88110016821F0010161
:107290000160D4F818C0BCF1806F616808BFB1F517
:1072A000800F07D1A16B19B9016841F480510160C9
:1072B0004FF48001E3690029A56AE26B43EA050304
:1072C000E56842EA030242EA0502D4F808E0D4E99C
:1072D00004768260626B656A42EA0C02A36B42EA42
:1072E000050242EA0302236A42EA0702A76D42EA64
:1072F000060242EA0302E36C42EA010242EA0302A6
:10730000A36C42EA0E0242EA030242EA0702C260AA
:107310000CD0026D490222F00102026514D5C16849
:1073200021F00041626D1143C1600DE081680122CE
:1073300062F3CC2102228160816862F34A2181607C
:10734000016D21F00101016500200121C4F88400D4
:1073500084F8811001B0F0BD00380040003C0040CE
:1073600000300140704770472DE9F843044690F81B
:10737000800001285FD001201D4684F88000174658
:107380000E46FCF74BFE94F88110012950D1002ED7
:1073900055D0002F53D08046032084F88100002070
:1073A000C4F88400E665A4F86070A4F862706066B2
:1073B000A4F86800A4F86A002067A1686067B1F5C6
:1073C000C02F206803D1016841F400610160416869
:1073D0004FF6FF72914339444160016841F0010169
:1073E00001606168B1F5800F03D1016841F400715B
:1073F0000160E068102827D36E1C14E02068416902
:10740000890707D4FCF70AFE6EB1A0EB0800A8427A
:1074100009D3A2E0E16D04C90262E165B4F862003B
:107420000138A4F86200B4F862000028E6D179E0DF
:10743000002084F88000022001B0BDE8F083002025
:1074400084F880000120F7E707282DD94FF6FC705B
:107450006E1C00F10209C71C21E020684169890700
:1074600007D4FCF7DBFDD6B1A0EB0800A84216D389
:1074700073E0B4F86210022906D3E16B21B1E16D2B
:1074800004C90262484604E0E16D31F8022B02842F
:107490003846E165B4F862100844A4F86200B4F814
:1074A00062000028D9D13DE04FF6FC706E1C00F15F
:1074B0000209C71C32E020684169890707D4FCF73C
:1074C000ADFD5EB3A0EB0800A84227D345E0B4F8B9
:1074D0006210042908D3E16B412905D3E16D04C989
:1074E00002624FF6FC700AE0B4F86210022908D379
:1074F000E16B31B1E16D31F8022B02844846E16560
:1075000007E0E16D097880F82010E06D0130E0655A
:107510003846B4F862100844A4F86200B4F8620077
:107520000028C8D1204641462A4601F0F3FC28B184
:10753000D4F8840040F02000C4F88400204601F014
:1075400055FC002084F88000012084F88100D4F8E4
:107550008400002818BF01206EE7204601F046FC99
:10756000002084F88000D4F8840040F48070C4F8CF
:107570008400012084F881005EE70000B0B5044675
:1075800090F88000012830D0012084F8800094F821
:107590008100012826D1A1B3154692B3032084F8B7
:1075A00081000020C4F88400E165A4F86050A4F8CC
:1075B00062506066C4E91C00A4F86800A4F86A0080
:1075C000A068B0F5C02F04D12068026842F40062C0
:1075D0000260E268102A0AD3A06F8269B2F5804F78
:1075E0000FD124E0002084F880000220B0BDA06FFD
:1075F000082A82690AD3B2F5005F18D0B2F5804F2D
:107600000AD0002084F880000120B0BDB2F5804F80
:1076100007D0B2F5005F0AD1B4F8622001325208F7
:1076200003E0B4F8622003329208A4F86220214AF1
:10763000214BC0E90F32214A0023C0E913232268FD
:10764000936823F4004393602032B4F86230FCF76F
:10765000EFF948B1D4F8840040F01000C4F8840079
:10766000012084F88100B0BDD4E9000CA26F4FF670
:10767000FF71D2694368B2F5807F23EA010118BF28
:10768000294441608168BCF5800F41F4004181606C
:10769000016941F448710161016841F00101016033
:1076A00003D1016841F400710160002084F880007A
:1076B000B0BD00BFE98E0008EF8E0008B98E00084B
:1076C000704770477047000010490A68042822F08C
:1076D000040308BF42F004030B60704702480168CE
:1076E000C2681144016070470CA70020411E0020B1
:1076F000B0EB116F01D001207047044A5160F021B6
:10770000034B1970072190601160704710E000E092
:1077100023ED00E0FFF7E2BF704770477047704706
:1077200070B504460068C26901685FEA027C83683C
:107730006FD0644D03EA050E01F4907515EB0E054C
:1077400072D0D50718BF11F4807507D001250562E6
:10775000D4F8885045F00105C4F88850950703F027
:10776000010508D53DB102260662D4F8886046F0CE
:107770000406C4F88860560708D53DB104250562A3
:10778000D4F8885045F00205C4F88850BCF1000FC9
:107790000CD501F0200656EA0E0607D00826066230
:1077A000D4F8886046F00806C4F88860D4F8886089
:1077B000002E71D092060AD501F0200103F080520C
:1077C000891804D0E16E11B1204688472068D4F8AA
:1077D0008810806801F0080100F04000401855D082
:1077E000204601F0C3FE20688168490649D58168BA
:1077F00021F040018160A06F002842D0324901652C
:10780000FBF73AFC002847D0A06F016DBDE870403F
:107810000847950608D501F0200C03F0805515EBBC
:107820000C0501D0E16E15E0D6020AD513F48006EE
:1078300007D04FF4801101622046BDE87040FFF789
:107840006DBF16060BD501F0800603F400039B19EB
:1078500005D0216F01B32046BDE87040084702EA19
:1078600001035B0619D5016821F040010160202069
:10787000C4F88000002020672046BDE8704000F07A
:10788000BBB82046BDE87040FFF749BF2046FFF770
:1078900046FF0020C4F8880070BD100207D511F023
:1078A000804004D02046BDE87040FFF736BFD001CD
:1078B000F2D5B1F1FF3FEFDC2046BDE87040FFF7A5
:1078C0002BBF00BF010000105B95000810B5B0B1E0
:1078D0000446D0F8800028B9002084F87C002046B7
:1078E00000F026F82420C4F880002068016821F008
:1078F00001010160204601F04BFE012801D1012069
:1079000010BDA06A10B1204601F092FD20684168C8
:1079100021F490414160816821F02A018160016871
:1079200041F0010101602046BDE8104001F0E3BDD7
:1079300070472DE9F8430446D0F8800020280AD18A
:107940000E4600294FF0010706D0154622B194F8E3
:107950007C00012804D10227384601B0BDE8F0833D
:10796000012084F87C0000272120C4F88870994603
:10797000C4F88000FCF752FBA4F854508046A4F8E9
:107980005650A168B1F5805F20D12069002814BF4E
:1079900030463746064619E08021CDF80090002297
:1079A0002046434602F062F9F0B91EB116F8010B09
:1079B000216805E037F8020B002621686FF35F208D
:1079C0008862B4F856000138A4F85600B4F856009E
:1079D0000028E1D14021CDF8009000222046434606
:1079E000002702F043F908B10327B5E72020C4F8C7
:1079F000800084F87C70AFE770470000054C06A15A
:107A000007A24323204603F057FF0BA1204603F0B3
:107A100053FFFEE7A0A4002025733A2564203A0016
:107A20002E2E2F5372632F73746D3332683778782C
:107A30005F69742E63000000486172644661756C72
:107A4000745F48616E646C65720A000010B5174C73
:107A5000174818492060002061600121C4E9020133
:107A600004F110001421F9F73AF82046FCF726FB40
:107A700020B111484FF4D37103F07CFF0B48002173
:107A8000FCF7D2FA20B10C4840F2AD1103F072FFBE
:107A900006480021FCF7EDFA30B107484FF4DA71DF
:107AA000BDE8104003F066BF10BD00BF489F002036
:107AB00000540040FFECC01039760108006881696D
:107AC000890701D5002181628169C90718BF704704
:107AD000816941F00101816170470000F8B50446F9
:107AE00000688369DB0601D400202AE015460E46B3
:107AF0004F1C0AE04FB1FCF791FA002E4FF0200125
:107B000013D0401BB04210D8206881698906F1D596
:107B10001021C1612021C1612046FFF7CFFF2068FD
:107B2000494A4168114041600421606C0843606427
:107B3000202084F84100002084F8420084F84000AE
:107B4000012001B0F0BD00BF10B56FF39F210068A8
:107B5000DDF808C0074CD0F804E019432EEA5C5E5B
:107B600041EA024104EA0E0441EA0C01214341606A
:107B700010BD00BF009C00FC2DE9F8431D46DDF858
:107B8000208016460F4681465C1CD9F800008069AB
:107B90003840C01BB0FA80F04009B04218D1002C28
:107BA000F3D0FCF73BFA1DB1A0EB0800A842ECD9DA
:107BB000D9F8440040F02000C9F84400202089F89A
:107BC0004100002089F8420089F84000012000E0CF
:107BD000002001B0BDE8F08370B515460E4604469E
:107BE0002068806940071DD4204631462A46FFF7A9
:107BF00075FF38BB2068816989060ED4FCF70EFA40
:107C000016B1401BB042EBD9606C40F020006064BC
:107C1000202084F84100002012E08169490703D543
:107C2000218D09B1002070BD2021074BC161426840
:107C30001A4042600020606484F8411084F84200D9
:107C400084F84000012070BD00E800FE70B51546C4
:107C50000E46044620688069800619D420463146C5
:107C60002A46FFF73BFF88B9FCF7D8F916B1401B4D
:107C7000B042EFD9606C40F020006064202084F8AE
:107C80004100002084F8420084F84000012070BDCB
:107C9000002070BDF8B515460E4604464F1C2068FE
:107CA000806980071BD4204631462A46FFF716FF1D
:107CB00098B9002FF3D0FCF7B1F916B1401BB042D0
:107CC000EDD9606C40F020006064202084F8410011
:107CD000002084F8420084F84000012000E00020E9
:107CE00001B0F0BDB0B552004FF0000C4FF0370EB0
:107CF00000230EE0040F0EEB1075B0F1204F38BFDB
:107D000004F1300543F00104CD54000101F804C032
:107D100002339A42EED1B0BD0229034604D00129B4
:107D200006D051B9002204E019460448FCF763B9B3
:107D3000012219460148FCF765B97047000802584E
:107D4000FEE77047BCB50520FCF75AFC40206049AF
:107D500008706048816841F001018160816801F02C
:107D6000010101910199816841F0020181608168FE
:107D700001F0020101910199816841F004018160E3
:107D8000816801F0040101910199816841F00801C5
:107D90008160816801F0080101910199816841F0D9
:107DA00010018160816801F01001019101998168E1
:107DB00041F080018160816801F0800101910199A9
:107DC000416841F040014160416801F0400101918A
:107DD0000199016941F480210161016901F4802167
:107DE00001910199016941F480410161016901F446
:107DF000804101910199016841F001010160016830
:107E000001F0010101910199016841F00201016055
:107E1000016801F002010191019950F8041C41F43C
:107E2000803140F8041C50F8041C01F480310191A9
:107E30000199016941F400110161016901F4001126
:107E400001910199416841F001014160416801F0EF
:107E5000010101910199016841F00061016001682F
:107E600001F0006101910199C16941F00201C16114
:107E7000C06900F0020001900198FDF78DF92720FC
:107E8000154C00210022A047144D2720A8470B20A5
:107E900001210022A0470B20A84724200121012214
:107EA000A0472420A8474E2001210222A0474E20AF
:107EB000A847392001210322A0473920A84765207F
:107EC00002210022A04765202946BDE8BC400847A2
:107ED00023ED00E0D8440258C1450008A54500083C
:107EE0000148FCF709BD00BF949F0020F8B57F4F03
:107EF000BA6A02F00302032A01D1012074E00546A8
:107F0000386820F080600C463860FCF787F8064639
:107F10003868000105D5FCF781F8801B0228F7D9E5
:107F20005FE0B86A4FF47E43696820F47C30AA6849
:107F3000013903EB42222B686FF35F2192B240EAD2
:107F400003301144EA684FF4FE03B86203EB0242C7
:107F500002F4FE02881829694FF0FE4202EB01612B
:107F600001F0FE410844B863002CF86A20F0C0001C
:107F7000696940EA0100F862F86A20F02000A96906
:107F800040EA0100F8624FF6F871F86A20F010003C
:107F9000F862F86B20EA0100E96940EAC100F86381
:107FA000F86A40F01000F86205D0012CF86A06D19A
:107FB00040F4801005E0F86A40F4002001E040F44D
:107FC0000010F862386840F080603860FCF726F8EE
:107FD00004463868000106D4FCF720F8001B03288B
:107FE000F7D3032000E0002001B0F0BDF8B53F4F0B
:107FF000BA6A02F00302032A01D1012074E00546A7
:10800000386820F080500C463860FCF707F80646C8
:108010003868800005D5FCF701F8801B0228F7D9E5
:108020005FE0B86A4FF47E43696820F07C70AA680C
:10803000013903EB42222B686FF35F2192B240EAD1
:1080400003501144EA684FF4FE03B86203EB0242A6
:1080500002F4FE02881829694FF0FE4202EB01612A
:1080600001F0FE4108443864002CF86A20F44060B6
:10807000696940EA0100F862F86A20F40070A969B1
:1080800040EA0100F8624FF6F871F86A20F4807057
:10809000F862786C20EA0100E96940EAC10078647E
:1080A000F86A40F48070F86205D0012CF86A06D1B5
:1080B00040F4000005E0F86A40F4800001E040F080
:1080C0008070F862386840F080503860FBF7A6FF97
:1080D00004463868800006D4FBF7A0FF001B032885
:1080E000F7D3032000E0002001B0F0BD00440258A7
:1080F00070B590B000F0CEF9384D05F50C743848E5
:108100002146FAF764FA0A2004F0DCFB0020002282
:10811000214604F0C1FF002885F8340208D100226E
:108120002846214604F0B8FF002885F8340216D00E
:10813000364E912336493046364A03F0BDFB95F85A
:108140003402354951F8202034A1304603F0B4FB05
:1081500000200022214604F09FFF10B070BD6E4643
:1081600040213046F8F7BBFC1EA130462246F8F706
:1081700073FA304604F0E3FE40F0080185F834025B
:108180000829D5D16E4640213046F8F7A8FC18A141
:1081900030462246F8F760FA304604F0D0FE40F050
:1081A000080185F834020829C2D16E4640213046C4
:1081B000F8F795FC12A130462246F8F74DFA304602
:1081C00004F0BDFE40F0080185F834020829AFD163
:1081D00000F02CF8002085F83402BEE778970020E4
:1081E000B0380108257344454255475F4C6F67001E
:1081F00025734D6F646275735F44617461000000A4
:1082000025734A736F6E5F4461746100A0A40020FF
:10821000AF710108C773010818000020444542559A
:1082200047203A282573290D0A0000002DE9F04F58
:108230009BB007AC30212046F8F751FC01A818216B
:10824000F8F74DFC624D9E2362492846624A03F0CE
:1082500033FB6249284603F02FFB614800F50C759B
:108260002046294604F042FF8146002851D100955E
:10827000A223574D574E2846574F31463A4603F0F2
:108280001BFB58A1284603F017FB0DF14C0ADFF841
:10829000E0B10AF109040DF11C0833E09DF8550026
:1082A0002E282FD0002846D09DF85400C00608D4B0
:1082B000AF23284631463A4603F0FEFA2846724973
:1082C00007E0AB23284631463A4603F0F5FA284644
:1082D0006C4903F0F1FA204601A904F06DFFB323C5
:1082E000284631463A46D8470198821267492846BF
:1082F000D847B423284631463A46D84728466449E9
:108300002246D8474046514604F032FF0028C5D0E7
:1083100081462F4CD6232F4920462F4A03F0CCFA12
:108320003C483DA150F82920204603F0C5FA002022
:108330001BB0BDE8F08F19A900981AAA04F080FDBF
:108340001A98BF23416940890239214C01FB00F58D
:10835000199901FB00F61F491F4A204603F0ACFAA9
:10836000EA0AF30A37A1204603F0A6FA4F48806BC9
:1083700003280BD001281DD038BB154CC423154948
:108380002046154A03F098FA3D491BE0104CCC23D7
:10839000104D2046104E29463246D84735492046D2
:1083A000D847CD23204629463246D8473249204671
:1083B000D8470AE0064CC82306492046064A03F07F
:1083C0007BFA2E49204603F077FA0120B0E700BF80
:1083D000A0A40020AF710108C7730108037201084F
:1083E00078970020CAF4D0D420207C2020CEC4BCB2
:1083F000FEB4F3D0A14B6942207C20B6CCCEC4BCE5
:10840000FEC3FB207C20B3A4CEC4BCFEC3FB0D0A7C
:1084100000000000180000204445425547203A5310
:1084200044436172645F56696577526F6F74446943
:10843000722066616C73652E0D0A282573290D0A5A
:10844000000000002564204D4220746F74616C2090
:1084500064726976652073706163652E0A256420F5
:108460004D4220617661696C61626C652E0A000084
:10847000B9B8000828730108D672010852720108C1
:1084800092720108747301087D73010886730108F4
:1084900021730108054806490022C0E900124FF483
:1084A0008041C0E90221C0E9042270479CA300205A
:1084B0000070005210B586B00191372102914FF43F
:1084C00080710391002104914FF48051059101A91D
:1084D000044600F067FB372141F28832204606B09F
:1084E000BDE8104000F058BA10B586B001912921BE
:1084F00002914FF480710391002104914FF4805157
:10850000059101A9044600F04DFB204606B0BDE8E8
:10851000104000F0F9BA10B586B001911021029117
:108520004FF480710391002104914FF48051059123
:1085300001A9044600F036FB102141F288322046A2
:1085400006B0BDE8104000F027BA10B586B0019122
:10855000062102914FF480710391002104914FF4A0
:108560008051059101A9044600F01CFB062141F24F
:108570008832204606B0BDE8104000F00DBA000079
:1085800010B586B00021CDE90311CDE901114FF4FA
:108590008051059101A9044600F004FBA9484FF45D
:1085A000FA510068B0FBF1F041F288314843C04312
:1085B000013006D0616B0906FAD5A348A0630020FC
:1085C00001E04FF0004006B010BD00BF10B586B00E
:1085D0004FF4D5710191082102914FF480710391FC
:1085E000002104914FF48051059101A9044600F047
:1085F000D9FA94484FF4FA510068B0FBF1F041F217
:1086000088314843C043013013D0616B11F0450FEE
:10861000F9D011F40051F6D1606B40070CD4606BB7
:10862000C0070BD1606B400601D54020A06300203D
:1086300006E04FF0004003E0042000E00120A063CA
:1086400006B010BD10B586B00191122102914FF411
:1086500080710391002104914FF48051059101A98B
:10866000044600F09FFA122141F28832204606B0FB
:10867000BDE8104000F090B910B586B0019111210D
:1086800002914FF480710391002104914FF48051C5
:10869000059101A9044600F085FA112141F28832C2
:1086A000204606B0BDE8104000F076B910B586B09F
:1086B0000721019202914FF48071039100210491EE
:1086C0004FF48051059101A9044600F06BFA07218F
:1086D00041F28832204606B0BDE8104000F05CB997
:1086E00010B586B000210222019102924FF440722F
:1086F000CDE903214FF48051059101A9044600F012
:1087000051FA204606B0BDE8104000F0D5B910B5CA
:1087100086B00191092102914FF44071039100212B
:1087200004914FF48051059101A9044600F03AFAF2
:10873000204606B0BDE8104000F0BEB910B586B0C6
:1087400000213322019102924FF48072CDE903217E
:108750004FF48051059101A9044600F023FA33211A
:1087600041F28832204606B0BDE8104000F014B94E
:1087700010B586B001910D2102914FF480710391E3
:10878000002104914FF48051059101A9044600F0A5
:1087900009FA0D2141F28832204606B0BDE81040AA
:1087A00000F0FAB8B0B586B000220323019202931C
:1087B0004FF48073CDE903324FF480520C4605929A
:1087C00001A9054600F0EEF9E0484FF4FA510068BF
:1087D000B0FBF1F041F288314843C04301301FD073
:1087E000696B11F0450FF9D011F40051F6D1686BA7
:1087F000400718D4686BC00717D12869C0B2032896
:1088000017D1C048A863686910F4604F13D04104C1
:1088100015D400044FF4805058BF4FF4803006E068
:108820004FF0004003E0042000E00120A86306B000
:10883000B0BD0120FBE7000C20800020F7E74FF4DB
:108840000050F4E710000020C500200010B586B0ED
:1088500000210D22019102924FF48072CDE9032193
:108860004FF48051059101A9044600F09BF90D21B8
:1088700041F28832204606B0BDE8104000F08CB8C6
:1088800010B586B000210C22019102924FF4807243
:10889000CDE903214FF4805105910446C06801A938
:1088A00040F08000E060E06820F04000E06020469A
:1088B00000F078F90C21054A204600F06DF8E168D7
:1088C00021F08001E16006B010BD00BF00E1F505B8
:1088D00010B586B000210B22019102924FF48072F4
:1088E000CDE903214FF48051059101A9044600F020
:1088F00059F90B2141F28832204606B0BDE81040FC
:1089000000F04AB810B586B00191192102914FF4D8
:1089100080710391002104914FF48051059101A9C8
:10892000044600F03FF9192141F28832204606B092
:10893000BDE8104000F030B810B586B001911821A4
:1089400002914FF480710391002104914FF4805102
:10895000059101A9044600F025F9182141F2883259
:10896000204606B0BDE8104000F016B810B591E8FA
:108970000850CC6802464362C0F828C044EA0E00A2
:108980000B69184349690843D16A21F0FF0101438B
:108990000020D16210BD000010B56C4B4FF4FA54AA
:1089A0001B68B3FBF4F3424C53430246DB430133F1
:1089B0003FD0506B2042FAD010F40050F7D1506BEA
:1089C000400739D4506BC00739D104F1800090635F
:1089D0001069C0B2884235D150693649084233D057
:1089E000002833DB410034D4810034D4C10034D4B6
:1089F000010135D4410136D4C10137D4010238D444
:108A0000410239D481023AD4C1023BD441033CD45F
:108A100081033DD4C1033ED401043FD4410440D47A
:108A2000810441D400074FF4000058BF4FF4803058
:108A300010BD4FF0004010BD0420906310BD012018
:108A4000906310BD012010BD002010BD4FF00070DC
:108A500010BD402010BD802010BD4FF4807010BDAF
:108A60004FF4007010BD4FF4806010BD4FF40060F3
:108A700010BD4FF4805010BD4FF4005010BD4FF4A6
:108A8000804010BD4FF4004010BD4FF4003010BDC9
:108A90004FF4802010BD4FF4002010BD4FF4801023
:108AA00010BD4FF4001010BD4FF4800010BD00BF8A
:108AB0004500200008E0FFFD24494FF4FA52096800
:108AC000B1FBF2F141F288325143C943013110D078
:108AD000426B12F0450FF9D012F40052F6D1416BFF
:108AE000490709D4416BC90708D1064981630021B0
:108AF00006E04FF0004103E0042100E00121816322
:108B000008467047C500200010494FF4FA52096822
:108B1000B1FBF2F141F288325143C943013110D027
:108B2000426B12F0450FF9D012F40052F6D1416BAE
:108B3000042211F0040104BFC522C0F220028263A6
:108B400001E04FF000410846704700BF10000020D0
:108B5000006800F003007047084440697047000057
:108B6000844641EA020000991843019A0843DCF860
:108B700004101043034A114001430020CCF80410B4
:108B8000704700BF002CC0FF80B5016841F00301B1
:108B900001600220FBF732F8002080BDD0F8800091
:108BA0007047000080B5D1E900EC8B680246C868C8
:108BB00043EA0C03C2F808E018430969034B084371
:108BC000D168194001430020D16080BDC0E0FEFFA4
:108BD000024609680020C2F88010704710B5544C56
:108BE00001202070F9F7AAF918B9207800F0FE00EA
:108BF0002070207810BD00BF2DE9F04786B00C46EC
:108C00000546FBF70BFA064628680821FFF783FCA8
:108C1000002855D1696C28680904FFF74BFC00282F
:108C20004ED14FF0FF30009008200190302002908C
:108C300002200390002004900120059069462868D6
:108C4000FFF794FE2868FFF779FDC8BB002740F2C4
:108C50002A5A4FF000094FF000082968486B10EAC3
:108C60000A0F486B14D100F40020384308D108469D
:108C7000FFF794FF80462868FFF790FF81460127A1
:108C8000FBF7CCF9801B01304FF00040E5D117E035
:108C900000070FD4486B80070ED4486B80060DD4B4
:108CA0000948886398FA88F199FA89F0C4E90001C3
:108CB000002005E0082002E0022000E02020886378
:108CC00006B0BDE8F08700BF3A0F001810B5184C89
:108CD00001202070F9F73AF910B9FFF77FFF2070F3
:108CE000207810BD10B58AB011480078C0070CD1AB
:108CF000084603290BD81446DFE800F018020B11D0
:108D000001A8F9F715F907980EE003200EE00420FA
:108D10000CE001A8F9F70CF90898208005E001A8FB
:108D2000F9F706F90898400A206000200AB010BD43
:108D30008400002080B59C4608464FF0FF33114662
:108D40006246F9F72BF908B1012080BDF9F7F6F872
:108D50000028FBD1002080BDFFF740BF80B59C46B6
:108D600008464FF0FF3311466246F9F725F908B17E
:108D7000012080BDF9F7E2F80028FBD1002080BD7A
:108D800010B5FB4C15484FF4800120600020616055
:108D900007214FF00072A060C4E903124FF0806217
:108DA000C4E90502C4E90700C4E909004FF08040A6
:108DB000E162606304F138002421F7F790FE204659
:108DC000FEF72AFA20B106484FF4BA7102F0D2FD3C
:108DD0002068016841F00101016010BD00380040C9
:108DE00039760108EA48FEF7EFB800BF016840F2A3
:108DF0006F32D1F814C08B6943F008038B618B6923
:108E000043F010038B610B6823F001030B600B69C7
:108E100023EA02020A618A6822F440428A605FEA19
:108E20008C6290F881300BD5042B09D0D0F88420C7
:108E300042F08002C0F884208A6942F020028A61F0
:108E400090F881305FEA4C620BD5032B09D0D0F843
:108E5000842042F00402C0F884208A6942F0400273
:108E60008A615FEA8C5209D5D0F8842042F0010271
:108E7000C0F884208A6942F400728A615FEACC52A9
:108E800009D5D0F8842042F00802C0F884208A690D
:108E900042F480728A610021A0F86210A0F86A1082
:108EA0007047806B0021A0F86A10A0F862100121C1
:108EB00080F88110FEF784B810B5846BFAF79EF93C
:108EC000022800D110BD2046FFF790FFD4F884009F
:108ED00040F01000C4F88400012084F8810020468E
:108EE000BDE81040FEF76CB8806BFEF7EABB806B04
:108EF00090F88110072908BF7047816FC969B1F5E3
:108F0000807F01D1FEF7DCBB0068016941F00801F8
:108F100001617047F8B514460D460646571C306887
:108F20004069000708D4FBF779F8002FF7D0401B01
:108F3000A042F4D3032000E0002001B0F0BDB0B5A2
:108F400004460088A18801384F3182B28BB20020DC
:108F5000502100F01FF9D4E900014143E068B1F568
:108F6000004F05DA490089B2BDE8B04000F002B90F
:108F70004FF6FF714FF6FF7500F0FCF8D4E90001E1
:108F80004843E2684000013081B25019BDE8B0406A
:108F900000F0F0B82DE9FE4FA2EB000B0446BBF148
:108FA000000F0D46A3EB010602DD012002900AE04E
:108FB000584618BF4042BBF1000F18BF4FF0FF3BAF
:108FC000CDF808B08346002E02DD0120019009E0B3
:108FD000304618BFCBF10000002E18BF4FF0FF360F
:108FE0000196064637464FF000084FF000094FF053
:108FF000000AB345C8BF5F4618E0A0B20C9AA9B2F8
:1090000000F01AF809EB0B000AEB0601B0EB0709B8
:10901000D8BF81460298C8BF0444B1EB070AD8BF45
:109020008A460198C8BF054408F101081FFA88F074
:109030008742E2DABDE8FE8F1CB5431C01F1010C4A
:1090400014469AB21FFA8CF300F0A4F8200A8DF8A7
:1090500006000DF1060002218DF8074000F07EF8B1
:109060001CBD2DE9FC411C46DDF8208015460E464E
:10907000074600F08FF8611C6A1C891BD21B01FB9C
:1090800002F54FEA18200DF106048DF806008DF860
:10909000078004E00221204600F060F8013D002D29
:1090A000F8D1BDE8FC8100002DE9FC414FF0FF350F
:1090B000F9F760F8FFF764FE4FF48051244F002267
:1090C000594C20460026B847DFF88880C820C047A2
:1090D0004FF4805101222046B847C820C047A4F56C
:1090E00000604FF480510122B8476420C0474FF61A
:1090F000FF74194F4FF6FE7819E0701CC0B237F8B4
:10910000100003F0DFFB023611E00136F0B217F871
:10911000100000F069F802E0012100F01FF80136AC
:10912000F0B237F9101007EB4000A942F4DCF0B2BE
:1091300037F81000A042E8D04045DED0AFB20020A2
:1091400000210097F022F023FFF78BFFBDE8FC81A0
:1091500005400008C5C80008FC010020DFF8CCC0AD
:109160004FF47A730A4601466046FEF7FDB800BF29
:1091700018A4002010B52D4C0A4601462046FEF7E3
:10918000FDF92046FDF71DFF0128FAD110BD00BFF3
:1091900018A400207CB5050A124E8DF800506C46CC
:1091A0008DF80100100A8DF80200080A8DF80320DE
:1091B000251D8DF80400180A8DF805108DF806009D
:1091C0002A208DF80730B04704212046FFF7C6FF5C
:1091D0002B20B04704212846FFF7C0FF2C20B047C2
:1091E0007CBD00BFE99100081CB58DF807004FF465
:1091F000005100220C4C2046FAF704FF142003F023
:1092000066FB0DF10701094801224FF47A73FEF75E
:10921000ABF84FF4005101222046FAF7F3FE142078
:1092200003F055FB1CBD00BF000C025818A4002021
:10923000B0B550B104460D4605E02078F7F7E3F9E4
:1092400004F8010B013D002DF7D1B0BD80B5FBF74F
:109250003DF9BDE88040FEF75DBA0000B0B5CCB086
:1092600039A83E4C4C21F7F73AFC31A82021F7F7FA
:1092700036FC02A8BC21F7F732FC206820F004007D
:109280002060002001903648016821F00101016052
:10929000006800F001000190E06840F44040E060A8
:1092A000E06800F4404001900198E0688004FCD53B
:1092B00022203990012020213C903D9100243F90B4
:1092C000022004214290439444913221CDE945107B
:1092D0000A21CDE947100C20CDE9490439A84B9467
:1092E000FCF7FCFE18B11F48642102F043FB3F204D
:1092F00031900320CDE932040824402034944FF407
:109300008061CDE93500CDE9371031A80221022571
:10931000FCF7E2FC18B11348752102F02BFB124850
:10932000CDE90204302004A931C1C020079408907F
:1093300000204FF48031CDE90900199015914FF4C8
:109340004011CDE9220102A8FCF760F818B10548E8
:109350008A2102F00FFB4CB0B0BD00BF0C48025890
:109360002C040058397601080810050010B517487C
:10937000D0F88010174C41F47001C0F880101449E7
:109380000A6842F001020A6000220A610B68234069
:109390000B608A61CA610A628A62CA620A634A63AE
:1093A0008A63CA630A644A640B6823F480230B60EF
:1093B0000A6609490968B2EB517F02D10121074AC7
:1093C00011604FF00061016010BD00BF08ED00E0CA
:1093D000004402587FEDF6EA0010005C088100515D
:1093E00080B570B10078A0F13001052912D80020B5
:1093F000DFE801F003090E1811120B4900208876EE
:1094000080BD0A2080BD084801218176002080BDF2
:10941000064803E00B2080BD03480C3002F06CFAD4
:10942000002080BD03F074F8A003002078680108D4
:10943000816ACA0708D00268D0F82CC0536823F4A8
:10944000003343EA0C0353608A0708D50268D0F85A
:1094500030C0536823F4803343EA0C0353604A0757
:1094600008D50268D0F834C0536823F4802343EA57
:109470000C0353600A0708D50268D0F838C0536857
:1094800023F4004343EA0C035360CA0608D502687C
:10949000D0F83CC0936823F4805343EA0C039360F4
:1094A0008A0608D50268D0F840C0936823F40053B8
:1094B00043EA0C0393604A0612D50268D0F844C010
:1094C0005368BCF5801F23F4801343EA0C035360F8
:1094D00006D1536823F4C00C836C43EA0C03536039
:1094E000090658BF70470168C06C4A6822F4002220
:1094F000104348607047BCB500210446C0F888108E
:10950000FAF78CFD216805460A6812070BD56FF043
:109510007E404FF400110090002220462B4600F0C0
:10952000A5FB70B92168086840070CD56FF07E4034
:109530004FF480010090002220462B4600F096FB5D
:1095400008B1032007E02020C4F88000C4F884009C
:10955000002084F87C0002B0B0BD806B0021A0F830
:109560005E10A0F85610FEF7DAB800000168074B4D
:109570000A6822F490720A608A681A408A60202180
:10958000C0F884100021C166704700BFFEFFFFEFE6
:109590002DE9F04186B004460068D4E9021322693F
:1095A0009A4D114362691143E2691143676E394371
:1095B00007682F40964D39430160416821F44051BE
:1095C0001943944B41609842A1691CBF276A3943F3
:1095D00087682F40904D39438160A842C16A21F0CD
:1095E0000F07616A47EA01068C4FB846C66227D06A
:1095F0008B4DA84230D08B4DA84239D08A4DA8421D
:1096000042D08A4DA84200F04A80894DA84200F01D
:109610005180984200F05980864DA84200F0608049
:10962000854DA84240F069807E6DC6F3C205052DC8
:1096300000F263800126DFE805F0695E6264666817
:109640007F6D07F00705052D00F257800026DFE843
:1096500005F05D5256585A5C7F6D07F00705052DE1
:1096600000F24B800026DFE805F051464A4C4E5090
:109670007F6D07F00705052D00F23F800026DFE82B
:1096800005F0453A3E4042447F6D07F00705052D41
:1096900033D80026DFE805F03A2F333537397F6DB0
:1096A00007F00705052D28D80026DFE805F02F2450
:1096B000282A2C2E7F6D07F00705052D1DD80026C2
:1096C000DFE805F024191D1F2123BF6D07F00705F2
:1096D000052D12D80226DFE805F0190E121416180F
:1096E0007F6DC7F3C205052D07D80126DFE805F019
:1096F0000E0307090B0D042608E0802606E0082665
:1097000004E0102602E0202600E04026984214D013
:10971000B2F5004F2ED1082E4FF001003CD8DFE803
:1097200016F00900D10093029302DB00930293022A
:109730009302EA00FCF7E6FBC6E0402E00F07E80D4
:10974000042E00F08F80082E00F09F80102E00F075
:10975000A580202E00F0AF80022E40F07482FBF72F
:1097600037FD616A0B2980F08580DFF8F02452F81C
:10977000212084E0082E4FF001002AD8DFE816F0FF
:109780000900C30064026402CD0064026402640242
:10979000DC00FCF7B7FBB8E0102E00F0D580202EDF
:1097A00000F0DC80402E40F04F820A294FF001008B
:1097B00000F2E181DFE811F0F5010B00E401E601C0
:1097C000E801EA01EC01EE01F001F201F4010220EE
:1097D000E7E1102E00F0C880202E00F0CF80402E50
:1097E00040F032820A294FF0010000F2E281DFE806
:1097F00011F0F6010B00E501E701E901EB01ED01D4
:10980000EF01F101F301F5010220E8E1F369FFCF77
:10981000FFF4FF11000C00580044004000440258BF
:1098200000480040004C00400050004000780040DC
:10983000007C004000140140001001400A294FF054
:10984000010000F20481DFE811F018010B000701AC
:1098500009010B010D010F01110113011501170180
:1098600002200AE103A8FBF7C5FC616A0B290498F2
:10987000FFF47BAF4FF0010208BF4FF48072B0FBE2
:10988000F2F3002B40F0FD80B7E16846FBF738FDAE
:10989000616A0B290198FFF468AFEBE7D8F8000084
:1098A0004246800670D40B2980F0A480DFF8AC0318
:1098B00050F82100A3E00B2972D2DFF8A00350F882
:1098C000210072E0FCF72CFB616A0B290BD2DFF858
:1098D0008C2352F821100BE003A8FBF78BFC616A84
:1098E0000B290498F3D34FF0010108BF4FF48071A6
:1098F000B0FBF1F095E06846FBF702FD616A0B29C9
:109900000198E4D3EFE7FCF70BFB616A0B290BD25C
:10991000DFF8482352F821100BE003A8FBF76AFC9C
:10992000616A0B290498F3D34FF0010108BF4FF48B
:109930008071B0FBF1F056E16846FBF7E1FC616A2B
:109940000B290198E4D3EFE7D8F8000080062ED465
:109950000B295ED2C14850F821005FE00B2931D2BB
:10996000BE4850F8210032E0D8F80000800630D41C
:109970000B2965D2B94850F8210066E00B2932D294
:10998000B64850F8210033E010680B29C0F3C1003D
:10999000B44A22FA00F034D2B04A52F8212035E01D
:1099A0004FF0010008BF4FF48070AD4A67E0D8F86F
:1099B00000000B29C0F3C100AA4A22FA00F0FFF40C
:1099C00086AF90E74FF0010008BF4FF48070A449C4
:1099D00025E0D8F800000B29C0F3C100A14A22FA03
:1099E00000F095D3A0E74FF0010008BF4FF480705E
:1099F0009B49F6E04FF0010008BF4FF48070994A90
:109A00003DE04FF0010208BF4FF48072B0FBF2F36B
:109A100037E04FF0010008BF4FF480709149B1FB6F
:109A2000F0F0616840004A081044B0FBF1F04FF6D6
:109A3000F071014000F00781C0F342000843DAE012
:109A40004FF0010008BF4FF480708649C9E00B2930
:109A500008BF4FF4807010E004200EE006200CE0F8
:109A600008200AE00A2008E00C2006E0102004E0AC
:109A7000202002E0402000E080204FF40042B2FBB2
:109A8000F0F3626802EB420083424FF00100C0F045
:109A9000DB801703BB4200F2D780402E13D0042E88
:109AA00020D0082E2ED0102E34D0202E3FD0022EC3
:109AB00040F0C980FBF78CFB616A0B2919D2674A19
:109AC00052F821101AE00A294FF0010000F29780A5
:109AD000DFE801F0AB069A9C9EA0A2A4A6A8AA006B
:109AE0000220A2E003A8FBF785FB616A0B2904981A
:109AF000E5D34FF0010108BF4FF48071B0FBF1F0E6
:109B0000626827E06846FBF7FBFB616A0B29019856
:109B1000D5D3EEE7D8F80000800652480DD40B29C3
:109B200013D34FF0010108BF4FF4807110E00B29EF
:109B30001AD24A4850F821001BE0D8F800300B290F
:109B4000C3F3C10320FA03F0EBD2444B53F82110C6
:109B5000B0FBF1F0010E000210EB520041F10001E8
:109B60000023F6F7D9FC69E04FF0010008BF4FF47D
:109B700080703B495BE00B2908BF4FF4807010E018
:109B800004200EE006200CE008200AE00A2008E08D
:109B90000C2006E0102004E0202002E0402000E03D
:109BA00080204FF40041B1FBF0F0616842004808AA
:109BB0003AE70B2908BF4FF4807010E004200EE054
:109BC00006200CE008200AE00A2008E00C2006E04D
:109BD000102004E0202002E0402000E080204FF42C
:109BE0000041B1FBF0F0616800EB5100B0FBF1F017
:109BF00080B2102827D32168C860002024E00B29F8
:109C000008BF4FF4807010E004200EE006200CE046
:109C100008200AE00A2008E00C2006E0102004E0FA
:109C2000202002E0402000E080204FF40041B1FB02
:109C3000F0F0000200EB5200B0FBF2F0A0F5407132
:109C4000094A9142D7D901204FF001110022C4E9FD
:109C50001A12226706B0BDE8F08100BFE0370108A4
:109C600000093D000090D003FFFC0F002DE9F843F0
:109C7000DDF82080994616460F46044608F1010596
:109C80002068C0693840C01BB0FA80F04009B0427B
:109C90001DD1002DF4D0FAF7C1F9B8F1000F03D0AF
:109CA000A0EB09004045EBD92068016821F4D07190
:109CB0000160816821F0010181602020C4F88000EA
:109CC000C4F88400002084F87C00032000E0002019
:109CD00001B0BDE8F0830000F8B51E4615460C46FD
:109CE000074601F0C9FF78B34FF48071DDF820C05A
:109CF000DDE9063E21801222B9897F89A180678033
:109D00002181DF490968E7800029227418BF2C31BE
:109D1000E16000270E49012261610E494770027619
:109D20004FF0FF32877606824382A0F814E0A0F855
:109D300016C0C0E901120178C26001F03401457615
:109D4000CA31C461017000E0FF2778B201B0F0BDF4
:109D50000172010879B9000810B514460A460121BC
:109D600002F090FA38B10178C26941F06001948044
:109D70000170002000E0FF2040B210BD10B5144675
:109D80000A46012102F07EFA38B10178C26941F039
:109D90006001D4600170002000E0FF2040B210BDDF
:109DA00010B514460A46012102F06CFA38B1017868
:109DB000C26941F0600154610170002000E0FF20A1
:109DC00040B210BD2DE9F8431C46DDF82080DFF8D5
:109DD00040900B461546CDF800800E460746C84712
:109DE0003846CDF8008021462A462346C8473846E3
:109DF000CDF8008031463A462346C8472846CDF87C
:109E0000008031462A462346C847BDE8F88300BF94
:109E1000159E00082DE9FE4FE44F98463F68914695
:109E200097F850600C460546B6070C9E0CD5FF6CA3
:109E30002846214600964A464346B246B84700287F
:109E40005CD0DA4856460768A9EB050001B2A8EBDA
:109E5000040200EBE13013B280EAE13002EBE332BE
:109E60000FFA80F84FF0FF3000294FF0FF3982EAF7
:109E7000E332C8BF4FF00109002BC8BF01200FFA21
:109E800082FB02903B682846214632469847D845D7
:109E90001ADAB2464FEA6B07002611E04744C3497D
:109EA00038B25845A8BF4D44029804440A6828B205
:109EB000A8BFA7EB0B0721B213685246984701369B
:109EC00030B25845EADB19E04FEA680A002712E091
:109ED000DA440FFA8AF04D4440450298A8BF044482
:109EE000E94821B2026828B2A8BFAAEB080A1368A1
:109EF00032469847013738B24045E9DBBDE8FE8F6E
:109F0000022888BF7047E049096801EBC00010F8DB
:109F1000501FCA071CBF41F002010170704700BF0B
:109F2000022888BF7047D84A126802EBC000C1649B
:109F3000032180F8501070472DE9F84F8046DFF874
:109F4000489314460A9D8242BCBF044690468B4605
:109F5000D9F800008B42B8BF9B4690F858201E46A7
:109F6000B8BF0E46910709D5476D0FFA88F00FFA72
:109F70008BF1009522B233B2B847A8B10FFA86FA36
:109F800024B20DE0474606E0D9F800102A460B68D7
:109F900031469847013738B2A042F5DD0BF1010B8D
:109FA0000FFA8BF65645EDDDBDE8F88FE0B5B64902
:109FB000844609688A88C988013ACDF800C0481EDD
:109FC00012B203B200200021FFF7B6FF8CBD00BF24
:109FD00080B5AD49096890E80C50006901F12C0783
:109FE00087E80C50C86380BD844601608280591F99
:109FF000C3804FF00410CCF82000501FACF82400B0
:10A00000ACF82610ACF81C0040F20110ACF81E10A1
:10A0100045F65D41ACF840000020CCF82C00CCF8AF
:10A020003C00CCF83600CCF83200ACF846104FF6C5
:10A03000FF71CCF842100021CCE90400CCF81800E4
:10A0400005E00CEBC102D064013182F85000032915
:10A05000F7D18D490120C1F800C0704701468A4AF6
:10A0600001201160704700BF87490968A1F84400CA
:10A07000704700BF84490968A1F84200704700BFDB
:10A08000E09B0020B0B5804D296891F84800C207D8
:10A090001CBF00F0FE0081F84800086900284C69E8
:10A0A00018BFA04224D0002C48618C611AD0A17D39
:10A0B000890717D5217A090714D5E189C289914208
:10A0C0000BD1618A428A914207D1218A028A914248
:10A0D00003D1A18A828A914204D0204602F036F947
:10A0E00028684069017A044601F09701283101721D
:10A0F00044B1207A810603D5204602F08FF9207AF8
:10A10000000700D4B0BD204601F0FAFD204602F061
:10A11000F4F82046BDE8B04001F0C4BD00284FF07F
:10A12000FF0C18BF00293CD0DAB370B54FEA421CCF
:10A130004FF0000E0324002504E04E194C55C6F8DC
:10A140001CE02035AC45F8D102704FF0000C4160A6
:10A1500015490226C0F80A10C0F80EC04A4909681D
:10A160008A880029CD88A2F1010206724282A5F1F7
:10A17000010282824FF003020363827518BF2C3103
:10A18000C0E906C140F202210A4A0184112180F887
:10A1900022100749C0E909120F2180F82C10BDE8F0
:10A1A00070404FFA8CF0704700007DEFE09B00207C
:10A1B000FFFF1F00FFFF1084002802D0027A9207E1
:10A1C00001D4FF2023E0B0B5B0F80EC0028AA1F898
:10A1D00000C04A80837DB0F812E0848ADD07A1F8D0
:10A1E00004E0CC8009D00CF103050D800332AEF100
:10A1F00003054A808D80E51ECD809B07BDE8B040F9
:10A2000004D590F82C00104401304880002040B262
:10A210007047002802D0027A930701D4FF2004E09F
:10A22000816142F060010172002040B2704710B5B8
:10A23000002802D0027A930701D4FF2013E00B8993
:10A2400042F0600490F82CE00FFA83FC0472C161C4
:10A250000CF10102724505DB991C80F82C1004F00A
:10A26000BF010172002040B210BD000048B1017A68
:10A2700001F0970128310172034909680861002043
:10A2800000E0FF2040B27047E09B002010B5194C61
:10A29000104921600021C4E901010C20E160C4E9FA
:10A2A00004102046C4E90611FDF710FB20B10A484E
:10A2B00040F24D1101F05EFB20682021016201682F
:10A2C00041F02001016010210162016841F010019C
:10A2D000016010BD004800403976010810B5054CFA
:10A2E0000549204601F0B4FA2046BDE81040FDF7CC
:10A2F00017BA00BFA0A40020B4020020D0F81812A2
:10A3000019B10020C1F81402704702207047B0B59F
:10A310000446D0F8185200F0E1FAD4F818120029D7
:10A32000C5F80C0209D0D4F81C0205F50371C26807
:10A33000D5F8040290470020B0BD0220B0BD000057
:10A34000B0B50D4D81210446A84701212046A847FC
:10A3500082212046A847D4F8180250B1D4F81C0234
:10A3600040688047D4F81802F6F7AFF80020C4F828
:10A3700018020020B0BD00BFA7A7000810B5D0F894
:10A380001C1269B1D0F8184294F80002FF2807D0D7
:10A3900094F801228B6821469847FF2084F8000238
:10A3A000002010BD0A22024902800846704700BF03
:10A3B000480100204322024902800846704700BF3E
:10A3C000C00000204322024902800846704700BFB7
:10A3D000040100204322024902800846704700BF62
:10A3E00054010020B0B50446007C8121022238B11E
:10A3F0004023204600F0C4FA01210222402308E055
:10A400004FF40073204600F0BBFA012102224FF402
:10A410000073204600F0B4FA82210322082320466C
:10A4200000F0AEFA4FF40770F6F720F80028C4F8F1
:10A43000180210D00546D4F81C020068804700209E
:10A44000C5F814020121C5F81802207CD5F80422B1
:10A4500018B1402303E00120B0BD4FF40073204643
:10A4600000F09AFA0020B0BD80B5D0F8181241B1C2
:10A47000027C002AD1F804224FF0010103D04023CE
:10A4800003E0022080BD4FF4007300F085FA002045
:10A4900080BD002903D0C0F81C12002070470220A4
:10A4A0007047D0F818220020C2F804127047D0F884
:10A4B00018320020C3F80812C3F8102270470000B9
:10A4C00070B50D460978044611F0600211D0202ABB
:10A4D00029D1EA88A2B10806D4F8186218D468789D
:10A4E000314686F80002204686F8012200F05CF82A
:10A4F00019E068780A2816D10C490122204610E09C
:10A50000D4F81C12002268788B68294698470AE024
:10A51000D4F81C1268788B6831469847EA88204640
:10A52000314600F05BF8002070BD00BF60050020E0
:10A53000D0F818229AB1D2F8141200294FF0010174
:10A540000ED180B5C2F814128121B2F81032D2F8BF
:10A55000082200F0B5FA0021BDE8804000E00221A9
:10A560000846704780B5D0F8142252689047002002
:10A5700080BD80B513460A46002100F00DFA002088
:10A5800080BD80B513460A46002100F099FA0020EC
:10A5900080BD10B58021044600F076FA00212046E7
:10A5A000BDE8104000F070BA80B50323C0F8F43164
:10A5B0001346C0F808210A460021C0F80C3100F00B
:10A5C000EBF9002080BD80B50521C0F8F411002111
:10A5D0000022002300F0E0F9002080BD80B50223B6
:10A5E000C0F8F431134682610A460021C36100F0CD
:10A5F00067FA002080BD80B50421C0F8F411002165
:10A600000022002300F05CFA002080BD10B52B4C26
:10A610000A4603A0214600F06DF8204610BD00BF99
:10A6200043444320436F6E6669670000122201486D
:10A630000A8070479801002010B5204C0A4603A0FC
:10A64000214600F057F8204610BD00BF4344432088
:10A65000496E7465726661636500000004220148FA
:10A660000A807047BC01002010B5144C0A4603A0B4
:10A67000214600F03FF8204610BD00BF53544D69FD
:10A6800063726F656C656374726F6E6963730000EB
:10A6900010B50A4C0A4603A0214600F02BF82046CC
:10A6A00010BD00BF53544D3332205669727475612A
:10A6B0006C20436F6D506F727400000064050020C1
:10A6C000B0B50A4A10681A23946800190B800BD0A1
:10A6D000074D5468A91C0822FDF704FB05F112017F
:10A6E00004222046FDF7FEFA0148B0BD00E8F11F44
:10A6F000C0010020B0B5002828D04FF0000C8646DD
:10A7000003E00CF1010C0EF1010E9EF80030002B5D
:10A71000F7D15FFA8CFC022505EB4C0EA2F800E0A5
:10A720004FF0030C81F800E04FF0010E09E0ECB2AD
:10A7300045F0010301300A5502355FFA83FE4FF000
:10A74000000C01F80EC00278002AF0D1B0BD000064
:10A75000032805D8C000034921FA00F0C0B27047B1
:10A760000220704700020102002811D0D0F81432F4
:10A7700013B10023C0F8143209B1C0F8101280B52B
:10A78000012180F8FC11027000F0ACF8002080BDBF
:10A790000220704780B5D0F82002F9F7C5FFBDE868
:10A7A0008040FFF7D5BF80B5D0F82002F9F796FFBB
:10A7B000BDE88040FFF7CCBFB0B5002904460BD000
:10A7C000D4F814024269002A46D094F8FC01032808
:10A7D00042D1204690473FE0D4F8F401022834D11A
:10A7E000D4E90710814208D9081A83B2E0612046F3
:10A7F00011461A46FFF7C5FE13E0A169814217D33F
:10A80000B1FBF0F202FB101090B9D4F8F8018142CC
:10A810000ED20021002220460025FFF7B2FEC4F828
:10A82000F851002100220023204600F0B5F80CE08A
:10A83000D4F81402C16829B194F8FC01032801D1AD
:10A84000204688472046FFF7BEFE94F80002012804
:10A8500002D1002084F800020020B0BD10B500290C
:10A8600004460AD0D4F81402826942B394F8FC0179
:10A87000032824D12046904721E0D4F8F40103288E
:10A880001DD1D4E9431081420CD9091A814238BF45
:10A89000084683B2C4F80C11204611461A46FFF749
:10A8A00068FE0CE0D4F81402016929B194F8FC01A7
:10A8B000032801D1204688472046FFF79CFE002050
:10A8C00010BD0020704780B5012180F8FC11D0F840
:10A8D0001422017952689047002080BDD0F82002F0
:10A8E000F9F753BF017879BB10B518490922C1F8AF
:10A8F0000404C0F820121648C1E900020220002218
:10A90000C1E90302C1E9060201200A62C1E9092086
:10A91000C1E90B020846FAF72FFB20B10D4840F2BF
:10A920005F1101F027F8094C80212046F9F78DFED0
:10A93000002140222046F9F78CFE0121802220468A
:10A94000F9F787FEBDE8104000207047949F002073
:10A95000000008405976010801F07F02D0F820027B
:10A96000C2EBC20200EB820000F13E02090658BFB2
:10A9700000F5FF7210787047002070470020704784
:10A9800080B59446D0F820021A466346F9F706FFD0
:10A99000BDE88040FFF7DCBE80B5D0F82002F9F7B3
:10A9A0002FFFBDE88040FFF7D3BEB0B500210022E5
:10A9B000402304464025FFF7E3FF8021C4F81051EF
:10A9C000002240232046FFF7DBFFD4F818120120B5
:10A9D0000029256284F8FC0105D0D4F814022179FD
:10A9E0004268204690470020B0BD90F8FD21014606
:10A9F000002081F8FC21704790F8FC11032907D151
:10AA0000D0F81412C96919B180B58847BDE88040F3
:10AA100000207047024600201174704780B5D0F8BE
:10AA20002002FAF767FBBDE88040FFF791BEB0B5A2
:10AA300000F502750446284600F04BF894F8080229
:10AA40000122B4F80E3200F01F01C4F8F4210229EB
:10AA5000C4F8F83107D001290AD071B92046294637
:10AA600000F05EF80EE02046294600F06FF909E09C
:10AA70002046294600F0D3F904E000F0800120468A
:10AA800000F002F80020B0BD80B5D0F82002F9F740
:10AA9000DAFEBDE88040FFF75BBE80B5D0F820024B
:10AAA000FAF743FBBDE88040FFF752BE014690F83D
:10AAB000FC01042281F8FD01002081F8FC2170478F
:10AAC00080B5D0F82002F9F7F5FEBDE88040FFF729
:10AAD0003FBE0A7802704A7842704A8842808A886B
:10AAE0008280C988C1807047002903D0C0F8141241
:10AAF0000020704702207047D0F81422002A07D0A7
:10AB000080B512689047002818BF0120400080BD22
:10AB10000220704780B5FFF7C0FF002080BD000015
:10AB2000BCB50D4649780446092900F2C780DFE824
:10AB300001F00517C524C55A76C5354594F8FC01C2
:10AB400000F0FE00022840F0B980D4F8040203228D
:10AB5000002808BF0122214641F80C2F0222D1E033
:10AB600094F8FC0100F0FE00022840F0A7806888FD
:10AB7000012840F0A680002004E06888012840F009
:10AB8000A0800120C4F804022946D4F81402826887
:10AB9000204690472046FFF72EFD92E0E8880128E6
:10ABA00040F08C8094F8FC0103284ED0022840F03D
:10ABB00085800020214641F8080F47E06888624DF3
:10ABC000C1B22870022980F0798094F8FC01032832
:10ABD0003ED0022840F072800029DBD00320616063
:10ABE00084F8FC013FE0A888002840F06780E888EE
:10ABF000002863D194F8FC0103285FD0A87800F006
:10AC00007F05204684F8FE512946FFF707FF2046BE
:10AC1000FFF7F1FC002D00F07980022077E06888D2
:10AC20004FF0FF3101EB1021062947D8DFE801F092
:10AC3000042F2246463B4400D4F81012207C0A68B8
:10AC40000DF106019047014650E0211D012259E017
:10AC5000002939D0606888429CD0C1B22046FFF7F5
:10AC600081FC297861602046FFF746FF02287FF4C7
:10AC700091AF23E0C0B2052820D8DFE800F0034BF5
:10AC800050555A5FD4F81012207C4A68D8E7207CCF
:10AC90000028D4F814020CBF816AC16A0DF10600C5
:10ACA0008847022220E0207C40B9D4F81402416B8E
:10ACB0000DF106008847C6E7207C70B12046FFF7FB
:10ACC00068FC002002B0B0BD022084F8FC01002026
:10ACD00060602046FFF746FC5CE7D4F81402016B85
:10ACE0000DF106008847072201464270BDF80600B4
:10ACF0000028E6D0EA88002AE3D0904238BF024616
:10AD0000ADF806202046FFF769FCDAE7012084F859
:10AD1000FC01D6E7D4F81012207C8A6890E7D4F8BA
:10AD20001012207CCA688BE7D4F81012207C0A69C4
:10AD300086E7D4F81012207C4A6981E7D4F8101213
:10AD4000207C8A697CE700BF61050020B0B50D4614
:10AD50000978044601F06001202907D1D4F81402D3
:10AD600029468268204690470020B0BD687829793E
:10AD700088B1012818D00328F6D194F8FC010328E3
:10AD800016D1688850BB41F08000802826D020462C
:10AD9000FFF77AFE22E094F8FC01032828D002286D
:10ADA00010D148060AD1DFE794F8FC0103280DD042
:10ADB000022807D141F080008028D5D02046FFF737
:10ADC00063FED1E72046FFF7E4FBCDE76888002863
:10ADD000CAD1480608D02046FFF7DCFCD4F814029C
:10ADE00029468268204690472046FFF704FCBBE7CF
:10ADF00001F07F0004EB001000F114050A0658BFB3
:10AE000000F582752046FFF7A7FD002818BF012036
:10AE10002860022220462946FFF7E0FBA4E7B0B5F0
:10AE2000044690F8FC01032804D188880D4610F0F0
:10AE3000FE0F04D02046FFF7ACFB0020B0BDD4F8D5
:10AE400014022946826820469047E8880028F4D1F9
:10AE50002046FFF7D0FBF0E780B591F800C04FF037
:10AE6000010E4B780CF00F02012B0EFA02F317D1F2
:10AE7000D0F81C281A4300F51063C0F81C284FEACC
:10AE80004C101A58120424D48A686FF3DF2291F808
:10AE900003E0C15842EA8C52114341EA8E4115E069
:10AEA000D0F81C2842EA034200F53063C0F81C28A1
:10AEB0004FEA4C101A5812040BD48A686FF3DF2241
:10AEC00091F803C0C158114341EA8C41024A114331
:10AED000C150002080BD00BF008000100146D0F8A6
:10AEE000000940F2FF729043C1F80009D1F8080848
:10AEF00000F00600042805D1D1F8000940F0030055
:10AF0000C1F80009D1F8040840F480720020C1F8AB
:10AF10000428704770B5069904460129049D16D18E
:10AF2000A06B194920F48030A063E06808400D99B7
:10AF3000E0600129E06820F44010E06003D1E0689F
:10AF400040F48010E060204600F020F810E0E06857
:10AF500040F040000A9EE060204600F017F8002E06
:10AF6000A16B02D021F4803101E041F48031A16372
:10AF7000012D07D1A16841F00801A160A16841F04D
:10AF80002001A16070BD00BFBFFFBDFF4FF0FF32C9
:10AF90000B4901328A4211D80369B3F1FF3FF8DC53
:10AFA000026942F0010202614FF0FF3201328A422F
:10AFB00004D80369DB07F9D10020704703207047EC
:10AFC0003F0D030080B5154800221549FFF7CCFB63
:10AFD00020B114484FF4067100F0CCFC0F48124920
:10AFE000FFF782FD20B10F484FF4077100F0C2FC5B
:10AFF0000A480E49FFF74DFA20B10A484FF408718C
:10B0000000F0B8FC0548FFF785FD30B105484FF466
:10B010000971BDE8804000F0ADBC80BDE49B00201C
:10B02000680000203976010888000020AC0100206B
:10B03000B0B50A784FF0010C49781A4D02F00F03B1
:10B0400001290CFA03F111D1D0F83C3800EB42127F
:10B050008B43C0F83C38144B63EA0101D0F81C382C
:10B0600002F510621940C0F81C1814E0D0F83C48F2
:10B0700000EB421224EA0141C0F83C184FF4803141
:10B080009940D0F81C3823EA010102F53062C0F87B
:10B090001C1805F17075106800EA050100201160A8
:10B0A000B0BD00BF007833EC0000FFFF80B5D0F8E2
:10B0B000041821F00201C0F804180320F8F79EFDDF
:10B0C000002080BD80B5D0F8041841F00201C0F81E
:10B0D00004180320F8F792FD002080BD2DE9F84FF9
:10B0E000DDF844900D468346DDF828A0DDE90C0824
:10B0F0004121002202E04BF8212001315029FAD1F0
:10B100005946B9F1000F51F8382F02D042F400121D
:10B110000EE022F40011CBF83810DBF8001041F0FB
:10B120004001CBF80010DBF8001041F080025946D6
:10B130000A600021CBF8001E0128DBF80018CBF8CC
:10B14000001806D1DBF80008002B18BF40F0010002
:10B1500003E0DBF8000840F00300CBF80008102102
:10B16000584600F043FA0646584600F02FFA30439E
:10B1700000210BF51062CBF810184FF67F33CBF897
:10B1800014180026CBF81C180DE04FF090471468F7
:10B19000002E08BF4FF0006707EAE477176001361A
:10B1A000116193602032B542EFD10BF5306100227E
:10B1B0004FF67F330026002818BF01200DE04FF026
:10B1C00090470C68002E08BF4FF0006707EAE4774D
:10B1D0000F6001360A618B602031B542EFD1DBF898
:10B1E0001018BAF1010F21F48071CBF8101810D1AA
:10B1F0001E49CBF830181E4ADBF830181143CBF843
:10B20000301800214BF8181F6FF080414BF8041CD8
:10B210000FE000214BF8181F6FF08041BAF1000FCA
:10B220004BF8041C05D1DBF8001041F01001CBF8FD
:10B230000010DBF800100F4AB8F1000F41EA0201DC
:10B24000CBF8001005D0DBF8001041F00801CBF876
:10B250000010B9F1010F05D1DBF80010064A1143C7
:10B26000CBF8001001B0BDE8F08F00BF00018000F6
:10B270000300010000383C80040000400146806863
:10B2800020F0010200208A607047000070B54B7802
:10B2900091F800C0012B21D1D1F814E000EB4C163D
:10B2A000BEF1000F354D344C06F51063D6F8106929
:10B2B0003AD035401D611D6925401D618D68AE4540
:10B2C00001D9AE464D611D6904F1005445F40025D5
:10B2D0001D6104EA0E041D692C4330E000EB4C10A4
:10B2E000254CD0F8103B6FF31203C0F8103BD0F898
:10B2F000103B6FF3DC43C0F8103B4B69002B00F5AB
:10B300003063886818BF4861012A1E6946F4002628
:10B310001E6104F1005600EA06001E6940EA0600BC
:10B32000186112D1C8680EE026401E614FF0000E71
:10B330001E6946F400261E611E6906EA0504012AFC
:10B340001C6109D1086900B158614FF004411868C7
:10B3500008431860002070BD1968BEF1000F41F06D
:10B3600004411960F6D00CF00F01012202FA01F13C
:10B3700000F63403EBE700BFFFFF07E00000F8FF33
:10B3800010B5036C134CA34203D3D0F8003B002B41
:10B390001EDB0023C0F8103B0129D0F8103B43F41A
:10B3A0000023C0F8103BD0F8103B43F01803C0F85E
:10B3B000103BD0F8103B43F0C043C0F8103B07D11E
:10B3C000C0F8142BD0F8001B41F08021C0F8001BFE
:10B3D000002010BD0B30544F4B780A78012B02D15E
:10B3E00000F5106001E000F530605201835823F44D
:10B3F00000138350C97801F0FE01022903D11158CE
:10B4000041F080511150002070474A780978012A94
:10B4100000EB411006D1002900F51061D0F80009B9
:10B4200006D10BE0002900F53061D0F8000B05D003
:10B43000002803DB086820F080400860086840F4BA
:10B44000001200200A6070477CB54B7891F800C06C
:10B45000012B2ED1D1F814E000EB4C14BEF1000FFB
:10B4600004F51063D4F8104949D06FF312041C613D
:10B470001C696FF3DC441C618C680EEB0405013D14
:10B48000B5FBF4F44C4D05EAC4441D692C437546E4
:10B490001C616FF3DF451C692C431C61CC78012CC7
:10B4A00038D11C6924F0C0441C611C6944F000546C
:10B4B0002FE000EB4C13D3F8105B6FF31205C3F8C9
:10B4C000105BD3F8105B6FF3DC45C3F8105B03F53A
:10B4D00030634C69002CD1F808C039D004EB0C055E
:10B4E000354E013DB5FBFCF5ACB206EAC5461D691B
:10B4F00004FB0CFC2E436FF3DF4C1E6130E06FF356
:10B50000DC441C611C6944F400241C611C696FF359
:10B5100012041C61012A01D10A6928E01C6844F068
:10B5200004441C60CC78012C38D1D0F80848E405DC
:10B530001D684FF0805458BF4FF000542C431C60DE
:10B540001FFA8EF3C9680092624600F04FF922E0BC
:10B550006FF3DF4C1D6945EA0C051D614FF4002CAB
:10B560001E69012A46EA0C061E6102D1CA6802B1B0
:10B570005A61C97801290AD1D0F80808C0051968AC
:10B580004FF0805058BF4FF00050084318601868C3
:10B5900040F004401860002002B070BDBEF1000F02
:10B5A000F9D00CF00F01012202FA01F1D0F8342891
:10B5B0001143C0F83418EEE70000F81F0146806818
:10B5C00040F0010200208A607047000010210F4AFD
:10B5D00001614FF0FF310131914204D80369DB066C
:10B5E000F9D4002070470320704700BF8901074A43
:10B5F000203101614FF0FF310131914204D80369DC
:10B600009B06F9D400207047032070473F0D0300CC
:10B61000D0F8080810F0060006D040F004010F2012
:10B62000062908BF0220704700207047406900F0DB
:10B6300001007047D0F81818D0F81C08084080B2F4
:10B640007047D0F81818D0F81C080840000C704754
:10B65000D0F810C801F00F02D0F8343800EB4110D8
:10B6600023FA02F2D0F80809D201D2B242EA0C0160
:10B670000840704700EB4111D1F8081BD0F81408BE
:10B68000084070474169806908407047033292085A
:10B690004FF4805C04E050F80C30013A41F8043B70
:10B6A000002AF8D108467047C268012922F0C0423A
:10B6B000C26003D069B94FF0804101E04FF0005102
:10B6C00080B5C2681143C1603220F8F797FA0020B4
:10B6D00080BD012070470246D0F8000820F4FE60CB
:10B6E000C2F8000801F07F00D2F8001841EA00110A
:10B6F0000020C2F800187047022A024634D12948B7
:10B70000294B0844984202D24FF470502EE027484B
:10B71000274B0844984202D24FF4605026E0254857
:10B72000254B0844984202D24FF450501EE0234863
:10B73000234B0844984202D24FF4405016E021486F
:10B74000214B0844984202D24FF430500EE01F487B
:10B750001F4B0844984202D24FF4205006E01D4887
:10B760001D4B084498420AD24FF41050D16821F47E
:10B770007051D160D16801430020D16070471748F3
:10B78000174B0844984202D24FF40050EEE7154898
:10B790000144154B4FF4C050994238BF4FF4E0506C
:10B7A000E4E700BF405327FF00350C00401E1BFF9D
:10B7B00040420F0000DC0BFF804F1200808CF9FE2E
:10B7C00020D6130060B6E5FE60E3160000D3CEFE7F
:10B7D00040771B00C05BB3FEC091210000CA91FE00
:10B7E00020753800E05459FEE09C4100DDF800C0AF
:10B7F000BCF1000F0CD103339B0800F5805C1203F1
:10B8000004E051F8040B013B42F80C00002BF8D186
:10B810000020704783B0C0B50DF10C0CACE80E00F1
:10B8200003AB024608484FF400610093F4F7FAFEB8
:10B8300081B24FF6FF70814202D00348F6F7F8FB61
:10B84000BDE8884003B07047640F0020FEE70000A9
:10B8500010B504460068C269920608D5406AC2B2B3
:10B860000846114605F028FC206820210162C169C4
:10B87000C90617D5426A10210B4A9042016218BFCF
:10B8800010BD0A4805F080FB02460948002A0280E4
:10B8900008D00648074905F091FB0120BDE810409B
:10B8A000F6F75CB910BD00BF00480040B4020020AC
:10B8B000A2030020E004002082B01CB5CDE90423DF
:10B8C00004AB0A460193044609488021F4F7AAFE16
:10B8D00082B24FF6FF70824205D0054942F21073E2
:10B8E0002046FCF726F8BDE81C4002B0704700BFB8
:10B8F0001CA7002000207047F0B587B00025044643
:10B900000695EFF3108072B6F8F78CFA07200195D0
:10B91000039002200290012004902020059001A8AD
:10B9200006A9F8F77DF918B11048492100F022F86E
:10B9300041F288300221F6F7E7FE00270B4E0C4D4E
:10B940000DE0226803202946F8F714FA20B15921A6
:10B95000304600F00FF801E0043504340137042FBD
:10B96000EFD3F8F7F1F962B607B0F0BDF471010852
:10B9700000001E08FEE70000F0B58BB00C464978C9
:10B980000546E669CA071CD0080605D520780122BD
:10B99000A27640F02000207030788A0705D4C207D4
:10B9A0000CD000F0FE02052002E040F0010204206D
:10B9B0003270227842F020022270A07601F0FE0060
:10B9C00060702078810640F1BD80010710D4707846
:10B9D000C00600F1B380B4F90800B4F90A10B4F954
:10B9E0000C20B4F90E30AF890097FEF7A5FAA5E058
:10B9F000400602D4307880077BD509A92846FEF797
:10BA0000DBFB208ABDF8241008442081608ABDF841
:10BA10002620A38AE78A104460815818B918A081AB
:10BA2000E18109B2B5F91420914200F38B8000B294
:10BA3000B5F91210884200F385802846214600F0AF
:10BA40004EFC707803273278C107B6F804C008BFEF
:10BA500001277188D207ADF81AC0ADF8181010D0C0
:10BA6000820709D441070CD5B6F808C0F188ADF8B3
:10BA70001AC0ADF8181004E0ADF81A10ADF818C0EF
:10BA80008C46C0060FD420896189A2893844E38995
:10BA90003944D21BCDF800C0DB1B00B209B212B290
:10BAA0001BB2FEF749FA208961893844ADF81000CD
:10BAB000C819A189ADF81200C81BE189ADF81400BE
:10BAC000C81B317CADF816008DF81C10F06803908F
:10BAD0004FF00210CDF81E007069029002A800F02D
:10BAE0001BFB2078214600F0BF002070284600F0A4
:10BAF000E7FB7778380721D43578FF0720896189FB
:10BB000005F00107A289E3890CD10625002F18BF93
:10BB10000825775B00B209B212B200971BB2FEF79C
:10BB200051F90BE000B2094D09B2074E12B21BB237
:10BB3000002F18BF3546009500F00AF8207800F075
:10BB4000DF0020700BB0F0BD88680108A068010814
:10BB50002DE9F04F85B00E9F16463C88B946074642
:10BB6000DFF81081501E009402B21D463846049240
:10BB70000B468B46C0470BF10100B9F802106A1E54
:10BB8000C246009104B20FFA82F8384621463A467E
:10BB90004346D047B9F80400294632460295009042
:10BBA00038462B46D047B9F8060059463246009031
:10BBB00030464346D047781CB9F80810D446B21E28
:10BBC00000910FFA80FA12B25046214603922346A2
:10BBD000E047AA1EB9F80A300BF10200254D0FFA12
:10BBE00082F9009301B25046524601914B46A84754
:10BBF0000E98414680894346049D009050462A464F
:10BC0000DFF870A0D047DDF838802146B8F80E0084
:10BC10002A464B4600902846D047B81CB8F810106A
:10BC2000F21E019F04B2009112B2204639463B46F3
:10BC3000D04702990BF10300CB1EB8F812201DB2B9
:10BC400001B20092204622462B46D047B8F8140095
:10BC500049464B4600902046039C2246D047B8F800
:10BC6000160039462246009020462B46D04705B0A4
:10BC7000BDE8F08F159E000880B590F800C0002246
:10BC8000D3B263450CD2D0F804E059011EF801107C
:10BC9000013201F003010329F2D10EEB431080BD04
:10BCA000002080BD2DE9F843144D4FF000090446F3
:10BCB000C5F8049027780220E8462870002618E08E
:10BCC000616842018A5C01EB4010009002F00301C0
:10BCD00002290DD1817E59B1C5F80480008BA5F8E9
:10BCE00001002846E970216B8847009880F81A9077
:10BCF0000136B0B2B842E3D3BDE8F8836417002040
:10BD00002DE9F0412E490968B1F90AE00B7A0EF1EC
:10BD10000102B1F90CC0B2FA82F2B3FA83F352090C
:10BD20005909037842EA0108002143E045686601A9
:10BD3000AE5D05EB44173C4606F04B0614F8015F78
:10BD40000A2E35D1B8F1000F06D06A0630D5AA0602
:10BD500023D445F0100526E06A06B7F9082005F05F
:10BD6000620658BF751D05F0DF06964512DBB7F970
:10BD70000C2096450EDCB7F90A2094450ADBB7F98A
:10BD80000E20944506DC45F020066A065CBF06F0EE
:10BD9000F902961C46F040050AE005F0FE0245EA6D
:10BDA000821242F00805EAB245EA921222F04605F4
:10BDB000257001318CB29C42B8D3BDE8F08100BF40
:10BDC000E09B00202DE9F04F87B0B028119F1C4662
:10BDD0000291154617D08146B52817D0B9F1C40F86
:10BDE00017D0B9F1D60F17D0B9F1DC0F17D0B9F1D0
:10BDF000E40F17D0B9F1FC0F17D0B9F1F60F16D137
:10BE00004FF0940913E04FF0F80910E04FF0E60905
:10BE10000DE04FF08E090AE04FF0990907E04FF06E
:10BE20009A0904E04FF0840901E04FF08109788914
:10BE30008145C0F06D81B989894500F26981B7F902
:10BE400006101FFA81FBBBF1000F00F061814FEA81
:10BE5000DB0601225FEA4B7318BF02EBDB063A698F
:10BE6000002A069603D0A9EB000312F803B0DFF80E
:10BE70007C86D8F8006096F86020109F9207CDF875
:10BE800014B04FD4119E3279012A00F0A880002A04
:10BE900040F03E81A9EB0000069AB6F90810424333
:10BEA00088B251430022019137E000920022DDE97F
:10BEB000013A24E03068002610F8039004920393BE
:10BEC00013E0D8F800005FEAC97103680FFA8AF03E
:10BED00029B201D13A4600E0224698474FEA590973
:10BEE0000AF1010AABF1010B0136072E02D85FEA15
:10BEF0000B40E6D1039B049A01330132119E90B2AC
:10BF000006998842D6D306980135019901443089B3
:10BF1000009A01910132DDF814B091B200B2814271
:10BF2000C3DBF5E0119988460989029800EB0B0202
:10BF3000F66D2944013A013912B20BB22946B047D5
:10BF400098F8041046460546012900F09A80002919
:10BF500040F0DE807089B6F90810A9EB000206985F
:10BF600001FB00F388B203FB02F10022049131E0EF
:10BF70004FF0000A03925E46DDF810B01BE0119806
:10BF80004FF00009006810F80B800BE05FEAC87002
:10BF900001D1384600E02046A8474FEA5808013E44
:10BFA00009F10109B9F1070F01D83004EED10BF105
:10BFB000010B0AF1010A1FFA8AF006998842DED3C2
:10BFC00006980499014411980089039A049101325A
:10BFD000DDF814B091B200B28142C9DB98E0A9EB60
:10BFE0000000B6F90820484391B200FB02F9E2B222
:10BFF00000230692FAB227F0FF07049224F0FF0212
:10C000000392CBF10002069C009235E04FF0000B4A
:10C01000DDF808A0019321E0316811F8091009F159
:10C020000109049BC1F58072039E53434E4314FBE8
:10C030000131C1F3072002FB07614FF47F42D8F8BA
:10C04000003002EA11211B684218119E0FFA8AF093
:10C0500029B298470AF1010A0BF1010B1FFA8BF183
:10C06000059A9142D8D3B6F906100135009A1144C9
:10C07000019B8944318901339AB209B28A42C5DBF6
:10C0800046E070895FFA84F8B6F908105FFA87FA1B
:10C09000A9EB0000B6F90620484389B2504324F0CA
:10C0A000FF0427F0FF07CBF10002002304922BE0EE
:10C0B0004FF0000906931BE0316800F1010B095CA9
:10C0C000C1F5807202FB0AF304FB01F618FB013193
:10C0D000C1F3072002FB07614FF47F42119E02EA81
:10C0E00011210844A84709F101095846DDF814B0A8
:10C0F0001FFA89F15945DFD3B6F90610049A1144A5
:10C10000069B0844318901339AB209B28A42CFDBD7
:10C1100007B0BDE8F08F00BF2DE9F04F87B0D0F831
:10C120000090B9F1000F00F0AA8004464068016851
:10C13000002900F0A480B4F90A20B4F90E10B0F977
:10C1400008708B1ABB42C0F29A8092B2A189B4F9EE
:10C1500018504FF0010B03924E46C2881FFA85FE1D
:10C16000B4F808800491217D0692BAB2B4F816A002
:10C17000029202E00BF1010B013696F800C0BCF10F
:10C180000A0FF7D0BCF1000FF6D111F0300FCDF847
:10C19000148011D01FFA8BF64FF0FF3212FA8BF297
:10C1A00006FB17336A434FF4803707EB0343C2EBB8
:10C1B00013431A0401D562E00023C1F300121BB23D
:10C1C00043FA02F2039BD718059AC2F10102049BBD
:10C1D00002EB030801F001020492C1F34001039154
:10C1E0000299714402912AE089B2039AC346DDF8AC
:10C1F0001480D140049A002A08BF884415E0668A5A
:10C200000FFA88F1238A3AB2CDE900602846FFF799
:10C21000D9FD60680269002A069902D04189691A2D
:10C22000515C08EB0A0202EB010809F1010919F857
:10C23000015C25B30A2DE2D10299D8460F444FF094
:10C24000000C4A460FE04689B3420CD381898B42E9
:10C2500009D80169069D00291CBF9B1BCD5C0CEB16
:10C260000A0101EB050C013212F8013C0BB10A2B5B
:10C27000E9D1AAEB0C01414409B20029B4DA07B0B4
:10C28000BDE8F08F70B590F800C00023002611E0E3
:10C290004468E55C05F00305022D09D104EB030EAB
:10C2A0009EF818408C4203D19EF81940944205D064
:10C2B000013620336645EBD34FF0000E704670BD5B
:10C2C000E0B503228DF8032002220B8B8DF80020AD
:10C2D000ADF801300191016B684688478CBDE0B52F
:10C2E00002228DF803200B8B8DF80020ADF8013071
:10C2F0000191016B684688478CBD2DE9F84390F8A1
:10C300000080814600271CE0D9F8041042018E5CB1
:10C3100006F00302022A13D101EB40156C78B00637
:10C3200003D56A6848462946904706F08800882861
:10C3300006D114F0410003D06A6848462946904768
:10C340000137B8B24045DFD3BDE8F8832DE9F047A7
:10C3500088B018B10446007A800701D4FF2058E065
:10C36000A07DB4F80E90278AC007B4F8128004D0DC
:10C3700009F103090337A8F103085C482A21006882
:10C380007D1E40690FFA89FAA0424FF0280004BFD1
:10C3900024202621625A205A0FFA88F694F82C108D
:10C3A000ADF814006818ADF8162003B2009239B247
:10C3B00050463246FDF7C0FDD4E90601CDE9010142
:10C3C00009F10300ADF80C00ADF80E7094F82C00E4
:10C3D000ADF8108094F822102844ADF812008DF8C2
:10C3E000181094F9200094F92110ADF81A0001A852
:10C3F000ADF81C10FFF790FE94F82C00324638443C
:10C4000001B249F61350009050460B46FDF702FD6D
:10C41000002040B208B0BDE8F08700BF2DE9F84326
:10C420000446B0F80E90007AB4F81080678A00F0E5
:10C43000DF01A68A000721720DD42C483AB20068A9
:10C4400033B2B0F846100FFA89F000910146FDF7BB
:10C4500073FDBDE8F883A07D490613D410F00101F7
:10C4600010D00FFA89F0204D0FFA88F100953AB2FA
:10C4700033B2FFF76DFBA07D09F1030908F1030852
:10C48000033F033E80070AD52046FFF75FFF207A6F
:10C49000410623D494F82C00404400F10108A589FA
:10C4A0000FFA89F00FFA88F13AB2009533B2FDF72E
:10C4B00043FD207800210CE063685701DF5D07F041
:10C4C0000B060A2E04D103EB421247F060031370EF
:10C4D00001318AB28242EFD3BDE8F88300F0BF0099
:10C4E0002072BDE8F88300BFB8680108E09B002017
:10C4F00000F00F02044B09011A44044BB0F1FF3F56
:10C50000C8BFC2181170704714ED00E000E400E0ED
:10C51000BFF34F8F05480168054A01F4E0611143FC
:10C520000160BFF34F8F00BFFDE700BF0CED00E0DF
:10C530000400FA052DE9F0472DED028B9946DDF850
:10C5400028800023054604E030F8137027B9013332
:10C5500002358B42F8D33AE001200646184488425F
:10C5600005D235F81600002806F10100F5D11A4869
:10C57000964298BF324600EA4200A8F80020A6F191
:10C58000010A06F0B4F8B8F8001001EE106AC9F814
:10C590000000002600EE101AB8EE400AB8EEC11AEC
:10C5A00080EE018A11E000EE106A35F8024BD9F8EE
:10C5B0000070B8EEC00A28EE000A00F0FFFE37F85F
:10C5C00010100136214427F810105645EBDDBDEC64
:10C5D000028BBDE8F08700BFFEFF010080B52DEDA6
:10C5E000088B30EE41BAB0EE40AAB0EE418AB0EE10
:10C5F000609A2BEE0B0A00EEA00A00F01DFFB0EED1
:10C60000401AB5EE400A9FED1E0AF1EE10FAB0EEA8
:10C61000402AB0EE403A03D089EE012A8BEE013A6F
:10C62000B6EE004A3AEE081A2BEE045A21EE041A2E
:10C6300029EE044A25EE033A24EE024A31EE435A2B
:10C6400031EE031A34EE052A35EE445A31EE443AFF
:10C6500034EE011A82FE054A83FE044A81FE044A32
:10C66000B5EE404AF1EE10FA07D082FE450A83FE8D
:10C67000400A81FE400A80EE040ABDEC088B80BDB2
:10C680000000000080B5FBF7E1F9002080BD00004C
:10C690007CB505468DF80710EFF3108072B614468E
:10C6A0004FF47A7625480DF10702009601232946BA
:10C6B000F7F772FE38B92148012329460096224631
:10C6C000F7F7D2FD20B14FF0FF3062B602B070BD77
:10C6D0000020FAE770B50726184D0E240136772E94
:10C6E0000ED80234EFF3108072B6A1B20A224FF4D2
:10C6F0007A732846F7F732FD002862B6EED100E0E3
:10C700000024204670BD00BFE0B584468DF80610B9
:10C710008DF80720EFF3108072B64FF47A71074856
:10C720000DF10602009102236146F7F735FE00285D
:10C7300018BF4FF0FF3062B602B080BD489F0020A6
:10C74000B0B504460020E0704FF0FF30E0622046B4
:10C7500004F092F908B10420B0BD94F82E0294F8C8
:10C760002F1240EA01204AF6552188421CD194F844
:10C770003000E92805D0EB2818D194F83200902831
:10C7800014D104F166000A4D03F0E1FE20F07F4071
:10C79000A84207D004F1820003F0D9FE05F14C5104
:10C7A000884203D10020B0BD0320B0BD0220B0BD3F
:10C7B000464154004FF0000C054A002305E0D158D3
:10C7C000814201D142F803C01033202BF7D17047CA
:10C7D000D803002042690239023A914204D24289C8
:10C7E000806A01FB02007047002070472DE9F0418C
:10C7F000884604680029074608D03846414601F0BB
:10C80000F3F9022809D20120BDE8F081E56815B1ED
:10C810006069854207D3012505E0411C1AD0616992
:10C820004546884231D32E4601366069864228BF8C
:10C83000022601D3022D0AD33846314601F0D4F93D
:10C84000411C22D050B101281FD0AE42ECD10020B3
:10C85000BDE8F0814FF0FF30BDE8F0814FF0FF32CE
:10C860002046314604F030FAB8F1000F014606D0F8
:10C8700029B920464146324604F026FA014631B134
:10C880000120012908BF4FF0FF30BDE8F081D4E955
:10C8900004010239E660884201D80138206120791C
:10C8A00040F0010020713046BDE8F08104494B683A
:10C8B00003F0010103F0020203F00403F5F724BCC6
:10C8C0008CA600204FF47A714843AFF30080B0B5D6
:10C8D000044605F0BBFE001941F10001841E61F120
:10C8E000000505F0B3FE201A75EB0100F9D2B0BDCA
:10C8F0002DE9F0470446C06900284FF0040612D025
:10C900008A46616901F120053E4A95420BD82F46BF
:10C91000D4F800906FF35F2747B109EB070065611A
:10C920003030002620623046BDE8F087A169013032
:10C930000029E0610ED0B9F80A00104400F5C000EB
:10C9400010EA552FE9D1204601F04EF902280AD20B
:10C950000226E8E7B9F80800B0EB551FDDD8002043
:10C96000E0610426DFE78046013023D0D9F81400C7
:10C97000804507D24846C4F818804146FFF72AFF91
:10C98000E061CAE7BAF1000FE9D0A1692046FFF7DC
:10C990002DFF80460130032808D21B4901EAC00060
:10C9A0001A4921FA00F0C0B2BDE8F087484605F008
:10C9B000E7FD08B10126B6E709F130004FF4007138
:10C9C000F4F76BF848464146FFF704FF4FF0000AC2
:10C9D00001260BE0484689F8036005F0D1FD0028E8
:10C9E000A1D1D9F82C000AF1010A0130B9F80A10D6
:10C9F000C9F82C008A45EDD3A0EB0A00C9F82C0039
:10CA0000B8E700BFFFFF1F00F8FFFF0001070200AB
:10CA100070B5044605680426E169F9B1284604F0BA
:10CA20002BF8C8B9206A0178D9B1C07A2E2900F054
:10CA30003F02A27118BFE52907D100212046002638
:10CA4000FFF756FF0028E7D006E00F2AF5D000F0E8
:10CA50001F000828F1D002E0064603E016B90026C0
:10CA600002E004260020E061F0B270BDB0B50546DA
:10CA7000046800F029F80DE0E969204603F0FCFFA6
:10CA800050B9286A007858B1E52809D00121284614
:10CA9000FFF72EFF0028EFD0042808BF072020B999
:10CAA000E969204603F0E8FF00B1B0BD286A202103
:10CAB000F3F7F3FF286A05F124010B2203F0D2FEFD
:10CAC0000120E0700020B0BD2DE9F04104468668E9
:10CAD0000020D4F80080002E606119D0B8F80A0058
:10CAE000002745020DE02046314601F07DF806465C
:10CAF00001302FD0022E2AD3D8F81400864226D235
:10CB00007F1BAF42EFD240463146FFF763FE0EE097
:10CB100098F80000032803D3D8F82460002EDDD154
:10CB2000B8F8080098B10027D8F82400002600289B
:10CB3000A661E0610BD000EB57206FF35F2708EB95
:10CB400007013031C4E907010020BDE8F08102206F
:10CB5000BDE8F0810120BDE8F08100001D490A5CBC
:10CB60000AB10020704701220A5401EB80020844F8
:10CB70005168007A09680847DFF858C00CEB800359
:10CB800060445B68007A1B69184700BF80B5DFF816
:10CB900044C00CEB800E6044DEF804E0007ADEF85E
:10CBA00008C0BDE8804060470A4901EB80020844A4
:10CBB0005268007A5168084780B5DFF818C00CEB5E
:10CBC000800E6044DEF804E0007ADEF80CC0BDE8B8
:10CBD000804060476C970020BEB004F099FAB0F135
:10CBE000FF3F40F3A48004F0C1FBB0F1FF3F40F3EE
:10CBF000AC80032004F0FAFBB0F1FF3F40F3B380B8
:10CC00000E2004F0C9FBB0F1FF3F40F3BA80644C42
:10CC10004A2364492046644AFEF74EFE63A120463B
:10CC2000FEF74AFE684C062104F10805284603F089
:10CC3000CEFC46F219400D95208064482146C4F888
:10CC40000200284603F0E3FC36ADB0EE088A002768
:10CC50004FF00A083AAE0DF1380B4FF6FF794FF45A
:10CC60007F4A63A44AE034970223DDE93601ADF838
:10CC7000D4000120ADF8D61001A9CDE90877CDE99F
:10CC80000A77009034AA0D980C9781E8810130460C
:10CC90002946CDE904870697079701F0ADFC25E00A
:10CCA0003046594603F099FCBDF98E00BDF9881055
:10CCB000BDF98A20BDF98C30CDE900090220CDE90B
:10CCC0000207284601F0B6F90A21B0EE480A0A2206
:10CCD00028462346CDE90877CDE900A8CDE90287AB
:10CCE000CDE904770697079701F01CFA304603F068
:10CCF000ACFC0028D4D12846FCF721F9FDF7C2F995
:10CD0000F7F78CF902200221FBF706F8284604F019
:10CD10008FFB0028A7D0224C612322492046224ABB
:10CD2000FEF7CAFD2AA12046FEF7C6FDFEE71C4D10
:10CD300004461C4932231C4A2846FEF7BDFD3F49E4
:10CD400028462246FEF7B8FDFEE7154D0446154974
:10CD50003823154A2846FEF7AFFD374928462246B4
:10CD6000FEF7AAFDFEE70E4D04460E493E230E4A8D
:10CD70002846FEF7A1FD28A128462246FEF79CFD85
:10CD8000FEE7074D044607494423074A2846FEF7B5
:10CD900093FD19A128462246FEF78EFDFEE700BF4F
:10CDA000A0A40020AF710108B771010852756E6E22
:10CDB000696E67206578616D706C655F66696E6429
:10CDC0005F626C6F62730A002003002028641464A1
:10CDD00073656E736F725F736E617073686F745F8B
:10CDE00073696D706C65206661696C6564210A0009
:10CDF00046696E640000000073656E736F725F7346
:10CE000065745F6672616D6573697A6520726574B9
:10CE100075726E2025640A0073656E736F725F739E
:10CE200065745F706978666F726D61742072657485
:10CE300075726E2025640A008071010898710108DE
:10CE40002DE9F04F89B016460890884608A807A932
:10CE5000002200F0B1FB00286ED1DDF81CB0C6F84E
:10CE600000B0DBE90406B11E88421AD99BF80050D5
:10CE7000012D1AD10226CDF808B0002402AF3846A1
:10CE8000314600F0B1FE20B1411C4AD0012801D149
:10CE900045E001340136DBF814008642EFD3002070
:10CEA00040E0C8F80000002046E0CDF804800BF117
:10CEB000300A0024DBF820904FF000080027B8F17A
:10CEC000000F0BD15846494603F0D6FD20BB9BF816
:10CED000005009F101094FF400785746022D0AD19C
:10CEE00038780222797840EA0120B0FA80F04009CF
:10CEF0006FF001010AE0384603F029FB20F0704092
:10CF0000B0FA80F040096FF003010422174488440E
:10CF1000013E0444D3D10020DDF8048002E0022069
:10CF200000E00120C8F80040CBF810409BF8041046
:10CF300041F001018BF8041009B0BDE8F08F2DE934
:10CF4000F04F8FB00E900EA801A9022200F034FB22
:10CF50000646019C0028029440F09A800E9902A88F
:10CF600000F070FC0646002808BF0826042E40F09A
:10CF70008F8002A800210026FFF738FC0028618975
:10CF800008BF07260128824608BF0226013008BFD5
:10CF900001264902002E059102D000F081FE72E0C8
:10CFA000204605F0EDFA064600F07AFE002E6AD122
:10CFB000804620465146FFF70DFC074604F13C0031
:10CFC0004FF4FA71F3F769FD2E25A14642F22000D5
:10CFD00009F8305FA4F839004FF02030C4F835006C
:10CFE0004146C4F83100102084F83B0004F14600AB
:10CFF00005F045FA20464946524605F034FA04F158
:10D00000500620223046494603F02CFC207884F854
:10D0100051500328049A03D1606A101A08BF0246CF
:10D020002046314605F01FFA60894FF0010B45425A
:10D030000DE02046E76284F803B005F0A1FA08BBD2
:10D040004FF4007148460137F3F727FD0135002DF5
:10D05000EFD102A8FFF70AFD0646A0B90A9E414695
:10D0600006F1160005F00BFA20463146524605F04F
:10D07000FAF91020F0720120E070204605F03CFA29
:10D08000064605E0064602A80022514603F0F3FEDC
:10D0900030460FB0BDE8F08FFEB50446CDE9011073
:10D0A00068460091154600F0EBFE002815DB0E499E
:10D0B00001EB80077E6826B13046FFF77BFB00203E
:10D0C000307064B10020012D20707C6009D101A86E
:10D0D00002A9002200F070FA03E00B2001E07C605E
:10D0E000002003B0F0BD00BFC4030020FEB500283F
:10D0F000029119D0044602A801A90022002700F0DD
:10D100005BFA054608BB019E20462660029900F0A6
:10D1100099FB0546B0B994F92F0000280BDBA079E4
:10D12000C00603D4052510E009250FE0216A30462A
:10D1300003F0FEF9A060F088A0802046FFF7C4FC51
:10D14000054630B1042D08BF05252760284603B0E9
:10D15000F0BDA06848B100212046002503F09AF9EF
:10D1600000282061F2D11225EFE700252561EDE7C7
:10D17000BCB50D4601A9044605F07CFA08B102B021
:10D18000B0BDADB12046FFF743FC0146043818BFDF
:10D1900008460028F3D12046294600F083FD0021EF
:10D1A0002046FFF7A5FB0146043818BF0846E6E70E
:10D1B0002046FFF789FCE2E710B58EB00C460D90D3
:10D1C0000DA801A9002200F0F7F980B90D9901A876
:10D1D00000F038FB58B99DF93300002806DB1CB17C
:10D1E00001A8214600F05EFD002000E006200EB000
:10D1F00010BD0000B5EEC00AF1EE10FA08DBF5EE46
:10D20000C00AF1EE10FA03DD80EE200A00F05AB8F1
:10D2100080B5B5EEC00AF1EE10FA0FDBF5EEC00AEC
:10D22000F1EE10FA0ADAB1EE400A80EE200A00F0C0
:10D2300049F89FED231A31EE400A80BDB5EEC00AD1
:10D24000F1EE10FA0DDAF5EEC00AF1EE10FA08DA96
:10D2500080EE200A00F036F89FED191A30EE010A30
:10D2600080BDB5EEC00AF1EE10FA0FDAF5EEC00A95
:10D27000F1EE10FA0ADDB1EE400A80EE200A00F06D
:10D2800021F89FED0E1A31EE400A80BDB5EE400A3E
:10D29000F1EE10FA02D19FED060A80BDB5EEC00A8C
:10D2A00004A0F1EE10FAC8BF043090ED000A80BD72
:10D2B00000000000DB0F49C0DB0F4940DB0FC94015
:10D2C000DB0F4940B0EEC01A9FED222AB4EEC21A1D
:10D2D000F1EE10FA06DDBFEE002A82EE011A9FED94
:10D2E000212A15E09FED1D2AB4EEC21AF1EE10FAC4
:10D2F0000CDDBFEE002AB7EE003A31EE022A31EE25
:10D30000031A82EE011A9FED162A01E09FED122A00
:10D3100021EE013AB5EEC00A9FED134A9FED135A74
:10D3200003EE045AF1EE10FA9FED114A03EE054A9E
:10D330009FED105A03EE045A23EE053A01EE031A4C
:10D3400032EE011AB1EE410AB8BFB0EE401AB0EEAB
:10D35000410A70477A821A4000000000CD13D43E83
:10D36000DB0F493FDB0FC93FD1F0A43D851B0EBE4B
:10D370005F924C3E2AAAAABEBEFEC00A10EE100A58
:10D38000704700009FED0B1A9FED0B2A00EE012A5B
:10D390004FF08042BCEEC20A10EE100A00F00041CD
:10D3A00002EBC00260F3D60102F0FF40084400EE39
:10D3B000100A704738AAB8494ABC7F4EBFFEC00A5F
:10D3C00010EE100A7047000080B500F007F89FEDDE
:10D3D000021A20EE010A80BD1872313F10EE100AC9
:10D3E0007E219FED102A61F3DF50B8EE400A9FEDD9
:10D3F0000E3A01EE100A9FED094A31EE022A83EE41
:10D40000022A9FED053A00EE034A9FED050A01EE60
:10D41000004A34EE020A7047000000347773F8C205
:10D4200075BFBFBFF944B43EA3E9DCBFBCFEC00A70
:10D4300010EE100A7047000010EE100AB6EE001A47
:10D440000C49B7EE084A20EE011AB0EE445AA1EB9F
:10D45000600002EE100A21EE023A03EE425A25EE77
:10D46000022A21EE021A02EE414A22EE041A21EEAD
:10D47000000A7047DF59375F2DE9F041A8B1DFF8A6
:10D4800034810330D8F8001020F0030636488C1B96
:10D490000068271FC56900F069F82844874208D34F
:10D4A000301D3860C8F8007000E000242046BDE858
:10D4B000F08100F029F800BFB0B50446FFF7DCFFAB
:10D4C00021460546F3F7E9FA2846B0BDF8B52649E6
:10D4D0000446384D09682E68CF6900F047F8384493
:10D4E000301A0438032802D80020206009E020F018
:10D4F00003012868401A21600431024642F8041DE5
:10D500002A6001B0F0BD00BF054C1C230549204630
:10D51000054AFEF7D1F905492046FEF7CDF900BFCF
:10D52000A0A40020AF710108AD770108247701089D
:10D530000448002200F5F8201E490860C1E90102F4
:10D54000704700BF00000024B0B51A4804680648C0
:10D550000068C56900F00AF82844201A0438042835
:10D5600038BF0020B0BD00BF000000200B4801689C
:10D570008869032806D8DFE800F006020C028868F4
:10D58000C9684843704788681F30C96840094843E4
:10D590007047D1E902014843400070470000002075
:10D5A0000448D0E90012914228BF70470A6811442C
:10D5B00001607047CC0300202DE9F04F85B00023B7
:10D5C00015460B600F4600F05BFC002817DBDFF808
:10D5D0006882064608EB8000446804B33C6005F0AE
:10D5E000FE05207868B16078FFF7DEFAC10708D140
:10D5F00040070A21002D18BF01EAE07573E00B25F2
:10D6000071E000202070F0B26670FFF7A7FAC10742
:10D6100007D145B110F0040005D00A2563E00C25C0
:10D6200061E003255FE0002120460025FFF788F830
:10D63000022820D101AE002537460BE0601990F892
:10D64000F21121B100F5FB7002F081FF00E0002033
:10D6500001C71035402DF1D1002756F8275035B1BC
:10D6600020462946FFF76CF8022801D209E0032082
:10D670000137042FF1D3042801D1012533E001281B
:10D6800030D894F83B0094F83C1040EA0120B0F503
:10D69000007F27D194F8460094F8471040EA012B08
:10D6A000BBF1000F04D104F1540002F050FF834697
:10D6B00094F84060C4F818B0701EA670012811D804
:10D6C00094F83D70002F67810CD0781E384209D144
:10D6D00094F8410094F8421040EA012A0007A4F8A7
:10D6E00008A004D00D25284605B0BDE8F08F94F8B9
:10D6F000430094F8441040EA012018B904F15000A6
:10D7000002F025FF94F83E1094F83F2041EA0222EF
:10D71000002AE7D00BFB06F101EB1A1313449842E1
:10D72000E0D3C01AB842DDD3B0FBF7F04FF00309E5
:10D730004FF6F677B84238BF4FF0020940F6F67759
:10D74000B84238BF4FF00109861CA81866615A1903
:10D75000E561B9F1030F2062A26210D194F85A007A
:10D7600094F85B1040EA0A0040EA01200028B9D191
:10D7700004F15C0002F0EBFE6062B0000FE0BAF171
:10D78000000FAFD00844B9F1020F606201D1700000
:10D7900005E006EB460006F0010101EB500000F247
:10D7A000FF10BBEB502F9DD34FF0FF308021E06086
:10D7B000B9F1030F2061217130D194F8600094F821
:10D7C000611040EA0120012828D1691C204603F09D
:10D7D00053F918BB94F82E02002294F82F122271EC
:10D7E00040EA01204AF65521884217D104F1300061
:10D7F00002F0ADFE1149884210D104F5057002F027
:10D80000A6FE0F49884209D104F5067002F09FFE7A
:10D81000206104F5077002F09AFEE06084F8009041
:10D82000B8F800000130A8F80000E0802046FEF7BC
:10D83000C1FF002557E700BFC403002052526141D9
:10D84000727241612DE9F84F0D46D0F80080044610
:10D8500000E0013528785C28FBD02F28F9D0002083
:10D86000A0602878202807D2802084F82F00204646
:10D87000BDE8F84FFFF728B904F12406DFF84CA102
:10D880004FF02030DFF848B144E03178E52904BF9B
:10D890000521317084F82F0020462768FFF714F91E
:10D8A00003E000212046FFF723F8E8B9E169384694
:10D8B00003F0E2F8C0B9206A0178002976D0C17A75
:10D8C00001F03F01A171C17A0907EAD40021425C4D
:10D8D0000A29735C03D09A4201F10101F7D09A4200
:10D8E000DFD194F82F1003E094F82F10002865D1B1
:10D8F000480766D4A079C00665D560694D446FF3CA
:10D900005F20404400F13001404602F011FEA0606B
:10D910004FF020304FF00009C6F807000822706071
:10D920000021306015F8093009F10109212B35D3A8
:10D930002E2B1FD05C2B18BF2F2B27D0914219D232
:10D9400058B2B0F1FF3F03DC0AEB030010F8803C53
:10D95000584610F8017B0FB19F42FAD117BBA3F1D3
:10D960006100C0B21A2838BF203B6018013180F82E
:10D970002430D7E70B2A4FF0060014D008212E2BB5
:10D980004FF00B02CED00EE009F1010915F80900A5
:10D990005C28F9D02F28F7D0002000E004200029CF
:10D9A0007FF473AF062001B0BDE8F08F94F82F101C
:10D9B00048074FF0040058BF0520F4E70428F2D1CF
:10D9C000F6E70020EFE70520EDE700BF1C3801086F
:10D9D0004A7601082DE9F84F054640780DF1030914
:10D9E000DFF8D4A5884613214A46D0476B7807460E
:10D9F0000DF1020210211846D0476B7840EA070467
:10DA00000DF1010208211846D0476A78044312211B
:10DA100010464A46D0479DF8031004434FF4107750
:10DA2000480658BF4FF44477687801F003060D218B
:10DA30004A46012E18BF0226D0479DF8031044EA3B
:10DA4000000B01F0C000B0FA80F25409402808BF72
:10DA50000424802808BF06246878BF294FF01101EC
:10DA600088BF08244A46D0479DF8031040EA0B00BF
:10DA70004A0604D47E2202EA4101023100E001217B
:10DA8000574AB2FBF1F1574A9DF8023077436143A0
:10DA9000B1FBF2F19DF8012043EA02227A43B2FB86
:10DAA000F1F1C8F8001001B0BDE8F08F2DE9F84F92
:10DAB000054640780DF10309DFF8FCB48846FF21E4
:10DAC0004A46D8476B7807469DF80310184641F040
:10DAD0000102FF21FEF718FE6A7840EA07061321CB
:10DAE00010464A46D8476B7806430DF102020421DE
:10DAF0001846D8476B7806430DF1010210211846ED
:10DB0000D8476B7806436A4645211846D8476A7855
:10DB10000643122110464A46D8479DF80310064393
:10DB2000002711F0700008BF40F28277402808BF3C
:10DB300040F2A647202868784FF0110108BF40F254
:10DB400053274A46D8479DF8031046EA00040226A8
:10DB5000080658BF01267E2000EA4101687801F1DD
:10DB6000020AFF214A46D8476B7804439DF8031008
:10DB7000184601F0FE02FF21FEF7C6FD6A7844EA6E
:10DB80000005DA2110464A46D8471549154A284368
:10DB9000B1FBFAF17143B1FBF2F19DF8032002F001
:10DBA0000C02B2FA82F35B095B00042A08BF01236E
:10DBB000082A9DF8012008BF02239DF800409DF827
:10DBC0000260920064F38F2206F003067B43324426
:10DBD0005A43B2FBF1F1C8F8001001B0BDE8F08F74
:10DBE000001BB70040420F00F8B5022930D305688A
:10DBF0000C46686988422BD9287803282BD0022844
:10DC00003AD0012824D104EB5407286A00EB5721AD
:10DC1000284602F031FFB0BB7E1C6FF35F27E81986
:10DC200090F83070286A00EB5621284602F024FF55
:10DC300048BB6FF35F26E20705EB060090F8300063
:10DC400047EA002108466FF31F3018BF080900E0BB
:10DC5000012001B0F0BD286A00EBD411284602F083
:10DC60000BFF80B904F07F0005EB8000303002F03C
:10DC70006EFC20F07040ECE7286A00EB1421284687
:10DC800002F0FAFE10B14FF0FF30E2E7E0B205EB30
:10DC9000400090F8301090F8310041EA0020D8E7B9
:10DCA00000207047B0B500224A720C46C16989B3A2
:10DCB0004FF0000E4FF02E0C00210B460A2B16D809
:10DCC000016ACA5C591C0B46202AF7D0052A08BFF6
:10DCD000E522092905D104EB0E030EF1010E83F8AC
:10DCE00009C004EB0E030EF1010E5A72E5E704EBD6
:10DCF0000E0100224A72056AE87A207205F11C00C2
:10DD000002F025FC206005F1160002F020FCE08006
:10DD1000000CA080B0BD000070B52DED047B054661
:10DD200040780E460DF107021321FEF7B1FC6B7827
:10DD300005460DF1060200211846FEF7A9FC9DF8E4
:10DD40000610B7EE002B05439FED191B01F00F03E2
:10DD500000EE103AC1F38012C1F34014C1F3001376
:10DD6000B8EEC00B02EBD11100EE012B2144194497
:10DD7000012202FA01F101EE101AB8EEC11AB7EE53
:10DD8000C20B20EE010AFFF71FFBB0EE408AB2EE95
:10DD9000040AFFF719FB88EE000AB3EE041A2846BE
:10DDA00020EE010A86ED000ABDEC047B70BD00BFC9
:10DDB000000000000000B03F2DE9F0412DED047B94
:10DDC000054640780DF107067B4C8846FF21324618
:10DDD000A0476B7807469DF80710184641F00102EE
:10DDE000FF21FEF791FC6A78074313211046324663
:10DDF000A0476B7847EA00050DF10602002118469E
:10DE0000A0479DF80610B7EE002B05439FED1A1BA7
:10DE100001F00F0300EE103AC1F38012C1F3401776
:10DE2000C1F30013B8EEC00B02EBD11100EE012BD1
:10DE300039441944012202FA01F101EE101AB8EE38
:10DE4000C11AB7EEC20B20EE010AFFF7BDFAB0EE21
:10DE5000408AB2EE040AFFF7B7FA88EE000AB3EE82
:10DE6000041A284620EE010A88ED000ABDEC047B66
:10DE7000BDE8F08100BF00BF000000000000B03F1F
:10DE80000268D2B1002302E03A2905D00133D15C07
:10DE90002129F9D2002112E01178A1F1300CBCF156
:10DEA000090F0AD8012B4FF0FF3108BFBCF1000F5A
:10DEB00005D1D11801310160ECE74FF0FF31084680
:10DEC000704700002DE9F0472DED0A7B07464078AA
:10DED0000DF10704384E91468A4613212246984692
:10DEE000B0477B7805460DF1060201211846B04780
:10DEF0007B7805430DF1050202211846B0477B7877
:10DF0000054301AA03211846B0477A7805436921E1
:10DF100010462246B0479DF8071045EA00079DF8D5
:10DF200005208907274C00EE102A24A158BF043190
:10DF3000B8EE400A91ED00AA80EE0A0AA047B2EEC0
:10DF4000049AB0EE408AB0EE490AA04788EE000A73
:10DF5000B3EE04BA9DF8040020EE0B0A8AED000A25
:10DF600000EE100AB8EE400A80EE0A0AA047B0EEB2
:10DF7000408AB0EE490AA04788EE000A9DF80600E4
:10DF800020EE0B0A89ED000A00EE100AB8EE400AF6
:10DF900080EE0A0AA047B0EE408AB0EE490AA047D8
:10DFA00088EE000A384620EE0B0A88ED000ABDEC28
:10DFB0000A7BBDE8F08700BF91C6000800008042E0
:10DFC00000000043C9D300087CB5044640780DF139
:10DFD0000705FF212A46FEF75BFB637806469DF89E
:10DFE0000710184601F0FE02FF21FEF78DFB627854
:10DFF00040EA0604C32110462A46FEF749FB2043A7
:10E0000002B070BD01468068032806D8DFE800F042
:10E0100006020D02086849684843704708681F30C7
:10E0200049684009484380007047D1E900014843EE
:10E03000400070472DE9F04F87B0139F1646DDF87A
:10E040004490002F8A461099054613D001EB06082C
:10E0500003EB0A040BE0574606E0284639463246F1
:10E060004B4602F0D7F90137A742F6DB01364645A9
:10E07000F1DB54E01298012851DB421ECDF818A0C4
:10E08000022792FBF7F25344029347080397AAEB47
:10E090005008D41804928B19CDF8148019460193B6
:10E0A000591EA6EB500702EB060AA1EB500B5618BF
:10E0B00011E02846CDF8009041463A46534604F018
:10E0C00086FC2846CDF8009041465A46334604F077
:10E0D0007EFC08F10108A045EBDB049A019802EBF5
:10E0E000000802980699013802EB010B0399A0EB96
:10E0F000010A059C161810E02846CDF8009021462C
:10E100005A463B4604F0D4FA2846CDF800905146D2
:10E1100032463B4604F0CCFA01374745ECDB07B00A
:10E12000BDE8F08F2DE9F84F2DED0E8B96B0329FA4
:10E130004FF4B47697FBF6F5DDF8D4C0B0EE408A24
:10E14000DDF8DC909CFBF6F4934605FB1677002F78
:10E15000B8BF07F5B4775A2504FB16C68846002ECB
:10E16000B8BF06F5B47697FBF5F796FBF5F607937F
:10E17000109007FB05FA06FB05F7369D002D149756
:10E18000AAF15A07B7FA87F74FEA5714AAF5877723
:10E19000B7FA87F74FEA5716AAF1B407B7FA87F725
:10E1A0004FEA57170ED0DFF84C0490ED000AB8EE96
:10E1B000C00A20EE080AFFF701F908F10101081A68
:10E1C000129001E0CDF84880DFF828043443B9F11B
:10E1D000000F46EA070647680BD000EE107AB8EE4B
:10E1E000C00A20EE080AFFF7E9F80BF10101A1EBE4
:10E1F000000B0120CDF83CB0B9F1000F18BF4FF073
:10E20000FF300890002CDFF8EC0301EE10AA006844
:10E2100018BF074600EE107A002D9FEDE42AB8EEF5
:10E22000C00AB8EEC11A149803EE100A349821EE11
:10E23000021A80EA0600B8EEC33A0990339820EE3D
:10E2400008BA23EE022A80EA06009FEDD93A81EE51
:10E25000039A80EA050082EE03AA0A904FF0FF308D
:10E26000B0EE080A18BF01200390012028EE00CA72
:10E27000002D18BF4FF0FF30129C04900020CDF805
:10E2800034B0A046DDF81CB021461394CDF814A09C
:10E290009BF80010002900F0A7810D2808BF0A296B
:10E2A00013D00D2918BF0A2913D1B0EE4B0A0C4622
:10E2B000FFF784F83099084408990D9A00FB012271
:10E2C00021460D924046CDF84C800BF1010B0846DB
:10E2D000DEE7A1F120005E28F7D8069100EB800070
:10E2E00031990029C34901EB8000CDF81CB014908E
:10E2F00065D1BAF15A0F18BFBAF5877F2CD114989F
:10E30000D0F804C0624621E0A2F1010E09987346DC
:10E31000ACEB0202002818BF134614980025C7185A
:10E32000036808375C1E9D420FDA0A980126002810
:10E330003978A4F1010018BF2C4606FA04F40C4207
:10E3400005F101050446EED003E07246012ADBDA4E
:10E3500035E000EE102A27E01498002100F1040CAB
:10E3600002681CE00A98CB430028084608BFD01872
:10E37000DCF80030012787405D1E00249C420DDA46
:10E380000998002804F1010018BF2C46149E013D95
:10E390003444247A27420446F0D003E0013191420C
:10E3A000E0DB0CE000EE101AB8EEC00A20EE080A1E
:10E3B000FFF704F80399139A00FB012213921498B3
:10E3C000D0F8049000EE109AB8EEC00A20EE08DAF9
:10E3D000B0EE4D0AFEF7F2FF04460D99022094FBC1
:10E3E000F0F0002608441190CDE90B4974E0149830
:10E3F000D0F800B000EE10BAB8EEC00A20EE080A5D
:10E40000FEF7DCFF00EE106A05460220349AB8EEF3
:10E41000C00AF14395FBF0F080EE08EA0E96002A60
:10E42000324618BF62180D99571813990FFA87F8DA
:10E4300000EB01094FF0000A48E0B0EE4E0AFEF78B
:10E44000BDFF00EE10AAB8EEC00A1499084480EE91
:10E45000080A067AFEF7B2FFC0435844012101FAC8
:10E4600000F0304230D04FF6FF70339980EA0A0056
:10E47000B0EE490A0029514618BF411913980844C3
:10E48000119BADF8560000B215A9ADF854700DF10E
:10E49000560401910E46009441464A4602F0CAFBDA
:10E4A000BDF95600B0EE4A0ABDF95410CDE9004658
:10E4B000129A0F9B02F0BEFBBDF95610BDF9542015
:10E4C00010982E9B01F0A6FF0AF1010A5545B4DC15
:10E4D0000E9E0136DDE90B49B44288DC319870B1FB
:10E4E000DDF814A0129CBAF15A0FDDF81CB0A0465A
:10E4F00018BFBAF5877F6FD1B0EE4D0A61E0DDF845
:10E5000014A0129CBAF5877FDDF81CB0A04618BF96
:10E51000BAF15A0F24D100201DE0099AC143002A04
:10E520000246494418BF0A46149B00271A441B6838
:10E530000832012B0EDB013B0A9E002E15781E4689
:10E5400008BF3E46012404FA06F62E4207F10107F1
:10E55000EFD003E001304845DFDB21E0881C2AE0F2
:10E5600014980068014619E04A1E0A9B002B1346C6
:10E5700008BF431A012707FA03F300274E46013E5E
:10E580000BDB099D002D354618BF3D46149C2544E4
:10E590002D7A01372B42F2D00CE011460129E3DA43
:10E5A000B0EE4C0AFEF70AFF0FE000BFDB0F494058
:10E5B00000003443481C00EE100AB8EEC00A20EEFA
:10E5C000080AFEF7FBFE2F9908440499139A00FBF2
:10E5D00001220699139278E6149890ED000AB8EE9D
:10E5E000C00A20EE08DA87E716B0BDEC0E8B01B04A
:10E5F000BDE8F08F0C4101082DE9F84F2DED0C8B93
:10E60000ADF52C7D0D4609686F680646CDE9A81763
:10E610000021CD9CA8A827929B46AA91FFF7F2FC67
:10E62000FEF74AFF002CAB9004D028684000FEF7AC
:10E6300023FF00E000201D90CE98002804D06868D9
:10E640004000FEF719FF00E000201C90A4A8A3A939
:10E650000C2201F07EFF9821304601F0B8FFC398EC
:10E6600001F064FF53A9B6EE00BA139601F17802E7
:10E670002095129201F17C02119201F17A0280310F
:10E68000109204460F919FEDE3AA0020CDF838B018
:10E69000069001F03CBDC3982146A1AA01F03EFFBF
:10E6A000A8680228059400F04184012801F0108137
:10E6B0000028DDF874C02DAC4FF0010541F01F8536
:10E6C0002798A646B0F90210B0F906004218104685
:10E6D0000D92501E00EE100AB8EEC0CA069805FA58
:10E6E00000F0149000F01CBC209A0C46B1FBFBF823
:10E6F0001168D268279B1F3117944909614302EBC7
:10E700008101B3F900201891A8991F31B3F90430A1
:10E71000490901FB04F09918AB9B4F1E00EE107ADB
:10E7200003EB800A08FB1B400C46B8EEC0DA8718E2
:10E73000CDE915A1EEE3781107F01F015AF820206A
:10E7400005FA01F31A4240F0E483189A52F82000C7
:10E75000C8409DF8841200F00100884202D2C4989B
:10E7600060B9D6E39DF885128842C4994FF0000045
:10E7700098BF01204840012840F0CB830020A649E3
:10E78000A64A199734E091ED000AB0EEC01A8DAF99
:10E7900080EE011A0EEB000679AC483121EE0D1A1D
:10E7A00081FE4D1A81FE0A1ABDEEC12AB6EEC11ACB
:10E7B00092ED003AB0EEC34A12EE103A483283EEC0
:10E7C000044A3B523B1824EE0C4A84FE4C4A84FE19
:10E7D0000A2ABDEEC24AB6EEC22A255023EE022A0C
:10E7E000043014EE107A00EE012A5F8086ED002AD4
:10E7F0005028C8D1BCF1000FDDF88090199C05D0DD
:10E80000D9F8000041006046F2F747F91C9820B1A2
:10E81000D9F804104900F2F740F90020DDF85CC097
:10E82000239000201E900020229000201B900020AA
:10E83000219000201A90002000251F904FF0000822
:10E840000020A2462490D9F800000CFB0CFE1F30DB
:10E85000A8994009D9F80C2000FB0CF01F31490998
:10E8600001FB0CF102EB800029906544AB986E002F
:10E8700000EB81002799B1F90090D3469DF88412EE
:10E8800028919DF8851225914FEA4C01269101218E
:10E89000CDE92BE112E0259A9142C49A4FF0000194
:10E8A00098BF0121514023D02B99654471442B918D
:10E8B000BB4626990E442C9901312C91CB4517DD8E
:10E8C000ABF101077C1107F01F0150F82430012241
:10E8D0008A4013420CD1299A52F8242022FA01F1DD
:10E8E000289A01F001019142D5D2C4990029DBD1C7
:10E8F0002799B1F90410CDF8A8C049444F1ED1465C
:10E9000013E0259A9142C49A4FF0000198BF01216B
:10E91000514025D02B99A14671442B9126990E4444
:10E920002A990D442C9901312C91B94518DA09F135
:10E9300001044FEA641C04F01F0150F82C2001234D
:10E940008B401A420CD1299A52F82C2022FA01F15C
:10E95000289A01F001019142D3D2C4990029D9D15A
:10E960000DF1B40C5946E646DDF8A8C00BE001F005
:10E970001F024B11012450F8237004FA02F23A43AB
:10E9800040F8232001314945F1DD09F1010000EE95
:10E9900010CA00FB09F0214AABF10101B8EEC00A30
:10E9A00001FB1B00022190FBF1F71B4926962C9ED0
:10E9B00000202895299762E091ED001AB5EE401AE3
:10E9C0004B46F1EE10FA08BF97FBF6F3B5EEC01A0E
:10E9D0000EEB0004F1EE10FAC8BF5B4602EE103AEF
:10E9E000B8EEC22A21EE021A92ED002A02EE001AB7
:10E9F00094ED002AB4EEC21AF1EE10FA12DA84EDA8
:10EA0000001A8DAC254604442B52A4F802C079AB01
:10EA1000012430E00000000068390108E06B0108C3
:10EA200000001008B4EE421AF1EE10FA24D18DACB9
:10EA300034F900C079AD27182E5806FB0C33741C2E
:10EA4000B7F9025093FBF4FC5346CA46D946F34645
:10EA5000DDF8A8E006FB05E6DE4696FBF4F6CB46BD
:10EA6000D1469A468DAB23F800C079ABDDF8A8C03B
:10EA70007E80299F2C9E1C500430483248315028FB
:10EA80009AD15846494603F026FD249908F1020818
:10EA900031442A9B24912199091821911A9941EB1B
:10EAA000E07107FB03F01A912299091822911B9932
:10EAB00041EBE07123981B912B99401823901E98ED
:10EAC00040EBE1701C991E9000291F9838441F905C
:10EAD00004D031F81300304421F813001D9A584631
:10EAE00032B907E032F81010013122F8101001306D
:10EAF0004845F7DD5C46CDF8B0B055461F460DF5EC
:10EB0000247A10E0504653A901F034FDBDF95001BC
:10EB1000BDF94C51BDF94E71BDF95291BDF9544149
:10EB2000BDF956B12C90504601F048FDA39988429A
:10EB300051D22798B0F902C02B95674553DD38466E
:10EB4000209A10687B1EA8991F301F312997400911
:10EB5000D2684909AB9F58439DF885E201FB03F554
:10EB60009DF88412A2462A9302EB800207EB8507E8
:10EB7000264616E07045C49B4FF0000098BF012068
:10EB8000584040F098802C98B0EB0A0018BF012044
:10EB9000B9EB0A0318BF012303EA0004A0440AF1F9
:10EBA000010ACA4525DC4FEA6A140AF01F0057F82B
:10EBB0002450012383401D4201D00024EEE752F887
:10EBC000243023FA00F000F001008842D2D2C49829
:10EBD0000028D8D06FE02C98A9EB000008EB40008B
:10EBE00000F1020860E009F101002C99401A80440C
:10EBF00003E00DF5247A299F34462798B0F90600E2
:10EC000060440138874248DA209A46461068B84680
:10EC10001F30D2680137AB9B40092A9700FB07F1F0
:10EC2000A8981F309DF884E240099DF885C24743AB
:10EC3000299402EB810103EB8703012014E067456F
:10EC4000C49F4FF0000298BF01227A404BD12C9A0A
:10EC5000B2EB0B0218BF0122B9EB0B0718BF01275B
:10EC600017403E440BF1010BCB451CDC4FEA6B1700
:10EC70000BF01F0553F8274000FA05F2144201D0AB
:10EC80000027EEE751F82720EA4002F00107774518
:10EC9000D5D2C49A002ADAD025E009F101002C99D6
:10ECA000401A804400E0B046504601F087FC00283E
:10ECB0007FF428AF34E02B9853A9ADF84C01299884
:10ECC000ADF84E012C98ADF850010AF10100ADF8F5
:10ECD0005291ADF85401A4A8ADF856B101F05CFC16
:10ECE000DDF8809018E02B9853A9ADF84C012C98D2
:10ECF000ADF84E81ADF850012998ADF85291ADF8BC
:10ED000054010BF10100ADF85601504601F044FCEE
:10ED1000DA46DDF88090B046289DDDF8A8C092E57F
:10ED2000C69824998142DDF838B0C0F0E980BDF87A
:10ED30003422BDF85C02BDF84A32BDF87212801A66
:10ED4000471CC81AC599451C15FB07F08842C0F03E
:10ED5000D7801F9E00EE106AB8EEC00ADDF890A0C2
:10ED600001EE10AAB8EEC11ADDF8A09002EE109ADA
:10ED700080EE018AB8EEC22ACDE92B2382EE019AF9
:10ED8000B0EE480AFEF752FBB0EE490A0446FEF721
:10ED90004DFB06FB04F1219B04FB0AF2A3EB4101AE
:10EDA000269B02FB04112A91911B229A464604FBE2
:10EDB000192201FB002800FB0AF1239A03FB102211
:10EDC00001FB0024502253A88DA9F1F734FE2B98A3
:10EDD000B0EE4A0AADF89C012C98ADF89E01ADF852
:10EDE000A071ADF8A2512A9DCDE969A61498A5425B
:10EDF0006B904FF001006C908DED6D8A8DED6E9AE9
:10EE00000ED04FEA480000EE100A281B01EE100A4F
:10EE1000B8EEC00AF8EEC10AFEF7ECF920EE0B0AD4
:10EE20008DED6F0A00EE105A01EE108AB8EEC00A9E
:10EE3000F8EEC10A01EE104AB8EEC11AFDF7CEFB9A
:10EE4000129C00208DED700AC4E900009DED691A46
:10EE50009DED6D2A9DED6E3A9DED6F0AA060B8EEB6
:10EE6000411A22EE012A23EE011A8DED742A8DED4E
:10EE7000751A04F0B3F99DED692A9DED6F1AB8EE8D
:10EE8000422A20EE020A8DED760AB0EE410A04F025
:10EE90004DFA9DED691A9DED702AB8EE411A1D9844
:10EEA0000028CD9A20EE010A209D22EE011A8DED58
:10EEB000770A8DED781A04D02988119B0094FDF70C
:10EEC00039FB1C9A002A139C07D0A988109800903F
:10EED0001046CE9A0F9BFDF72DFBCA9818B153A987
:10EEE000C99A904720B1204653A901F090FB07E052
:10EEF000729808B103F032FC739808B103F02EFC4D
:10EF00002DAC139EA646DDF874C00125DDE915A4DD
:10EF1000199F5F44A742FFF60EACC29817990144AF
:10EF20000D988142FFF6E0AB01F0E9B827982DACCF
:10EF3000B0F90280B0F9060000EB0801084607911D
:10EF4000481E00EE100A0121B8EEC0CA069801FA68
:10EF500000F0DDF874C0089000F0B4BCDDF88090DB
:10EF60004FF0010EB8FBFBF0D9F80010D9F80C20D7
:10EF7000279B01FB08F102EB4105A899B3F900209A
:10EF80001F31B3F90430490901FB08F12C901344F7
:10EF9000AB985F1E00EE107A00EB810A2C9800FB04
:10EFA0001B80B8EEC0DA8718CDE90B58CDE909A36C
:10EFB00000F083BC781107F01F015AF820000EFA08
:10EFC00001F1084240F0788435F817005FF8B01579
:10EFD00000EB40009DF88422095C8A429CBF9DF8AA
:10EFE000852291420DD85FF8C81508449DF9862204
:10EFF00090F901108A42DCBF9DF98722914240F3CB
:10F000003184C498002800F0578400205FF8F81578
:10F010005FF8F8250D9734E091ED000AB0EEC01AC4
:10F020008DAD80EE011A2618483121EE0D1A81FEB1
:10F030004D1A81FE0A1ABDEEC12AB6EEC11A92ED32
:10F04000003AB0EEC34A12EE103A483283EE044A58
:10F050002B522B1879AD24EE0C4A84FE4C4A84FEC8
:10F060000A2ABDEEC24AB6EEC22A45F800E023EEF7
:10F07000022A043014EE107A00EE012A5F8086ED39
:10F08000002A5028C8D1BCF1000F0D9D4C464FF00E
:10F09000010906D0216860464900F1F7FEFC4FF0F7
:10F0A00001091C9828B161684900F1F7F6FC4FF09E
:10F0B000010900201A9000201690002019900020CD
:10F0C0001590002018900020149000201790002028
:10F0D00000262B900020AA461B90C6462068764446
:10F0E00000FB0EF0E268A899750002EB40089DF85D
:10F0F00085221F319DF88402269249099DF98622B6
:10F1000001FB0EF7AB9B4FF0010C23929DF9872278
:10F11000279922929DF98822B1F9001021929DF938
:10F120008922299003EB87000EFB0EF31F924FEA12
:10F130004E022A9624922593CDF8B0A02C9A8A42AA
:10F140003DDD2C9A013A561102F01F0450F826605A
:10F1500009FA04F4264232D138F812605FF84047C9
:10F1600006EB4606299FA45DA7429CBF269FBC4292
:10F170000AD85FF854472644239F96F90140A742D6
:10F18000DCBF229FBC420CDDC49FC7B1259C0CF1A3
:10F19000010C2A9F2344249C774425442A972C92CF
:10F1A000CCE796F90240219EA642EDDC1F9EB442B8
:10F1B000C49F4FF00006D8BF01267E40E6D1279AB3
:10F1C00008F10208B2F90420D3466746CDF8A0E062
:10F1D000114401398C46E34542DA0BF10104611117
:10F1E00004F01F0250F8211009FA02F2114237D13F
:10F1F00038F81B105FF8D82701EB410112F801E045
:10F20000299A72459CBF269A96450AD85FF8F0273E
:10F210001144239E91F901209642DCBF229EB24206
:10F2200010DDC49900294FF00109DDF8A0E017D0E6
:10F23000259901370B4424990D442A9971442A9148
:10F24000A346C8E791F90210219A8A42E9DC1F9A85
:10F250009142C49A4FF00001D8BF01215140E2E72A
:10F260002C990DF1B40C29930AE001F01F024B1107
:10F2700009FA02F250F82360324340F823200131AA
:10F280005945F2DD0BF101002C9A00FB0BF000EE6A
:10F2900010EA511E219501FB1200022190FBF1F8AA
:10F2A000B8EEC00A5FF890185FF89028CDF878A003
:10F2B00000205CE091ED001AB5EE401A5B46F1EEDD
:10F2C00010FA08BF98FBF7F3B5EEC01A2C9CF1EECC
:10F2D00010FAC8BF234602EE103A0CEB0004B8EE59
:10F2E000C22A21EE021A92ED002A02EE001A94EDD3
:10F2F000002AB4EEC21AF1EE10FA0BDA84ED001A0D
:10F300008DAC254604442B5279ABA4F802E043F8B7
:10F31000009029E0B4EE421AF1EE10FA24D18DAC3F
:10F32000DDF8A090DA46E346A446245EBE460CEB28
:10F33000000779AD2E58B7F9025006FB0433741C50
:10F3400006FB05964FF0010993FBF4F396FBF4F6E8
:10F350002CF80030DC467E80D346DDF878A0774676
:10F36000DDF8A0E079AB1C50043048324831502819
:10F37000A0D12C98594603F0AEF83A461B99114497
:10F38000289F1B91189909182B9B189103F10203D0
:10F39000149941EBE07108FB07F0149119990918D1
:10F3A0001991159941EBE0711A9815912999401816
:10F3B0001A90169840EBE1701C9916900029179846
:10F3C0004044179004D031F81700104421F817007A
:10F3D0001D9A002A2C98209C2B9306D107E032F826
:10F3E0001010013122F8101001305845F7DD2C982B
:10F3F0005646054629900DF5247A269712E0504688
:10F4000053A901F0B7F8BDF94E01BDF94C61269042
:10F41000BDF95001BDF952B12990BDF95601BDF9B0
:10F4200054512C90504601F0C9F8A39988426ED2ED
:10F43000CDE923652798B0F90220269F97426FDD1A
:10F44000A89B013F03F11F062068D4F80CC0740983
:10F45000784322927C43AB9D9DF884120CEB4000D4
:10F460009DF8852205EB84099DF986329DF987E296
:10F4700028979DF988829DF98972DDF890A02B9ECE
:10F480002597DA4553DC4FEA6A170AF01F0559F849
:10F490002770012404FA05F52F4201D0002425E04D
:10F4A00030F81A705FF8884A07EB470C2B9614F86F
:10F4B0000C40A14298BF944208D85FF89C4A64442B
:10F4C00094F90170BB42D8BF774513DDC49F002F6C
:10F4D0002B9E40F0AC80299FB7EB0A0718BF01278D
:10F4E000BBEB0A0518BF012505EA070426440AF10B
:10F4F000010AC6E794F90270B845E7DC259EB742D9
:10F50000C49D4FF00007D8BF01276F40E0E729985E
:10F51000ABEB00002B9901EB400002302B907FE019
:10F520000BF101002999401A2B9E064404E0209C0F
:10F530000DF5247A269F229A2798B0F906001044E8
:10F540000138874264DAA89A0137216802F11F0363
:10F550002B9601FB07F65D09D4F80CC028976F4382
:10F56000AB9C0CEB46059DF8840204EB87069DF8E6
:10F5700085129DF986229DF987329DF988E29DF9D1
:10F5800089C22C9C5C454ADC2C9F4FF001097C1100
:10F5900007F01F0756F8244009FA07F73C4201D04C
:10F5A000002421E02C9C35F81440DFF8587E04EB51
:10F5B00044043F5DB84298BF8F4208D8DFF8447ECC
:10F5C0003C4494F90170BA42D8BF9F4213DDC49CF9
:10F5D000002C43D1299C2C9FE41B18BF0124BBEBBA
:10F5E000070718BF01273C402B9F27442C9C013460
:10F5F0002B972C94C5E794F90240A645E7DC6445B7
:10F60000C49F4FF00004D8BF01247C40E2D025E025
:10F610000BF101002999401A06442B9600E0209C2A
:10F62000504600F0CBFF00287FF4E9AE34E0239889
:10F6300053A9ADF84C012698ADF84E012998ADF8C4
:10F6400050010AF10100ADF852B1ADF854012C9807
:10F65000ADF85601A4A800F09FFF16E0239853A927
:10F66000ADF84C012698ADF84E012998ADF850013F
:10F6700024982C9CADF852B1ADF85401601CADF843
:10F680005601504600F088FFA246209C4FF0010929
:10F690002A9EDDF8A0E021E5C69827461B99814205
:10F6A000C0F0FC80BDF83482BDF85C02BDF84AB2FF
:10F6B000BDF87212A0EB080000F1010AA1EB0B00EB
:10F6C000C599451C15FB0AF08842C0F0E780DDF8BB
:10F6D0005C9000EE109AB8EEC00A1B9F01EE107A03
:10F6E000B8EEC11A2A9E02EE106A80EE018AB8EEC8
:10F6F000C22A82EE019AB0EE480AFDF797FEB0EEFC
:10F70000490A0446FDF792FE09FB04F1189B04FB2D
:10F7100007F2A3EB4101219B02FB04112C91A2EB08
:10F720000901199A04FB162201FB002600FB07F1D0
:10F730001A9A03FB102201FB0024502253A88DA922
:10F74000F1F779F92B98B0EE4A0AADF89C81ADF843
:10F750009EB1ADF8A0A1ADF8A2512C9D6997A5422C
:10F760006A9008986B904FF001006C908DED6D8A57
:10F770008DED6E9A0DD0700000EE100A281B01EE80
:10F78000100AB8EEC00AF8EEC10AFDF733FD20EE0C
:10F790000B0A8DED6F0A00EE105A01EE106AB8EEFA
:10F7A000C00AF8EEC10A01EE104AB8EEC11AFCF721
:10F7B00015FF129C00208DED700AC4E900009DED3C
:10F7C000691A9DED6D2A9DED6E3A9DED6F0AA06060
:10F7D000B8EE411A22EE012A23EE011A8DED742AA9
:10F7E0008DED751A03F0FAFC9DED692A9DED6F1AF7
:10F7F000B8EE422A20EE020A8DED760AB0EE410AFA
:10F8000003F094FD9DED691A9DED702AB8EE411A42
:10F810001D980028CD9A20EE010A209F22EE011AA1
:10F82000CA9D8DED770A8DED781A04D03988119B29
:10F830000094FCF77FFE1C9A002A139C07D0B9881D
:10F84000109800901046CE9A0F9BFCF773FE25B1DE
:10F850002846C99A53A99047C0B1204653A900F041
:10F86000D6FE1BE090F902009DF9881281423FF715
:10F87000C8AB9DF989128842C4994FF00000D8BFE7
:10F880000120484001283FF4C0AB15E0729808B150
:10F8900002F064FF739808B102F060FF139E2DAC74
:10F8A000DDF874C04FF0010EDDF838B0B946DDE97F
:10F8B0000B58DDE909A30D9F5F449F42FFF67AAB29
:10F8C000C298804407988045FFF648AB00F017BC0B
:10F8D00027980125B0F902202DACB0F90600A64604
:10F8E000811808460991481E00EE100AB8EEC0CAF9
:10F8F000069805FA00F0DDF874C00A90FBE3B2FB4D
:10F90000FBFA279BA899B3F90070B3F904301F31B3
:10F910004909209CD819AB9B5143D4F80080461E5E
:10F9200000EE106A03EB810115910AFB1B23E168CD
:10F93000B8EEC0DA0D9208FB0214024603EB07088A
:10F94000CDE90B40D0E34FEA6810159B08F01F018A
:10F9500053F8200005FA01F1084240F0C48314F87E
:10F9600008009DF88412814202D9C49860B9BAE3B4
:10F970009DF885128842C4994FF0000098BF01207D
:10F980004840012840F0AF830020DFF8801ADFF8FC
:10F99000782A34E091ED000AB0EEC01A8DAF80EE07
:10F9A000011A0EEB000679AC483121EE0D1A81FEEA
:10F9B0004D1A81FE0A1ABDEEC12AB6EEC11A92EDA9
:10F9C000003AB0EEC34A12EE103A483283EE044ACF
:10F9D0003B523B1824EE0C4A84FE4C4A84FE0A2A11
:10F9E000BDEEC24AB6EEC22A255023EE022A0430EA
:10F9F00014EE107A00EE012A5F8086ED002A50286E
:10FA0000C8D1BCF1000FDDF8809005D0D9F8001006
:10FA100060464900F1F741F81C9820B1D9F804106C
:10FA20004900F1F73AF800200D9E1F900020199030
:10FA300000201E900020189000201B90002017909E
:10FA40000020299000201A9000202C900020219066
:10FA5000CDF85080A89806FB06FE1F30AB994009F0
:10FA6000D9F800307043D9F80C70279AC34601EBDF
:10FA700080009DF88512299D23917100B2F900C084
:10FA800035449DF884424FEA45092A960122CDE982
:10FA9000243103FB06711697299171462B9210E0D1
:10FAA000239A00239245C49A98BF0123534020D043
:10FAB000259A714491442A9A15442B9A01322B922B
:10FAC000B346E34515DDABF101062746741106F098
:10FAD0001F0350F82440012202FA03F31C423C4663
:10FAE00007D1299A12F806A05445D9D9C49A002AF8
:10FAF000DED1CDF89890C146CDE92815279AB2F904
:10FB000004302A9D24996344169AA3F1010A05FB47
:10FB10000126711C249115E0239900228C45C49B79
:10FB200098BF01225A4023D02899B14671442891A8
:10FB3000DDE925120A442692299A2A4429922B9A11
:10FB400001322B92D14513DA09F10106731106F047
:10FB50001F0250F82330012707FA02F2134207D19F
:10FB6000249911F809C06445D6D9C49A002ADBD17A
:10FB70005946DDF8ACA00DF1B40C4FF0010E0AE0CF
:10FB800001F01F024B110EFA02F250F823603243CB
:10FB900040F8232001314945F2DD09F1010000EE72
:10FBA000105A00FB09F0DFF86028ABF10101B8EE54
:10FBB000C00A01FB1B00022190FBF1F7DFF84C1893
:10FBC000CDF888B0002057E091ED001AB5EE401A4C
:10FBD0004B46F1EE10FA08BF97FBFAF3B5EEC01AE8
:10FBE0000CEB0006F1EE10FAC8BF5B4602EE103ACD
:10FBF000B8EEC22A21EE021A92ED002A02EE001A95
:10FC000096ED002AB4EEC21AF1EE10FA09DA8DACC4
:10FC100086ED001A2618235279AB758043F800E070
:10FC200027E0B4EE421AF1EE10FA22D18DACDDF8E5
:10FC3000A8A0BB46265E2718E646B7F90250A446A0
:10FC400079AC245804FB0633661C04FB05A5DDF8DB
:10FC5000ACA093FBF6F395FBF6F52CF80030F446D8
:10FC60007D804FF0010E2A9D5F46DDF888B079ABAC
:10FC70001E500430483248315028A5D158464946D4
:10FC800002F029FC2199514421911B9909181B91DB
:10FC9000179941EBE071179107FB05F02C990231A0
:10FCA0002C911E9909181E91189941EBE0711F982B
:10FCB0001891289940181F90199840EBE1701C99F1
:10FCC000199000291A9838441A9004D031F8150078
:10FCD000504421F815001D9A584632B907E032F811
:10FCE0001010013122F8101001304845F7DD5F4651
:10FCF0002C9EDA462B9544460DF5247810E04046BC
:10FD000053A900F037FCBDF94E01BDF94C41BDF9D6
:10FD100050A1BDF95291BDF95471BDF956B12B9066
:10FD2000404600F04BFCA39988424CD22798B0F98A
:10FD300002C02B9B63454CDDA899013B1F312A94DF
:10FD40004909209A3C46106801FB03F7D268AB9D35
:10FD5000A0469DF884129DF885E22C961E4600FB75
:10FD6000032305EB8700274616E07245C49D4FF03C
:10FD7000000298BF01226A4040F08A80BAEB080274
:10FD800018BF0122B9EB080518BF01252A402C9C99
:10FD900008F1010814442C94C84520DC4FEA68128D
:10FDA00008F01F0550F82220012404FA05F52A4224
:10FDB00001D00022EBE713F808209142D5D9C49A6C
:10FDC000002ADBD064E0A9EB0A0006EB4000861CA9
:10FDD00057E009F10100A0EB0A00064404E02C9E64
:10FDE0000DF52478DDE92A432798B0F90600604430
:10FDF0000138834240DAA898A6461F3020995C1C3F
:10FE00000A684009CB6800FB04F59DF88402BC46F3
:10FE1000AB9F9DF8851202FB04322A9407EB850301
:10FE2000012413E08D42C49D4FF0000798BF0127C5
:10FE30006F4044D1BAEB0B0718BF0127B9EB0B0594
:10FE400018BF01253D402E440BF1010BCB4518DCBA
:10FE50004FEA6B170BF01F0553F8277004FA05F5EE
:10FE60002F4201D00025EEE712F80B50A842D9D955
:10FE7000C49F002FDED022E009F10100A0EB0A00B0
:10FE80000644404600F09AFB00287FF438AF2FE08C
:10FE90002A9853A9ADF84C012B98ADF84E0108F102
:10FEA0000100ADF850A1ADF85291ADF85401A4A8ED
:10FEB000ADF856B100F070FBDDF88090CAE52B98E4
:10FEC00053A9ADF84CE1ADF84E010BF10100ADF8CE
:10FED00050A1ADF85291ADF854C1ADF8560140466D
:10FEE0002C9600F059FBD846DDF880902A9EB1E5AB
:10FEF000C698219981422C96C0F0EA80BDF83482E0
:10FF0000BDF85C02BDF84A92BDF87212A0EB080081
:10FF1000451CA1EB0900C599461C16FB05F088425B
:10FF2000C0F0D680DDF868A000EE10AAB8EEC00AD6
:10FF3000DDF884B001EE10BAB8EEC11A299F02EEC6
:10FF4000107A80EE018AB8EEC22A82EE019AB0EEF3
:10FF5000480AFDF76BFAB0EE490A0446FDF766FA67
:10FF60000AFB04F11B9B04FB0BF2A3EB4101269B54
:10FF700002FB04112B91A2EB0A011E9A04FB17222B
:10FF800001FB002700FB0BF11F9A03FB102201FB72
:10FF90000024502253A88DA9F0F74DFD2C98B0EE07
:10FFA0004A0AADF89C81ADF89E91ADF8A0512B9D09
:10FFB000ADF8A261A542CDF8A4B16A900A986B9001
:10FFC0004FF001006C908DED6D8A8DED6E9A0DD025
:10FFD000780000EE100A281B01EE100AB8EEC00AE5
:10FFE000F8EEC10AFDF706F920EE0B0A8DED6F0A57
:10FFF00000EE105A01EE107AB8EEC00AF8EEC10A0F
:020000040801F1
:1000000001EE104AB8EEC11AFCF7E8FA129C002083
:100010008DED700AC4E900009DED691A9DED6D2A11
:100020009DED6E3A9DED6F0AA060B8EE411A22EE8A
:10003000012A23EE011A8DED742A8DED751A03F055
:10004000CDF89DED692A9DED6F1AB8EE422A20EE9B
:10005000020A8DED760AB0EE410A03F067F99DEDD4
:10006000691A9DED702AB8EE411A1D980028CD9AA4
:1000700020EE010ACA9D22EE011A8DED770A8DED60
:10008000781A05D020990988119B0094FCF752FA40
:100090001C9A002A139C08D0209881881098009000
:1000A0001046CE9A0F9BFCF745FA25B12846C99A0F
:1000B00053A9904720B1204653A900F0A8FA07E0C1
:1000C000729808B102F04AFB739808B102F046FB3F
:1000D0002DACDDF874C0A646DDF838B00125DDE9A9
:1000E0000B42DDF85080D8449045FFF62CACC29806
:1000F0000D9A0244139E09988242FFF600AC0698BE
:1001000001300690059800F00FFA0446209D002C5F
:100110007EF4C1AAA4A800F04CFA1C9808B1FDF71F
:100120003FFA1D9808B1FDF73BFAFDF739FAC79879
:10013000002800F05F812DA8DFF8D0B20146DFF87B
:10014000C8825030B24F2A908DADC89847F6FF79DB
:10015000440053A800F150022C9201F17C02279236
:1001600001F17802269201F18002259201F17A02D2
:10017000023124920230299128909821284600F0DB
:1001800026FA0020239027E1304653A900F025FAF3
:10019000304600F05AFA4FF0000A239D2B9010E1F0
:1001A000304600F01AFABDF90401C899401A0A460F
:1001B0004845A8BF4846BDF90611B842D8BF3846E1
:1001C000891A4945A8BF4946BDF90821B942D8BF97
:1001D0003946BDF90A3122444A45A8BF4A4623445C
:1001E000ADF8E40122EAE272ADF8E6114B45A8BF92
:1001F0004B4623EAE370ADF8E821ADF8EA0179A9AE
:100200002C9800F0E9FD002800F0D580CC9838B19A
:10021000CC9853A92DAACB9B9847002800F0CB80FF
:10022000CD9EB6B1BDF90421BDF90831BDF99C01DF
:100230001344BDF9A011013BCDE90023279A0144E5
:1002400002920139269ACDE90326DDE9112300F057
:100250004EFBCE9EB6B1BDF90621BDF90A31BDF9FE
:100260009E011344BDF9A211013BCDE90023259A5B
:10027000014402920139249ACDE90326DDE90F23D6
:1002800000F035FB0020DDE9281234E031F9023CB2
:100290000BEB000608EB000500EE103AB8EEC00AC2
:1002A000B1F9003001EE103AB8EEC11A32F9023C51
:1002B00096ED002A03EE103AB8EEC33AB2F90060A8
:1002C00095ED004A05EE106A24EE011AB8EEC55A03
:1002D00022EE054A02EE001A02EE034AB4EEC14ACB
:1002E000F1EE10FA04DA9BB2B6B221F8023C0E80AD
:1002F000483004320431B0F5B46FC7D12C982A9934
:1003000000F08FFDDDE943016A9A1144699A6A9110
:10031000104445996B9A114369906B919DED4E0A7B
:100320009DED742A469930EE020A6C9A9DED4F1AA3
:100330009DED753A114431EE031A9DED502A9DED65
:10034000763A6C9132EE032A9DED513A9DED774A53
:100350008DED740A33EE043A9DED524A9DED785AC4
:1003600034EE054A8DED751A8DED762A8DED773ACE
:100370008DED784A04EE100AB8EE444A80EE045A35
:1003800081EE041A83EE040AC2EE040A8DED6D5A62
:100390008DED6E1AFCF72EFF9DED691A9DED782A02
:1003A0008DED6F0AB8EE410A0125139E82EE000A18
:1003B0008DED700A03E030462DA900F028F90AF10E
:1003C000010A2B982DA982457FF4EAAE23958DADC5
:1003D000284653A900F01BF9304600F036F90028F2
:1003E0007FF4D2AE3046294600F0EAF82398C007E1
:1003F0007FF4C3AE0DF52C7DBDEC0C8B01B0BDE8D8
:10040000F08F00BF00001008E06B01086839010898
:100410000080FFFF10B50029A8BF002A00DA10BD38
:10042000D0F800C08C45FADDD0F804E09645F6DD42
:10043000D0F808E0BEF1020F20D0BEF1010F23D0AA
:10044000BEF1000FEBD10CF11F0CC0684FEA5C1C31
:100450000CFB02F24FF0010C02EB511401F01F01F2
:1004600050F824E00CFA01F203F001032EEA020234
:1004700003FA01F1114340F8241010BDC0680CFBD1
:10048000021120F8113010BDC0680CFB021143545A
:1004900010BD0000B0B5DFF880C000220CF10403ED
:1004A000D0F800E00DE053F8044C744507D11C6807
:1004B0008568AC4203D15C684569AC421AD0013210
:1004C0001033012AEFD9022A14D1002205E0DCF80A
:1004D000003033B101320CF1100C012AF7D9022A95
:1004E00010D0CCF800E083684069CCE901300020EE
:1004F000ACF80C000848002900EB021030F80C3F63
:1005000002D01BB10020B0BD591C01E04FF4807136
:100510000180501CB0BD00BFD8030020C368083163
:1005200010461A46F0F742BA0068704700687047F4
:100530008A7E0078CB7E032842EA032018BF7047EA
:100540000A7D497D42EA012140EA01407047006886
:1005500070477CB5064601A814460D46FCF7B6FF69
:1005600001990022B1FBF4F1C6E90021C6E902407D
:1005700029607CBD10B50029044609D02068D4E963
:100580000223013800FB023308461946F0F70EFA41
:1005900020680138206010BD10B504460068D4E919
:1005A000022302FB0030F0F701FA206801302060DE
:1005B00010BDC06808B1FCF7F3BF70470068704712
:1005C00091E80C10C96880E80C10C16070470022E7
:1005D000C0E90022C0E902217047B0B500290468D3
:1005E000054606D004F10803EA6808461946F0F704
:1005F000DDF9206810B1002141602068A9682860F9
:10060000481EA8602046BDE8B04002F0A7B870B50B
:100610000446C06808300E4602F05DF80546E26800
:1006200008303146F0F7C2F9A16800204A1C0029C1
:10063000A260286005D054F8040F68602068056047
:1006400001E0686020C4256070BD806870470000CC
:100650002DE9FE4FF3F744FFF8F700FEF7F772FBC2
:10066000F2F7BEF801F0B4FF4FF4E130F9F70EFEF7
:10067000DFF850B15623DFF85491584652494A46A4
:10068000DFF84CA1D04753A055A100905BA31A22DC
:100690005846D047F8F708FD5B4DF0225B49F02340
:1006A0002846F9F7A1FC5A490020F9F739FC5949C5
:1006B0000120F9F735FC0020F9F722FC0120F9F7B9
:1006C0001FFC4AF65550F9F771FC2846F9F7C6FCAD
:1006D000514D2846F9F77CFC0020F9F7CBFC4AF68F
:1006E0005550F9F7C1FC4D4E0A2206F134074C492A
:1006F0004C4B3846F9F712FD4BA13846F9F789FD06
:1007000038462946F9F793FD6420322401904FF0D2
:1007100002080294311DCDF80080002214233846CF
:10072000F9F7DAFADC20CDF8008006F11C0101901F
:100730000122029478233846F9F7CEFA0021384690
:100740002A46F9F71BFB00214FF6FF723846F9F7EE
:1007500003FB37A200213846F9F722FB0121384676
:100760002A46F9F70BFB01214FF6FF723846F9F7DD
:10077000F3FA31A201213846F9F712FB3846F9F7AE
:1007800075FDF9F77FFCF7F7B3FCFAF71BFC642063
:10079000FCF798F829A0FBF73DF8FCF7C9FEFCF739
:1007A000D3FE30607F23584607494A46D047326817
:1007B00028A15846D047FCF70FFA002003B0BDE847
:1007C000F08F00BFA0A40020AF710108D87101080C
:1007D000B9B8000830383A32363A353100000000F6
:1007E0004F70656E4D56204255494C443A25303481
:1007F000642025732025730D0A0000004A756E20C1
:100800003232203230323000F803002039900008B4
:10081000958F0008639000089C3801083803002079
:1008200030A50020A72601084F70656E4D56340094
:1008300046696E64000000004F4B21005553425F33
:100840004445564943455F496E6974204F4B212109
:100850000D0A000066625F617661696CA3BA256467
:1008600000000000002A08BF704711F8013B013A60
:1008700000F8013BF9D170472DE9F84F8246002876
:100880004FF0000030D0934672B30F4659B358462C
:10089000F0F722F8B84226D80646781C801B4FF0A5
:1008A000000900901FFA89F40098A0421BD9002586
:1008B0001FFA85F846450FD908EB04001AF8000026
:1008C000EFF7A1FE1BF8081007460846EFF79BFE5E
:1008D000874205F10105EBD0464509F10109E1D157
:1008E0000AEB040000E0002001B0BDE8F08F2DE924
:1008F000F84F2DED0E4BDDF860A08046D346199DD4
:100900005045B8BF83462846A942C8BF0846A0EB59
:100910000B071C987E1C0797864298BF304687B20B
:1009200002908946059278001C4601F0E0FE00EE38
:10093000107AA9EB080101EE106A0131B8EEC00A85
:100940000646B8EEC11A2288CDF8189003EE101AA8
:1009500001949142D8BF0A46A5EB0A0192B280EEFB
:10096000018A013102EE102A1B9A01EE101AB8EE2C
:10097000C22AB8EEC33A12889142D8BF0A4692B250
:1009800082EE039AABEB0A0100EE102A4FF0000A48
:10099000B8EEC00AB8EEC11A0491ABEB080180EEC4
:1009A00001AA03914FE00BEB0A09C14522DB06982F
:1009B00081451FDC0398504400EE100AB8EEC00ACF
:1009C00029EE000AFCF7FAFC059C00EE10AA074687
:1009D000206830F81750B8EEC00A28EE000AFCF77D
:1009E000EDFC36F81010294426F81010002120687C
:1009F00020F817101898814523DB1998814520DCD1
:100A00000498504400EE100AB8EEC00A2AEE000A1C
:100A1000FCF7D4FC07461A9800EE10AA04460068BA
:100A200030F81750B8EEC00A28EE000AFCF7C6FCF2
:100A300036F81010294426F810100021206820F8FC
:100A400017100AF1010A07988245ACDD059D286858
:100A500001F084FE1A980446006801F07FFEDDE98B
:100A60000110088000201B992E6008802060BDECDA
:100A70000E4B01B0BDE8F08FB0B50446C06A8842A5
:100A800001D10020B0BD20460D4601F079FD00B136
:100A9000B0BD607804F1300101232A46FCF776F8F6
:100AA00000281CBF4FF0FF350120E562B0BD0000FB
:100AB00070B502221B4B014642801748C861174897
:100AC000174ADFF864C0DFF864E0194CC86201F12E
:100AD0004000184D184E0A634B63C1F838C0C1F886
:100AE0003CE070C01548164A164B174E174D184C6F
:100AF000DFF860C0DFF860E0C8640A654B658E65AA
:100B0000C1E91754C1E919CE4868144A40F01403EA
:100B10000020CA664B6070BD250F010849220108FC
:100B2000A11F0108851E0108311E0108151D0108BD
:100B3000FD220108E3200108A1220108C91D0108C6
:100B400089190108B9DD000829160108ADDA000885
:100B5000811C0108C9DF00083F210108CD230108DD
:100B600070B502221F4B014642801C481C4ADFF828
:100B700078C0DFF878E01E4CC86101F130001D4DEF
:100B80001D4E0A624B62C1F828C001F13C0CC1F84D
:100B90002CE070C019481A4A1A4BACE80D001A48EC
:100BA0001A4A1B4B1B4E1C4D1C4CDFF874C0DFF85F
:100BB00074E0C8641C480A654B658E65C1E917542A
:100BC000C1E919CEC866194A4868194B0A6740F04E
:100BD0000D0200204B674A6070BD00BFE50E0108A2
:100BE0002D240108BB0D0108A9260108D9210108FF
:100BF000891E0108811E0108151E0108DD1C01085F
:100C0000C5220108B1200108651D01080918010865
:100C100019DD000819150108D5D90008311B010894
:100C2000C5DE00080B210108992301084D230108A6
:100C3000A12101082DE9F0412DED088B801AB0EEBD
:100C4000408ADDF83C8000EE100A1C4615460E9FD7
:100C5000B8EEC0AAB0EE480ACE1A02F0BFFA20EEF3
:100C60000A9A00EE106AB8EEC0BAB0EE480A02F076
:100C70005DFB00EE4B9A00EE105AB8EEC00A39EE5A
:100C8000000ABDEEC00A10EE100AB0EE480A388025
:100C900002F04CFBB0EE409AB0EE480A02F09EFA29
:100CA00020EE0B0A01EE104A09EE0A0AB8EEC11A4C
:100CB00030EE010ABDEEC00A10EE100AA8F80000DE
:100CC000BDEC088BBDE8F0812DE9F041022927D366
:100CD000044640690E46884222D9207815460328EA
:100CE00021D0022837D001281AD106EB5607206AF6
:100CF00000EB57212046FFF7BFFE00285BD107F12C
:100D000001086FF35F2716F0010604EB070000F1FE
:100D1000300030D0017801F00F0165F30B112BE0AA
:100D20000220BDE8F081206A00EBD6112046FFF7D3
:100D3000A3FE00283FD106F07F0004EB800000F105
:100D400030063046FFF703FC014665F31B013046D1
:100D500001F095FB2CE0206A00EB16212046FFF7FE
:100D60008BFE40BBF0B2290A04EB400080F8305003
:100D700080F831101CE0E9B201700120216AE070B6
:100D800001EB58212046FFF777FEA0B96FF35F28EB
:100D9000002E04EB080000F1300002D0C5F307116B
:100DA00005E00178C5F3032201F0F0011144017060
:100DB0000120E0700020BDE8F081E0B540780DF141
:100DC0000702FBF765FC9DF80710002818BF4FF0DD
:100DD000FF31084602B080BDB1F900308446B1F958
:100DE0000420B0F900001A44824218DDBCF9042046
:100DF000104498424FF0000010DDB1F90230B1F913
:100E00000620BCF902101A448A42D8BF7047BCF9C8
:100E10000600014400209942C8BF0120704700200D
:100E2000704770B5B0F900E0B1F90030B1F904C015
:100E3000B0F902609E45B1F902400CEB0302B1F932
:100E40000610B8BF7346B0F904C0A6422144B8BF2B
:100E500034460CEB0E05B0F906C09542C8BF2A46D1
:100E600066448E42C8BF3146D21A0380091B4480B3
:100E70008280C18070BDF8B502292DD30568044673
:100E800068690E46884227D911462AB14FF0FF32D1
:100E90002846FFF719FF00BB20463146FCF7A4FEA9
:100EA000074601301BD0AFB1012F15D000222846D4
:100EB0003146FFF709FF80B9D5E90410821E91423F
:100EC00005D22A790131296142F001012971874255
:100ED0003E46E1D3002000E0022001B0F0BD012039
:100EE000FBE7000070B50446407812218022FBF732
:100EF0000BFC0A2001F0A8FB0025094E08E006EBD8
:100F0000450216F8151060785278FBF7FDFB0135A5
:100F1000472DF4D11E2001F097FB002070BD00BFCB
:100F2000203F010870B504464078FF210122FBF7FD
:100F3000EBFB607812218022FBF7E6FB0A2001F030
:100F400083FB00250E4E08E006EB450216F815104F
:100F500060785278FBF7D8FB0135AC2DF4D1002531
:100F6000084E08E006EB450216F815106078527836
:100F7000FBF7CAFB0135222DF4D1002070BD00BF64
:100F8000B03F01080F78010810B5044600F0B2F830
:100F900018B1012803D1A0880EE000200CE02168E0
:100FA000C1F34E00B0EB514F4FEA514101D2081A44
:100FB00002E0A288081A104480B210BDF8B51446A9
:100FC0000F460546FFF7E0FFB0B12A68A042A988A6
:100FD000AB68C2F34E0638BF04468A1BA24203EB3D
:100FE00006010BDD38462246EFF7E0FC286804EBEB
:100FF000500161F34F0017E0002416E03846EFF788
:10100000D5FC2A68A888A968C2F34E02821AB818CB
:10101000A21AEFF7CBFCA8882968201A00EB510030
:1010200060F34F0181F001002860204601B0F0BD5F
:101030002DE9F0418688054614468846FFF7A4FF4F
:10104000301A010418D081B2A14238BF0446286882
:10105000A7B2A6EB5042A968BA42164E01EB504027
:101060000CDD41463A46EFF7A1FC286804EB5041FD
:10107000304040EA414018E0002417E04146EFF7D5
:1010800095FCA8882968A0EB5142A86808EB0201EA
:10109000BA1AEFF78BFCA8882968201A00EB514098
:1010A000314041EA404080F480302860A0B2BDE881
:1010B000F08100BFFFFF010070B5868804460D4631
:1010C000FFF762FF864201D1002070BD2068A16851
:1010D000400C0D54A0882168013801F50032B0EBB6
:1010E000514F4FF001006FF35F4108BF81F4803230
:1010F000226070BD0068C0F34E01B1EB504F04D1C7
:1011000080EA104000F001007047022070470000A4
:101110002DE9F047714C04F54066714F80210122A2
:101120003046B8476F4D0A20A8478021002230463C
:101130004FF00008B8470A20A847FBF7A3FA0A2097
:10114000A84700204FF080714FF48012F4F778FF29
:10115000DFF894A180215046EFF7C1FC40F2011066
:10116000AAF814004FF4806101222046B8470A20F3
:10117000A8474FF4806100222046A146B8470A20C4
:10118000A847FBF7A7FA01068AF8010033D14FF40C
:1011900080618AF8158001224846F2F733FF0A2061
:1011A00001F052FAFBF796FA01068AF8010022D103
:1011B00000208AF814008021012230460125F2F730
:1011C00021FF0A2001F040FAFBF784FA01068AF8B1
:1011D000010010D14FF480618AF815500022484672
:1011E000F2F710FF0A2001F02FFAFBF773FA01065D
:1011F0008AF801006ED0C0B23C498AF800805428B9
:10120000CAF87C1006D15420394C8AF8000040F20C
:1012100047130AE000215246FBF73AFA9AF8000019
:10122000132810D1324C40F253133249324A20462F
:10123000FAF742FB4C492046FAF73EFB6FF00205F5
:101240002846BDE8F0879AF801000A215246FBF7CC
:101250001FFA9AF8000026280DD0772819D0962872
:10126000ECD1234C40F2611322492046224AFAF77E
:1012700023FB34A1DFE71C48FFF71AFC1C4E054690
:101280001C4940F267131C4A3046FAF715FB23A1AC
:101290000CE01548FFF764FC154E0546154940F271
:1012A0006B13154A3046FAF707FB14A13046FAF7DC
:1012B00003FB15B16FF00305C2E7F0F785FF0020CF
:1012C0000025FBF7F3FA1D480068C5601C48CAF802
:1012D0000800B5E76FF00105B2E700BF0000025853
:1012E00005400008492601088CA600203114010899
:1012F000A0A40020AF710108EC770108204F5637F9
:101300003732355F49442053656E736F72206973BD
:1013100020737570706F727465642E00204F5632A2
:101320003634305F49442053656E736F72206973A1
:1013300020737570706F727465642E000400002055
:10134000D0680108204F56393635305F4944205364
:10135000656E736F72206973206E6F742073757081
:10136000706F727465642E00D277010880B563488F
:10137000002101618176C0F8161006498160C169BB
:10138000884710B14FF0FF3080BD6248F1F784FD0F
:10139000002080BDD0680108B0B558490A7E82425D
:1013A00001D10020B0BD0A6BDAB10446534D284686
:1013B0002146904700284FF0FF3018BFB0BD50497C
:1013C00009682C7688610020C1E90000064A52F8BD
:1013D000343002EBC4028B605268C1E903234A61D6
:1013E000B0BD4FF0FF30B0BDD06A0108B0B5434981
:1013F000CA7D824217D0CA6ABAB104463F4D284618
:101400002146904700284FF0FF3018BFB0BDA11F04
:101410003B4AB1FA81F112684909EC75C900906143
:101420000846FBF743FA0020B0BD4FF0FF30B0BDD7
:101430002DE9F843DFF8C490804699F81710304C36
:101440000629206801D12F4E05E0D0E90212514350
:10145000022291FBF2F6C76900212B480160F2F7E6
:10146000DDFD05463920F3F79DF8284802213A466C
:101470003346F1F719FB40F6B837254E3068C00700
:101480000AD0F2F7CBFD401BB842F7D32148F1F761
:1014900003FD4FF0FF302DE01E4D2846F1F7FCFC18
:1014A00028B2F3F76DF899F81700C11E022902D28D
:1014B0002068022110E002280FD120680022C169B3
:1014C00004E011F81200885401322068D0E9023794
:1014D0007B439A42F5D301218161B8F1000F08D016
:1014E0002068D0E90212D0E9063088E80E00C8F87A
:1014F0000C00002001B0BDE8F08300BF8CA60020E6
:1015000000000020F0FF03002CA50020089E002012
:1015100000000248D09E00202DE9F84F0446407894
:1015200092460E460DF103021321FBF7B1F89DF828
:10153000031032466378002E01F0FE0118BF01222D
:1015400007460A4413211846FBF7DEF8002E47EA47
:10155000000764D1BAF1000F61DB60780DF1030878
:10156000DFF8909212214246C8479DF8031040EAE6
:1015700007054FF41077480658BF4FF4447760785A
:1015800001F003060D214246012E18BF0226C8476E
:101590009DF8031045EA000B01F0C000B0FA80F29C
:1015A0005509402808BF0425802808BF0625607813
:1015B000BF294FF0110188BF08254246C8479DF852
:1015C00003104BEA00084A0604D47E2000EA4100DA
:1015D000023000E001208949B1FBF0F088496843FE
:1015E000B0FBF1F04FF6FF7100FB0AF090FBF6F054
:1015F00090FBF7F08842B8BF014621EAE1756078B8
:10160000EAB21021FBF780F86378C5F3072248EAB5
:10161000000408211846FBF777F844EA000738462B
:1016200001B0BDE8F08F00BF2DE9FE4F04464078C1
:101630000DF10B0790460D46FF213A46FBF728F8BF
:10164000637806469DF80B10184641F00102FF2111
:10165000FBF75AF862780643132110463A46FBF727
:1016600017F89DF80B102A460643607801F0FE013A
:10167000002D18BF01220A441321FBF745F8002D65
:1016800046EA000740F0B180B8F1000FC0F2AD802B
:1016900060780DF10B0B574D12215A46A8479DF863
:1016A0000B102E4640EA070511F070004FF00007BE
:1016B00008BF40F28277402808BF40F2A6472028A2
:1016C00060784FF011015A4608BF40F25327B047E7
:1016D0009DF80B100543B14608064FF002064FF087
:1016E0007E0058BF012600EA4101607801F1020A3C
:1016F000CDF80480FF215A46D846C8476378054391
:101700009DF80B10CB46DFF88CCC184601F0FE029A
:10171000FF21E047627845EA0009DA211046424697
:10172000D8473649364A49EA0005B1FBFAF1714318
:10173000B1FBF2F19DF80B2002F00C02B2FA82F339
:101740005B095B00042A08BF0123082A019A02FBF7
:1017500001F108BF02234FF6FF7291FBF3F191FBF9
:10176000F7F19142B8BF0A46607822EAE277FF219A
:101770004246D847637805439DF80B1018461E4E25
:1017800041F00102FF21B047627805430421104671
:101790004246D8479DF80B100543607807F00302D6
:1017A00001F0FC010A440421B0476278054310218E
:1017B00010464246D8476378C7F387020543102195
:1017C0001846B04762780543042110464246D84780
:1017D0009DF80B1005436078C7F3852201F0C00126
:1017E0000A440421B04745EA0007384603B0BDE883
:1017F000F08F00BF91C6000809C70008001BB700A2
:1018000040420F0000000000F8B52DED067B0446B5
:1018100040780D46B0EE609AB0EE408A0DF10702B6
:101820001321FAF735FF9DF807102A466378002D3B
:1018300001F0FB0118BF0122064641EA8202132192
:101840001846FAF761FF002D40EA06053DD0B7EED5
:10185000C90AB3EE041B80EE018BB2EE040AFBF75B
:10186000B3FDB7EEC00A28EE000BB7EEC00BFBF7D6
:1018700089FDB7EEC00A60789FED411B80FE410BE9
:10188000B0EE001B0DF1070280FE010B1421B7EE34
:10189000C08BFAF7FDFE9DF80710B0EE480A40EA4B
:1018A0000506647801F08F05FBF798FDFBF764FDF2
:1018B0006FF00F0101EB0010C0B2142140EA0502E5
:1018C0002046FAF721FF054651E0B7EEC80AB3EE0D
:1018D000041B80EE018BB2EE040AFBF775FDB7EE38
:1018E000C00A28EE000BB7EEC00BFBF74BFDB7EEBE
:1018F000C00AB6EE002B9FED221B80FE410BB7EE17
:10190000001B80FE010BB7EEC08BB7EEC80A20EEBD
:10191000020B80FE010BB7EEC00BFBF75FFDFBF780
:1019200085FD0121BFEE001B814000EE101AC0F1C1
:1019300004000F26B8EEC00A26FA00F788EE000A67
:10194000B7EEC00A30EE010BB3EE001B20EE010B28
:10195000B7EEC00BFBF76AFD0F28B8BF064646EA94
:1019600007116078CAB20021FAF7CEFE064646EAB1
:101970000500BDEC067B01B0F0BD00BF00BF00BF9D
:1019800000000000000040402DE9F0412DED067BF5
:10199000044640780DF10708B0EE609AB0EE408A38
:1019A0000E4600290D464FF0FF0118BF01254246A3
:1019B000FAF76EFE637807469DF80710184641F067
:1019C0000102FF21FAF7A0FE6278074313211046B7
:1019D0004246FAF75DFE9DF807100743607801F074
:1019E000FB0141EA85021321FAF78EFE002E47EA39
:1019F00000053CD0B7EEC90AB3EE041B80EE018BA4
:101A0000B2EE040AFBF7E0FCB7EEC00A28EE000BCA
:101A1000B7EEC00BFBF7B6FCB7EEC00A60789FEDDF
:101A2000401B80FE410BB0EE001B0DF1070280FE53
:101A3000010B1421B7EEC08BFAF72AFE9DF80710B0
:101A4000B0EE480A40EA0506647801F01F05FBF78E
:101A5000C5FCFBF791FC6FF01F0101EB4010C0B219
:101A6000142142192046FAF74FFE054651E0B7EE21
:101A7000C80AB3EE041B80EE018BB2EE040AFBF73A
:101A8000A3FCB7EEC00A28EE000BB7EEC00BFBF7C5
:101A900079FCB7EEC00AB6EE002B9FED231B80FE4B
:101AA000410BB7EE001B80FE010BB7EEC08BB7EE0B
:101AB000C80A20EE020B80FE010BB7EEC00BFBF74D
:101AC0008DFCFBF7B3FC0121BFEE001B814000EE53
:101AD000101AC0F104000F26B8EEC00A26FA00F76B
:101AE00088EE000AB7EEC00A30EE010BB3EE001B21
:101AF00020EE010BB7EEC00BFBF798FC0F28B8BF28
:101B0000064646EA07116078CAB20021FAF7FCFDE2
:101B1000064646EA0500BDEC067BBDE8F08100BF45
:101B20000000000000006040000000000000404095
:101B30002DE9F84F2DED0E7B044640780D46B0EEB2
:101B4000418AB0EE609AB0EE40AA0DF1070213216F
:101B5000FAF79EFD9DF807102A466378002D01F0E4
:101B6000FD0118BF0122064641EA42021321184630
:101B7000FAF7CAFD002D40EA060571D160780DF133
:101B800007026921FAF784FDB7EECA0AB3EE04CB67
:101B900040EA05089DF80700B2EE04AA33A180EEE2
:101BA0000CDBDFF8D0B0B0EE4A0A800758BF043132
:101BB00091ED00BAD847B7EEC00ADFF8BCA02DEE11
:101BC000000BB7EEC00BD04720EE0B0A2B4EB047F0
:101BD000B7EEC90AFF27FF28A8BF384680EE0C9B46
:101BE000B0EE4A0A20EAE079D847B7EEC00A29EEFB
:101BF000000BB7EEC00BD0472BEE000AB047B7EE94
